:100000000C9462000C948A000C948A000C948A0070
:100010000C948A000C948A000C948A000C948A0038
:100020000C948A000C948A000C948A000C948A0028
:100030000C948A000C948A000C948A000C948A0018
:100040000C943B130C948A000C94AB130C94851302
:100050000C948A000C948A000C948A000C948A00F8
:100060000C94DD130C948A0000000000230026008D
:10007000290000000000240027002A0000000000E2
:10008000250028002B0004040404040404040202D4
:100090000202020203030303030301020408102007
:1000A0004080010204081020010204081020000012
:1000B0000008000201000003040700000000000027
:1000C0000000061511241FBECFEFD8E0DEBFCDBF64
:1000D00012E0A0E0B1E0E2EFFFE302C005900D9274
:1000E000A637B107D9F724E0A6E7B2E001C01D9218
:1000F000A43EB207E1F710E0C2E6D0E004C02197C9
:10010000FE010E94731CC136D107C9F70E94BF15BA
:100110000C94F71F0C940000833081F028F4813098
:1001200099F08230A9F008958730A9F08830C9F09D
:100130008430B1F4809180008F7D03C08091800075
:100140008F7780938000089584B58F7784BD08955C
:1001500084B58F7DFBCF8091B0008F778093B00006
:1001600008958091B0008F7DF9CF1F93CF93DF93D7
:10017000282F30E0F901E255FF4F8491F901E6564E
:10018000FF4FD491F901EA57FF4FC491CC23A9F056
:10019000162F81110E948C00EC2FF0E0EE0FFF1F54
:1001A000E458FF4FA591B4918FB7F894EC911111D9
:1001B00008C0D095DE23DC938FBFDF91CF911F91D4
:1001C0000895DE2BF8CFCF93DF9390E0FC01E65645
:1001D000FF4F24918A579F4FFC0184918823C9F0D7
:1001E00090E0880F991FFC01EE58FF4FA591B49144
:1001F000FC01E458FF4FC591D49161110DC09FB728
:10020000F8948C91209582238C93888128232883CD
:100210009FBFDF91CF910895623051F49FB7F8945A
:100220003C91822F809583238C93E8812E2BEFCFF6
:100230008FB7F894EC912E2B2C938FBFEACF3FB75A
:10024000F8948091350390913603A0913703B091D3
:10025000380326B5A89B05C02F3F19F00196A11DB4
:10026000B11D3FBFBA2FA92F982F8827BC01CD0100
:10027000620F711D811D911D42E0660F771F881F5F
:10028000991F4A95D1F708958F929F92AF92BF928E
:10029000CF92DF92EF92FF924B015C010E941F010F
:1002A0006B017C010E941F016C197D098E099F0959
:1002B000683E734081059105A8F321E0821A9108F8
:1002C000A108B10888EEC80E83E0D81EE11CF11C1D
:1002D00081149104A104B10429F7FF90EF90DF90FD
:1002E000CF90BF90AF909F908F900895AF92BF92A4
:1002F000CF92DF92EF92FF920F931F93CF93DF93F2
:100300006C017B018B01040F151FEB015E01AE1820
:10031000BF08C017D10759F06991D601ED91FC9142
:100320000190F081E02DC6010995892B79F7C5016F
:10033000DF91CF911F910F91FF90EF90DF90CF90C1
:10034000BF90AF900895FC01538D448D252F30E070
:10035000842F90E0821B930B541710F0CF960895D2
:1003600001970895FC01918D828D981761F0A28DFF
:10037000AE0FBF2FB11D5D968C91928D9F5F9F73C5
:10038000928F90E008958FEF9FEF0895FC01918D7B
:10039000828D981731F0828DE80FF11D858D90E0E8
:1003A00008958FEF9FEF0895FC01918D228D892F85
:1003B00090E0805C9F4F821B91098F73992708956D
:1003C000FC01A48DA80FB92FB11DA35ABF4F2C91CA
:1003D000848D90E001968F739927848FA689B789C1
:1003E0002C93A089B1898C91837080648C93938DB8
:1003F000848D981306C00288F389E02D80818F7D5B
:1004000080830895EF92FF920F931F93CF93DF9312
:10041000EC0181E0888F9B8D8C8D98131AC0E88940
:10042000F989808185FF15C09FB7F894EE89FF890F
:100430006083E889F98980818370806480839FBFAD
:1004400081E090E0DF91CF911F910F91FF90EF90AD
:100450000895F62E0B8D10E00F5F1F4F0F731127BD
:10046000E02E8C8D8E110CC00FB607FCFACFE889F8
:10047000F989808185FFF5CFCE010E94E001F1CF9F
:10048000EB8DEC0FFD2FF11DE35AFF4FF0829FB76C
:10049000F8940B8FEA89FB8980818062CFCFCF935C
:1004A000DF93EC01888D8823B9F0AA89BB89E8899C
:1004B000F9898C9185FD03C0808186FD0DC00FB642
:1004C00007FCF7CF8C9185FFF2CF808185FFEDCFC0
:1004D000CE010E94E001E9CFDF91CF910895089508
:1004E0004217530720F4640F751FFB0180830895A2
:1004F00008952F923F924F925F926F927F928F92C8
:100500009F92AF92BF92CF92DF92EF92FF920F93A2
:100510001F93CF93DF9300D000D000D0CDB7DEB7CC
:100520009A8389834B015E834D833901180127012A
:10053000DC82CB82C50122E0A222BB2483709927F2
:100540007A01892BC9F4ED80FE806201CE18DF08A4
:100550000BC087010F5F1F4F9301A701B40180E219
:10056000E981FA8109957801C6018E0D9F1D2B81C5
:100570003C818217930768F38101040D151DA701C3
:1005800002151305F1F4C701840D951DAB2891F5F3
:1005900026960FB6F894DEBF0FBECDBFDF91CF9188
:1005A0001F910F91FF90EF90DF90CF90BF90AF9091
:1005B0009F908F907F906F905F904F903F902F9083
:1005C00008956A013FEFC31AD30A9301B401F801F9
:1005D00082918F01E981FA810995A601D1CF8C0121
:1005E0000F5F1F4F9301AC01B40180E2E981FA81F2
:1005F0000995C8019C014D815E81241B350BEB815F
:10060000FC812E173F0758F3C3CF4F925F926F9232
:100610007F928F929F92AF92BF92CF92DF92EF9292
:10062000FF920F931F93CF93DF93CDB7DEB73C01BB
:10063000DB01C7015C2CCB88DC886D897E8961FD7C
:1006400034C07B01E1E0EE22FF24C114D10469F043
:10065000E114F10451F0511005C0FB01EC70FF27CB
:10066000EF2B19F0E1E0CE1AD108F801E80FF91FDD
:100670000F2EF0E34F2EF02D05C08032910529F0AA
:100680000196419288159905C0F3F801E80FF91F0A
:100690000F2EF0E34F2EF02DE114F10431F08C1504
:1006A0009D0518F48032910530F164FF47C072FD5A
:1006B00027C0009729F18815990519F08C159D051B
:1006C000F9F47C01E1E0EE1AF108C1F00297E0E1F3
:1006D000AE16B104C9F0C701E2E0AE16B10411F5DF
:1006E00080329105C8F5F801E80FF91F0F2EF2E6E8
:1006F000FF2EF02D15C001964192CECF90E080E004
:10070000E0E1AE16B10441F765FD3DC080329105D0
:1007100018F5F801E80FF91F0F2EF8E7FF2EF02D5E
:10072000F082019680329105B8F4F801E80FF91FC4
:100730000F2EF0E3FF2EF02DF0820196803291050E
:1007400058F4552059F1F801E80FF91F0F2EFDE27A
:10075000FF2EF02DF08201965B017C01BD01C301EB
:100760000E947902DF91CF911F910F91FF90EF903E
:10077000DF90CF90BF90AF909F908F907F906F90C1
:100780005F904F9008958032910530F7F801E80F9F
:10079000F91F0F2EF8E5FF2EF02DC2CF62FF08C023
:1007A000F801E80FF91F0F2EFBE2FF2EF02DD2CF3C
:1007B00063FFD2CFF801E80FF91F6894FF24F5F822
:1007C000C9CF2F923F924F925F926F927F928F92FA
:1007D0009F92AF92BF92CF92DF92EF92FF920F93D0
:1007E0001F93CF93DF93CDB7DEB7A6970FB6F894DC
:1007F000DEBF0FBECDBF9CA38BA31B013A01290115
:10080000C801B701CDA2650154018DAC9EAC219603
:10081000EEACFFAC2197611571058105910511F4CE
:10082000E894E4F8F2FE07C010E000E061157105FD
:100830008105910529F121E4E5FE21E6AE014F5F36
:100840005F4F5AA349A310E000E02A502EA3A6014F
:1008500095010E948C1B6A300CF041C0605D0F5FF7
:100860001F4FE9A1FAA16193FAA3E9A3B901CA0153
:10087000611571058105910519F00032110539F7EF
:10088000FF92EF929F928F928BAC9CACCDA078019F
:100890008E010F5F1F4F9201A301B1018BA19CA19B
:1008A0000E9405030F900F900F900F90A6960FB621
:1008B000F894DEBF0FBECDBFDF91CF911F910F9196
:1008C000FF90EF90DF90CF90BF90AF909F908F9070
:1008D0007F906F905F904F903F902F9008958EA1E2
:1008E000680FBDCF2F923F924F925F926F927F928F
:1008F0008F929F92AF92BF92CF92DF92EF92FF9230
:100900000F931F93CF93DF93CDB7DEB7AE970FB69C
:10091000F894DEBF0FBECDBF9C8F8B8F7E8F6D8F07
:1009200058A74FA338A32F8FEF8AF88E098F1A8FFD
:100930001601BAA2A9A29E8A8D8AA8019701C801B0
:10094000B7010E94E61C811114C02FEF3FEF4FE763
:100950005FE7C801B7010E94451E181654F02FEF3B
:100960003FEF4FE75FEFC801B7010E94E61C87FF2A
:100970002CC08D889E88A9A0BAA06101EF88F88C50
:10098000098D1A8D2F8D38A14FA158A56D8D7E8DA3
:100990008B8D9C8D0E941107AE960FB6F894DEBF2A
:1009A0000FBECDBFDF91CF911F910F91FF90EF90C0
:1009B000DF90CF90BF90AF909F908F907F906F907F
:1009C0005F904F903F902F90089520E030E0A90174
:1009D0006F89788D898D9A8D0E94E61C4F88588C7E
:1009E000698C7A8C87FF04C077FA709477F87094DA
:1009F0002D893E89222734703AA729A74D895E891F
:100A000052FD03C096E0292E312C49825A826B8216
:100A10007C82DA80EB80CC806D817E81242D3D2D1F
:100A20004E2D5C2D8F81988504E30E94381C298708
:100A30003A874B875C876D877E878F87988B698520
:100A40007A8577706F5F7340072E000C880B990BC7
:100A50000E94951D2BE930E24AE95EE30E944A1E9E
:100A600024E431E544E35EE30E947A1C4B015C011F
:100A700020E030E040EC5FE3642D7D2D8E2D9C2D39
:100A80000E94791C2BE33DE344E95EE30E944A1E89
:100A90009B01AC01C501B4010E947A1C0E945D1D3E
:100AA000698B7A8B8B8B9C8B89899A899A878987AA
:100AB000BC01990F880B990B0E94951D6B017C015D
:100AC00028E73AE944E550E40E944A1E20E030E07D
:100AD00040E05FE30E947A1C0E945D1D6BA37CA333
:100AE0008DA39EA32EE83DE543E150E4C701B60186
:100AF0000E944A1E6B017C012BA13CA1B901330F5E
:100B0000880B990B0E94951D28E132E741E35FE3D2
:100B10000E944A1E9B01AC01C701B6010E94791CCC
:100B20004B015C01AC019B010E944A1E6B017C01E0
:100B3000A5019401C501B4010E947A1C6BA77CA792
:100B40008DA79EA720E030E040E651E4C701B60142
:100B50000E94EB1C20E030E040E251E40E947A1C4D
:100B60009B01AC01C701B6010E94EB1C20E030E004
:100B700040EC50E40E947A1C9B01AC01C701B60115
:100B80000E94EB1C6B017C01A501940160E070E008
:100B900080E090E40E94791C9B01AC01C701B60182
:100BA0000E947A1C9B01AC016BA57CA58DA59EA51E
:100BB0000E94EB1C20E030E040E85FE30E947A1CDA
:100BC0006B017C014BA15CA141505C4F952F990FAB
:100BD000990B9A01492F592F692F792F892F0E943C
:100BE0001D1CC701B6010E944A1E6B017C01AC01AD
:100BF0009B01C301B2010E94E61C87FDE8C0C982C7
:100C0000DA82EB82FC8289859A858D599F4F873CD9
:100C1000910508F4EFC085E090E09A8B898B2D89CF
:100C20003E8933FF28C027E137EB41ED58E3C3018C
:100C3000B2010E94451E87FDE5C020E034E244E792
:100C400059E4C301B2010E94E61C87FFDBC049855D
:100C50005A85421553050CF0D2C0241A350A51E0CA
:100C6000251A31088D899E8994609E8B8D8B1A8AF6
:100C7000198A1A86198629A13AA149895A895901DE
:100C8000A41AB50A4217530710F0B12CA12C8D8974
:100C90009E89827099279CA38BA39D8991FF06C092
:100CA000E989FA89EF2B11F0B12CA12C29853A851D
:100CB000232B51F029813A814B815C81C301B20120
:100CC0000E94EB1C2B013C018D889E88E89493F8D0
:100CD00020E030E0A9016F89788D898D9A8D0E947E
:100CE000E61C87FF04C077FA709477F8709461016E
:100CF000830172012F8D38A14FA158A56D8D7E8D76
:100D00008B8D9C8D0E94110749895A89452B09F4C6
:100D100043CE2C015FEF451A550AED89E5FD7FC0F2
:100D2000E5E62F8D38A1AC016D8D7E8D8E2FEB8D7C
:100D3000FC8D0995CA84CC1CCC24CC1CE984FA8493
:100D4000F7FE03C0F194E194F1080F2C000C000BA6
:100D5000110B1F9285E08F9369887A88F1E06F1AF2
:100D600071087F926F921F921F928AE0882E912CB9
:100D7000A12CB12C2F8D38A1A2016D8D7E8D8B8D74
:100D80009C8D0E94E1030F900F900F900F900F9099
:100D90000F902BA13CA1232B09F4FECD9C014FA168
:100DA00058A5241B350BE9A1FAA12E173F0708F01F
:100DB000F3CD8C010F5F1F4F2F8D38A1AC016D8DCE
:100DC0007E8D80E2EB8DFC8D0995C801E7CF4989C6
:100DD0005A89415051095A87498720E030E040E262
:100DE00051E4C701B6010E94EB1C69837A838B83AF
:100DF0009C8309CFE4E0F0E0FA8BE98B10CF312C33
:100E0000212C30CF2114310409F435CFE9A5FAA5FE
:100E1000EF2B09F430CFF1E02F1A31082CCFE5E4A5
:100E200080CF2F923F924F925F926F927F928F92DC
:100E30009F92AF92BF92CF92DF92EF92FF920F9369
:100E40001F93CF93DF93CDB7DEB7E9970FB6F89432
:100E5000DEBF0FBECDBF9EA38DA378A76FA35AA7F9
:100E600049A73CA72BA7270138011601BCA2ABA2BA
:100E70005401A8019701C801B7010E94E61C88230C
:100E800091F0CBA0DCA053E0E52EF12C0DE711E0B2
:100E90002BA53CA549A55AA56FA178A58DA19EA11A
:100EA0000E9479024EC02FEF3FEF4FE75FEFC8017E
:100EB000B7010E94E61C87FF08C0CBA0DCA044E07D
:100EC000E42EF12C01E811E0E3CF2FEF3FEF4FE7E5
:100ED0005FE7C801B7010E94451E181674F483E04D
:100EE00090E009E711E082FE04C084E090E004E7AE
:100EF00011E0CBA0DCA07C01CBCF28E23BE64EE6A4
:100F00005EE4C801B7010E94451E181654F028E29D
:100F10003BE64EE65EECC801B7010E94E61C87FF87
:100F200029C04501ABA0BCA06101830172012BA5C2
:100F30003CA549A55AA56FA178A58DA19EA10E94A7
:100F40007204E9960FB6F894DEBF0FBECDBFDF91F5
:100F5000CF911F910F91FF90EF90DF90CF90BF90B6
:100F6000AF909F908F907F906F905F904F903F9049
:100F70002F90089520E030E0A901C801B7010E9438
:100F8000E61C87FFBFC0A801970160E070E0CB01BD
:100F90000E94791C2B013C0121E029ABB2FEB4C0B8
:100FA000FE01319610E000E080E39AE0291631045A
:100FB00048F00F5F1F4F819331E0231A3108003250
:100FC000110599F7C301B2010E945D1D6AAB7BABAD
:100FD0008CAB9DABAAA9BBA9BAA3A9A3F101EE0F43
:100FE000FF1FEE0FFF1FEE5EFE4F80819181A281F9
:100FF000B3818EAB9FABA8AFB9AFAAA9BBA9BD0106
:10100000BB0F880B990B0E94951D9B01AC01C3017E
:10101000B2010E94791C2EA93FA948AD59AD0E948A
:101020004A1E6DA77EA78FA798AB0E94641D6B0117
:101030007C010E94931D9B01AC016DA57EA58FA52F
:1010400098A90E94791C6DA77EA78FA798AB20E076
:1010500030E040E05FE30E94451E18160CF058C0D7
:10106000BFEFCB1ADB0AEB0AFB0AC701B6010E94ED
:10107000931D9B01AC016EA97FA988AD99AD0E941B
:10108000E61C181644F0EAA9FBA93196FAA3E9A3D5
:10109000C12CD12C76012114310409F081C029A181
:1010A0003AA1B901330F880B990B0E94951D9B0142
:1010B000AC01C301B2010E94791C6B017C0120E0EC
:1010C00030E040E05FE30E94E61C87FF0AC020E0BA
:1010D00030E040E05FE3C701B6010E94451E1816EC
:1010E00044F439A130FF05C089A19AA101969AA3C1
:1010F00089A3E1E0F0E0EC0FFD1FE00FF11F2AE013
:1011000030E090C019AA4ACF36E0232E312C48CFC8
:1011100020E030E040E05FE36DA57EA58FA598A9B3
:101120000E94E61C87FDB7CFC114D104E104F1048D
:1011300011F0C0FEB0CFFFEFCF1ADF0AEF0AFF0AAF
:10114000AACF91E0291A31080F5F1F4FC701B601DE
:10115000A30192010E948C1B605DD4016D934D012F
:1011600069017A01C114D104E104F10429F5E1E037
:10117000F0E0EC0FFD1FE00FF11F20E3003211053E
:10118000F1F0C801019621143104B9F5E1E0F0E075
:10119000EC0FFD1FE00FF11F2EE220838C01A9CF81
:1011A00088248394912C8C0E9D1E800E911E9AE0B3
:1011B000492E512C612C712C0032110511F6A1FC25
:1011C00047C0A0FE45C0ABA1BCA1AB2B09F440C0F9
:1011D000B9A9B11105C0C5018C709927892B29F0D7
:1011E000EBA1FCA13197FCA3EBA3E1E0F0E0EC0F55
:1011F000FD1FE00FF11F80E31CC02193B1E02B1A0B
:1012000031088C01BBCF0F5F1F4F89A19AA1B90193
:101210000E94781B805D819369A37AA389A19AA11A
:10122000892B69F20032110570F3C9CF0F5F1F4F90
:1012300081932BA13CA10217130750F40032110532
:10124000A8F3CBA0DCA078018E010F5F1F4F20CE4A
:1012500000321105B0F739A9332359F0E1E0F0E08D
:10126000EC0FFD1FE00FF11F8DE280830F5F1F4F1A
:10127000E8CFA2FE08C0E1E0F0E0EC0FFD1FE00FB8
:10128000F11F8BE2F2CFA3FEDCCFE1E0F0E0EC0F48
:10129000FD1FE00FF11F80E2E8CF2091BB02260F77
:1012A0003327331F21323105ECF420910603FC0172
:1012B00090E080E0243069F082E00895A091BB02C4
:1012C0002191AC0147565D4FA40FB52FB11D2C9352
:1012D0000196861798F38091BB02680F6093BB025A
:1012E00080E0089581E008951092060381E08093E4
:1012F00005031092E00261E082E10E94B50061E026
:1013000083E10E94B500E9EBF0E080818E7F80836D
:1013100080818D7F808388E48093B80085E480930A
:10132000BC000895CF93DF9391E0909398028823B7
:10133000B9F0C091B800D091BA008091BC008A7B0E
:101340008093BC0060E082E10E94B50060E083E130
:101350000E94B5000E947409D093BA00C093B800EF
:10136000DF91CF910895CF92DF92EF92FF920F938A
:101370001F93CF93DF93FC0184859585248131E011
:1013800030930C0320932E0310920D0310922F0321
:101390002385622BDC01ED91FC910190F081E02D21
:1013A0000995D0912F03D13208F094C0C0912E033B
:1013B0000E941F016B017C0180910603811165C0B1
:1013C00082E08093060381E0809305038FEF809392
:1013D000040310920303D0930203AEE0B3E0E2EE05
:1013E000F2E080E0D81385C01092E1028091E10222
:1013F000CC0FC82BC093E1028091E002813009F04C
:101400007CC01092E0020E941F016B017C01809160
:10141000E1028093BB008091080390910903A091A1
:101420000A03B0910B03892B8A2B8B2B99F00E9416
:101430001F01009108031091090320910A033091C4
:101440000B036C197D098E099F09061717072807DA
:101450003907E0F18091BC0083FDD9CF85EC809302
:10146000BC000E941F016B017C0180910603823049
:1014700009F445C0809104038F3F61F1809104031A
:10148000803241F18091040325C08091080390913E
:101490000903A0910A03B0910B03892B8A2B8B2B94
:1014A00009F48ACF0E941F010091080310910903DB
:1014B00020910A0330910B036C197D098E099F0955
:1014C000061717072807390708F076CF809107031A
:1014D0000E94920910920D0310922F0310920C0398
:1014E000DF91CF911F910F91FF90EF90DF90CF9000
:1014F00008959D9191938F5F75CF85EEB0CF8091C8
:10150000080390910903A0910A03B0910B03892B62
:101510008A2B8B2B09F4A9CF0E941F01009108038D
:101520001091090320910A0330910B036C197D0976
:101530008E099F09061717072807390708F095CF66
:10154000C5CF089508950895E0919702809196027D
:10155000E81730F4F0E0EA58FD4F808190E00895FC
:101560008FEF9FEF089590919702809196022FEF51
:101570003FEF981748F4E92FF0E0EA58FD4F20813B
:1015800030E09F5F90939702C90108958091960281
:1015900090919702891B990B0895CF92DF92EF9259
:1015A000FF920F931F93CF93DF937C01CB018A01AE
:1015B00020910C03222389F0EB016B01C40ED51E90
:1015C000CC15DD0569F06991D701ED91FC91019091
:1015D000F081E02DC7010995F3CF642F0E944D09DA
:1015E000C801DF91CF911F910F91FF90EF90DF9095
:1015F000CF900895CF93DF931F92CDB7DEB7698365
:1016000020910C032223F9F020912F03203258F06F
:1016100021E030E0FC013383228390E080E00F90F2
:10162000DF91CF91089580910D03E82FF0E0E25F04
:10163000FC4F998190838F5F80930D0380932F03DC
:1016400081E090E0ECCF61E0CE0101960E944D096F
:10165000F7CF90E080E008950895CF93DF93D0E036
:10166000C0E0009771F0FC0101900020E9F731978C
:10167000AF01481B590BBC0189E393E00E9476013E
:10168000EC0142E050E066E871E089E393E00E94FB
:1016900076018C0F9D1FDF91CF9108950E94DC1F72
:1016A0000F931F93FC0180859185039721F089E8B2
:1016B00091E00E94FC14828593856817790724F0D5
:1016C0008EEB91E00E94FC1477FF03C08DEC91E05B
:1016D000F9CF660F771F84859585680F791F220FD4
:1016E000331F242B352B000F111F000F111F202B30
:1016F000312BFB01318320831F910F9108950F93AC
:101700001F93CF938C01C62F0E94B3096C2F646086
:10171000C8010E94B3096C2F6B7FC8010E94B309F6
:1017200083EC90E00197F1F7CF911F910F9108950D
:101730000F931F93CF93DF938C01D62FC42F607F1D
:10174000642B0E947F0B80E1D89FB00111246C2B89
:10175000C801DF91CF911F910F910C947F0B41E055
:101760000E94980B81E090E008952F923F924F9253
:101770005F926F927F928F929F92AF92BF92CF9221
:10178000DF92EF92FF920F931F93CF93DF93CDB72A
:10179000DEB7EC970FB6F894DEBF0FBECDBF8E015B
:1017A000095A1F4F312C212C6796AEADBFAD6797FC
:1017B0008C91811130C06596EEADFFAD6597AF019C
:1017C000415051092E163F0608F4A10165962EAD31
:1017D0003FAD659763966EAD7FAD639780E00E94E5
:1017E0007002C101EC960FB6F894DEBF0FBECDBFFC
:1017F000DF91CF911F910F91FF90EF90DF90CF90ED
:10180000BF90AF909F908F907F906F905F904F9020
:101810003F902F90089567962EAD3FAD67972F5F4D
:101820003F4F67963FAF2EAF679771013FEFE31AC7
:10183000F30A853209F0FDC0512C412C0AC08D32CB
:10184000E1F0803391F4689440F86796FFAFEEAF13
:1018500067976796EEADFFAD679781918B3281F008
:1018600074F7803281F0833289F090ED980F9A30CE
:1018700008F042C01CA61BA620C0689441F8E5CF22
:10188000689442F8E2CF689443F8DFCF689444F854
:10189000DCCF6AE04BA55CA5649FC001659F900DFD
:1018A0001124C097DC01A20FB11D27FDBA95BCA77A
:1018B000ABA76796FFAFEEAF67976796EEADFFAD4C
:1018C0006797219180ED820F8A3018F36796AEAD4D
:1018D000BFAD67978C918E3209F07DC0CD01019626
:1018E000689452F811962C9130ED320F3A3008F08E
:1018F00054C01AA619A62FC08A32C9F498012E5FC7
:101900003F4FD8018D919C9197FF0EC0689441F88C
:1019100044275527481B590B5CA74BA7890167969D
:10192000FFAFEEAF6797D2CF9CA78BA7F7CF1CA6D0
:101930001BA6CCCF6AE049A55AA5649FC001659F4C
:10194000900D1124C097DC01A20FB11D27FDBA959F
:10195000BAA7A9A7CF01FC01219130ED320F3A308F
:1019600048F367969FAF8EAF679767962EAD3FADF2
:1019700067972F5F3F4F6796AEADBFAD67978C916E
:101980008C3699F15CF5883609F466C08A3651F1D7
:1019900067962EAD3FAD679731C02A32C1F4C801BA
:1019A0000296F8010190F081E02DFAA7E9A7F7FF70
:1019B00002C01AA619A667962EAD3FAD67972E5F97
:1019C0003F4F67963FAF2EAF67978C01CECF67969C
:1019D0009FAF8EAF67971AA619A6C7CF843711F0AD
:1019E0008A37B1F6689451F809C06796EEADFFAD3D
:1019F000679781818C3639F1689450F8F9018191AB
:101A00006796FFAFEEAF6797853609F402C30CF017
:101A100046C1873409F4FDC26CF5853409F4F9C276
:101A20000CF0D5C2853209F405C471014FEFE41AF8
:101A3000F40A65962EAD3FAD6597A10163966EAD34
:101A40007FAD639705C4F3E05F2A67962EAD3FAD87
:101A500067972E5F3F4FD2CF6796AEADBFAD67970A
:101A600011968C91883619F0689447F8C7CFB0EC7E
:101A70004B2AEBCF823609F4F2C34CF48835A9F631
:101A8000689445F820E130E03FA72EA710C08336C8
:101A900009F4E6C2843649F6E89444F8893609F434
:101AA00037C12AE030E03FA72EA7843611F053EF6C
:101AB000452252FE02C0E89440F89201222732707B
:101AC000893619F0843609F095C1232B09F428C111
:101AD000C80108969BAF8AAFD801BC901196CC90F4
:101AE00011971296DC9012971396EC901397149618
:101AF000FC9014971596BC91F801F681FFABF801A4
:101B0000F781FCAF4EA55FA59A0150E040E060E090
:101B100070E0CB0129A33AA34BA35CA36DA37EA3E2
:101B20008FA398A72B2D3C2D4D2D5E2D6F2D7B2F38
:101B30008FA99F2F0FE30E94381C29AFBDA6360145
:101B4000AE2C0F2D1B2F9FA88F2E2B2D3C2D4D2DF6
:101B50005E2D6F2D7B2F892D9F2FA0E00E94531C9F
:101B60004CF40E940D1C2DA7632E742EA52E8B0104
:101B7000982E892E68AA79AAAAAA0BAB1DAB2B2D89
:101B80003C2D4D2D5E2D6F2D7B2F8FA99CADA0E0A0
:101B90000E94531C11F4E89444F852FE0FC02B2D00
:101BA0003C2D4D2D5E2D6F2D7B2F8FA99CADA0E080
:101BB000712C612C0E94531C09F44DC081E445FE38
:101BC00081E6BE016F5F7F4F78AF6FAB712C612CE8
:101BD0008A508CAFA9A0BAA0CBA0DCA0EDA0FEA03B
:101BE0000FA118A52DA538A949A95AA96BA97DA9A6
:101BF000892D982D0E94AE1B2A300CF08EC0205DDE
:101C00008FEF681A780AAFA9B8AD2D93B8AFAFAB14
:101C1000A9A0BAA0CBA0DCA0EDA0FEA00FA118A5A2
:101C20002DA538A949A95AA96BA97DA9892D982D57
:101C30000E94B01B2DA738AB49AB5AAB6BAB7DAB49
:101C4000982E892EA0E00E94531C29F0B0E26B165A
:101C5000710409F0BFCF5F924F92ECA5EF93FBA503
:101C6000FF9389A49AA4AEA4BFA4C9AC73018E014A
:101C70000F5F1F4F65962EAD3FAD6597A10163962F
:101C80006EAD7FAD639780E792E00E9405031C0173
:101C90000F900F900F900F900AAD1BAD85CD8F3632
:101CA00009F4DAC24CF4873609F4B3C10CF48FC1DD
:101CB000893609F0BACEF0CE833709F429C2ECF4A4
:101CC000803709F0B2CE380132E0630E711CD801C2
:101CD000ED90FC9010E000E0B1E24B2A5F924F9251
:101CE0001F92E4E0EF93FAA5FF9329A52F9380E1DB
:101CF000882E912CA12CB12C5DC1853709F4CCCE56
:101D000040E150E0883709F090CE5FA74EA7CFCED4
:101D10006AE070E07FA76EA7CCCE7CAD270F70CFB6
:101D20002EA53FA54901B12CA12C380150FE3CC085
:101D300034E0630E711CD8014D915D916D917C91E1
:101D4000DB01CA018827B7FD83959927AA27BB27FE
:101D50007A018B0117FF08C010950095F094E0946C
:101D6000E11CF11C011D111D5F924F92ECA5EF9338
:101D7000FBA5FF932AA52F9339A53F93C82E6596FF
:101D80002EAD3FAD6597A10163966EAD7FAD6397B4
:101D900080E792E00E94E1031C010F900F900F90EA
:101DA0000F900F900F9033C142E0640E711C46FEFD
:101DB0001DC0D801EC900E2C000CFF08CF2CCC1CC1
:101DC000CC24CC1CF7FE03C0F194E194F1080F2C55
:101DD000000C000B110B5F924F92FCA5FF932BA5FB
:101DE0002F933AA53F9349A54F93C9CFF801E080BF
:101DF000F180E4CF4EA55FA5232B09F4C3C09A015F
:101E000050E040E060E070E0CB0129A33AA34BA38F
:101E10005CA36DA37EA38FA398A7B801685F7F4FD3
:101E200078AF6FABD8019C9011968C901197129659
:101E30007C90129713966C9013971496BC91BDA743
:101E4000F801F581F8ABD8011696BC91B9ABF80151
:101E5000F781FAAB292D382D472D562D6DA578A980
:101E60008B2F9F2FA0E00E94531C11F4E89444F89C
:101E700052FE0DC0292D382D472D562D6DA578A960
:101E800089A99AA9A0E00E94531C09F478C081E4B2
:101E900045FE81E69E012F5F3F4F3EAB2DAB1CAA56
:101EA0001BAA8A5089AFA9A0BAA0CBA0DCA0EDA044
:101EB000FEA00FA118A5292D382D472D562D6DA553
:101EC00078A989A99AA90E94AE1B2A300CF054C0A7
:101ED000205D4BA95CA94F5F5F4F5CAB4BABADA9DD
:101EE000BEA92D93BEABADABA9A0BAA0CBA0DCA080
:101EF000EDA0FEA00FA118A5292D382D472D562D98
:101F00006DA578A989A99AA90E94B01B922E832E4B
:101F1000742E652E6DA778AB89AB9AABA0E00E94BA
:101F2000531C29F0EBA9FCA9B09709F0BCCF5F9234
:101F30004F92FCA5FF932BA52F9389A49AA4AEA43E
:101F4000BFA4C12CEBA8FCA88E010F5F1F4F6596A4
:101F50002EAD3FAD6597A10163966EAD7FAD6397E2
:101F600080E792E00E9405031C010F900F900F90F4
:101F70000F900FA918AD18CC39AD230FAACF1CAA0A
:101F80001BAAD5CF4A01B12CA12C380150FE14C098
:101F900054E0650E711CD801ED90FD900D911C91DF
:101FA0005F924F92BCA5BF93EBA5EF93FAA5FF9369
:101FB00029A52F93C12CE3CE32E0630E711CD8010A
:101FC000ED90FC9046FCFF2410E000E0E9CF863461
:101FD00011F4689445F8380134E0630E711CD8019F
:101FE000ED90FD900D911C914201ABA4BCA4C9A43D
:101FF000DAA465962EAD3FAD6597A10163966EADEF
:102000007FAD639780E792E00E9411071C01830176
:10201000CBCB982F9F7D973419F4689453F88D7F1C
:10202000853411F4689445F83801B4E06B0E711CE6
:10203000F801E080F180028113814201ABA4BCA4CD
:10204000C9A4DAA465962EAD3FAD6597A10163964C
:102050006EAD7FAD639780E792E00E947204D6CFA9
:102060005201F2E0AF22BB24A101CC24C394D12CB5
:1020700041FC1DC0F12CE12C0BC065962EAD3FAD8F
:10208000659763966EAD7FAD639780E20E947002A4
:10209000A1014E0D5F1D670122E0C20ED11C3FEF72
:1020A000E31AF30A6BA57CA5E616F70630F31A01CE
:1020B0007FEF271A370A780182E0E80EF11C659657
:1020C0002EAD3FAD659763966EAD7FAD6397D8013A
:1020D0008C910E947002AB2829F0EBA5FCA5CE16CE
:1020E000DF0610F0870160CB81010F5F1F4F6596FF
:1020F0002EAD3FAD6597A10163966EAD7FAD639741
:1021000080E20E947002BFEFCB1ADB0A1801E5CF14
:102110003801F2E06F0E711CD8010D911C91E9A5F8
:10212000FAA59F01EF2B11F42FEF3FEF780190E01C
:1021300080E0A7014F5F5F4FD7016C91662319F0D4
:1021400082179307C9F4E01AF10A5201AA24B4E0F5
:10215000BB2252FE06C0E9A5FAA5EE15FF0508F45C
:102160007F016201F2E0CF22DD24A10141FC1FC00A
:10217000C7012E183F080FC001967A01DACF659685
:102180002EAD3FAD659763966EAD7FAD639780E2F0
:102190000E947002C701A101480F591F7C012FEF57
:1021A000E21AF20A6BA57CA58617970740F34A014D
:1021B000801A910A0CC03AA729A765962EAD3FADAB
:1021C000659763966EAD7FAD63970E947002A40120
:1021D000400F511FD8018D918D01882359F0A11412
:1021E000B10459F329A53AA521503109E9A5FAA569
:1021F000EF2B09F71A01CD2809F409CFE41AF50AE3
:1022000010C081010F5F1F4F65962EAD3FAD6597E2
:10221000A10163966EAD7FAD639780E20E9470026C
:102220001801C1018E0D9F1D2BA53CA58217930798
:1022300040F3EDCE71013FEFE31AF30A65962EAD40
:102240003FAD6597A10163966EAD7FAD639785E263
:102250000E9470021701A8CA48E050E056CD62E023
:1022600070E07FA76EA723CC7F928F929F92AF9250
:10227000BF92CF92DF92EF92FF920F931F93CF9373
:10228000DF93CDB7DEB7A0970FB6F894DEBF0FBED1
:10229000CDBF4C018B01F42EB52EE22EA32E3F9321
:1022A0002F935F934F931F936F938BED91E09F93C9
:1022B0008F931F9280E2782E7F92CE0101966C015F
:1022C0009F938F930E94B50BC6010E942D0BD401E2
:1022D0001896ED91FC91000F111F000F111FE00FD8
:1022E000F11FE082A182F282B382AF9280818F934C
:1022F000BF92FF9285EE91E09F938F931F927F9202
:10230000DF92CF920E94B50BC6010E942D0B61E0B7
:102310008F2D0E94E30061E08E2D0E94E3000FB636
:10232000F894DEBF0FBECDBFA0960FB6F894DEBF07
:102330000FBECDBFDF91CF911F910F91FF90EF9016
:10234000DF90CF90BF90AF909F908F907F90089537
:1023500085ED8093BC008091080390910903A091C2
:102360000A03B0910B030796A11DB11D23E0B6959A
:10237000A795979587952A95D1F72091BC0024FDC4
:1023800003C0109206030895409108035091090379
:1023900060910A0370910B03452B462B472B69F381
:1023A0000097A105B10541F025E32A95F1F700005A
:1023B0000197A109B109E1CF809107030C9492091B
:1023C0000C94531F8F929F92AF92BF92CF92DF9245
:1023D000EF92FF920F931F93CF93DF93CDB7DEB7AA
:1023E00028970FB6F894DEBF0FBECDBFDB01F12CEE
:1023F000E12CED91FC9111972081233231F42FEFE4
:10240000E21AF20A21812332B9F431961196FC9333
:10241000EE93E114F10439F4FC01208131812F5F46
:102420003F4F31832083ED91FC9111972081211141
:10243000E0CFE114F104C1F16D018C015F934F9382
:1024400083E792E09F938F931F9288E08F93CE0152
:1024500001965C019F938F930E94B50B4C01A701DD
:1024600060E270E0F801808191810E94E11FA40187
:10247000E814F9040CF4A701B501F80180819181F9
:102480000E94E81FF80180819181E80EF91EF18217
:10249000E082F601808191810196918380830FB65D
:1024A000F894DEBF0FBECDBF28960FB6F894DEBFFE
:1024B0000FBECDBFDF91CF911F910F91FF90EF9095
:1024C000DF90CF90BF90AF909F908F900895AF9284
:1024D000BF92CF92DF92EF92FF920F931F93CF9311
:1024E000DF93CDB7DEB7EDB6FEB6FC01A081B181BA
:1024F000FD01EE0FFF1FCDB6DEB6CE1ADF0A0FB616
:10250000F894DEBE0FBECDBEEDB7FEB731965F01CB
:10251000EDB7FEB752834183F501338322831583E0
:1025200004834DB75EB7495F5F4F9D012450310969
:1025300037FF22C06A9F90016B9F300D7A9F300D4C
:102540001124220F331F2A193B0950E040E04A179B
:102550005B07CCF46501C20ED31EFC01048115811A
:102560000C0D1D1DF501C190D1905F01F801D182C4
:10257000C0824F5F5F4FEBCFFA0111921192AF0112
:1025800021503109D5CFCB010FB6F894FEBE0FBE56
:10259000EDBEDF91CF911F910F91FF90EF90DF90F3
:1025A000CF90BF90AF900895FF920F931F93CF935A
:1025B000DF9300D000D000D0CDB7DEB7FC01EA5ADF
:1025C000FF4FF080FF2009F449C08C01108237963C
:1025D00040815181DC011296BC83AB8388EF91E08E
:1025E0009A83898384E1E8EFF1E001900D928A9566
:1025F000E1F7BE016F5F7F4FCE0103960E94E211AB
:10260000F801E75AFF4F40815181D8015796BE83A8
:10261000AD838DE092E09C838B8384E1EDE0F2E07A
:1026200001900D928A95E1F7BE016D5F7F4FCE015B
:1026300005960E94E211D8019C9684E1E2E2F2E064
:1026400001900D928A95E1F7D801AF5BBF4F84E10D
:10265000E2E2F2E001900D928A95E1F78F2D269645
:102660000FB6F894DEBF0FBECDBFDF91CF911F91A3
:102670000F91FF9008951F920F920FB60F921124A1
:102680002F933F938F939F93AF93BF938091310389
:1026900090913203A0913303B09134033091300311
:1026A00023E0230F2D3758F50196A11DB11D20936E
:1026B00030038093310390933203A0933303B0939C
:1026C00034038091350390913603A0913703B09184
:1026D00038030196A11DB11D8093350390933603F5
:1026E000A0933703B0933803BF91AF919F918F911F
:1026F0003F912F910F900FBE0F901F90189526E8D5
:10270000230F0296A11DB11DD2CF1F920F920FB6BB
:102710000F9211242F933F934F935F936F937F9367
:102720008F939F93AF93BF93EF93FF9389E393E0CE
:102730000E94E001FF91EF91BF91AF919F918F9126
:102740007F916F915F914F913F912F910F900FBEAD
:102750000F901F9018951F920F920FB60F92112491
:102760002F938F939F93EF93FF93E0914903F09101
:102770004A038081E0914F03F091500382FD1BC01A
:102780009081809152038F5F8F7320915303821742
:1027900041F0E0915203F0E0E75CFC4F958F8093AD
:1027A0005203FF91EF919F918F912F910F900FBE48
:1027B0000F901F9018958081F4CF1F920F920FB643
:1027C0000F9211242F933F934F935F936F937F93B7
:1027D0008F939F93AF93BF93EF93FF938091B90033
:1027E000887F803609F44AC0F0F5883209F4A7C022
:1027F00018F5803109F49BC0B8F4882309F4F9C0B6
:10280000883009F494C0FF91EF91BF91AF919F91EF
:102810008F917F916F915F914F913F912F910F9089
:102820000FBE0F901F901895883109F488C0803230
:1028300051F78093040314C0803409F49DC040F420
:102840008033B9F38833F9F68093040385ECB0C084
:10285000803509F485C0883509F496C0883499F626
:102860000E94A811D0CF883909F48CC038F5883778
:1028700029F050F4883611F0803729F683E08093F0
:1028800006031092DF0257C0883809F47BC08039F4
:1028900019F0803809F0B7CF8091DF02803208F05C
:1028A00071C0E091DF0281E08E0F8093DF028091A2
:1028B000BB00F0E0E154FD4F80833DC0803B39F028
:1028C000E0F4803A09F479C0883A09F09CCF84E0BA
:1028D000809306031092BC021092BB02E091B902F1
:1028E000F091BA0209958091BB0281110FC081E07D
:1028F0008093BB021092990209C0803C09F4A6CFD4
:10290000883C09F4A3CF883B09F07DCFE091BC025D
:1029100081E08E0F8093BC02F0E0E756FD4F80818E
:102920008093BB009091BC028091BB0229C0809132
:10293000E1028093BB0085EC8093BC0064CF909152
:10294000030380910203981758F5E091030381E097
:102950008E0F80930303F0E0EE51FD4F8081E9CFAD
:10296000E091030381E08E0F809303038091BB000D
:10297000F0E0EE51FD4F80839091030380910203BC
:102980009817C8F285E8D8CFE091030381E08E0F55
:10299000809303038091BB00F0E0EE51FD4F8083F4
:1029A0008091050381115CCF81E08093E00284EA8D
:1029B0008093BC001092060326CF85EC8093BC0068
:1029C000109206038091DF02803230F4E091DF0242
:1029D000F0E0E154FD4F10826091DF0270E0E09181
:1029E000BD02F091BE028FEB92E009951092DF02DA
:1029F0000ACF1092040334CF0E942D0B68EE73E0CF
:102A000080E090E00E9444010E94DC1F0F931F931E
:102A1000CF93DF93E9E3F3E01382128248EE53E0B1
:102A200060E070E044835583668377838EE391E0B2
:102A30009183808385EC90E09587848784EC90E097
:102A40009787868780EC90E0918B808B81EC90E07B
:102A5000938B828B82EC90E0958B848B86EC90E05C
:102A6000978B868B118E128E138E148EA5E3B4E095
:102A700013961C921E92129714964D935D936D932C
:102A80007C93179726E631E011963C932E93ECE267
:102A9000F4E081E0808384E108ED13E0E801982F01
:102AA00019929A95E9F70DEE13E0E801982F199223
:102AB0009A95E9F702E014E0E801982F19929A95A7
:102AC000E9F707E114E0E801982F19929A95E9F7E0
:102AD000C0E5D1E0D093D703C093D603F0932E0482
:102AE000E0932D04F0933204E0933104E1E4F4E048
:102AF000C4E0D0E0D183C08315821482468357831B
:102B00006087718733832283118A108A2AE531E036
:102B10003787268797E2928B868B94E0978B108E6F
:102B200098E0918FB38FA28FEDE5F4E0DF011D9265
:102B30008A95E9F78FEF8093C5041092C60410922E
:102B4000C7041092C8041092C9041092CA0423E06A
:102B500030E03093CC042093CB04EDECF4E090E132
:102B6000EF0119929A95E9F78093DD041092DE0443
:102B70001092DF04DF91CF911F910F910895CF93B1
:102B8000DF93CDB7DEB7C954D1090FB6F894DEBFD5
:102B90000FBECDBF789484B5826084BD84B581605A
:102BA00084BD85B5826085BD85B5816085BD809118
:102BB0006E00816080936E00109281008091810090
:102BC0008260809381008091810081608093810088
:102BD000809180008160809380008091B10084604A
:102BE0008093B1008091B00081608093B0008091AB
:102BF0007A00846080937A0080917A00826080936A
:102C00007A0080917A00816080937A0080917A00C6
:102C1000806880937A001092C100E0914903F0919E
:102C20004A0382E08083E0914503F09146031082DD
:102C3000E0914703F09148038FEC80831092510399
:102C4000E0914D03F0914E0386E08083E0914B03C9
:102C5000F0914C03808180618083E0914B03F0917F
:102C60004C03808188608083E0914B03F0914C039A
:102C7000808180688083E0914B03F0914C038081D8
:102C80008F7D80831A8219821C821B821D821E8284
:102C90001F82188603E010E01A87098766E0E62E97
:102CA000F12CFC86EB861A8A198A8FEF9FEF9C8B9A
:102CB0008B8B1D8A86E090E00E94B71E988B8F87D1
:102CC0008CE090E00E94B71E9E878D871F8B0E8B35
:102CD000F98EE88E8091060190910701A09108017C
:102CE000B09109018AA39BA3ACA3BDA38DEC9CEC7E
:102CF000ACE4BFE38EA39FA3A8A7B9A784E290E0AA
:102D00000E94B71E9B8F8A8F8CE090E00E94B71EB6
:102D10009F8F8E8F28E030E04BE050E070E060E065
:102D2000CE0146960E94341127E030E04AE050E0A0
:102D300061E070E0CE0146960E94341126E030E05A
:102D400049E050E062E070E0CE0146960E94341106
:102D5000EF85F88984E090E09183808360E00E94B1
:102D6000E300EF85F8891383028360E083E00E942B
:102D7000E300EF85F88982E090E09583848360E04A
:102D80000E94E3000FEF1FEF30E020E041E050E051
:102D900070E060E0CE0146960E9467127C0110E070
:102DA00000E02FEF3FEF41E050E061E070E0CE0146
:102DB00046960E9467123C0121E030E04FEF5FEF42
:102DC00062E070E0CE0146960E9467124C010FEF60
:102DD0001FEF21E030E050E040E063E070E0CE0122
:102DE00046960E9467125C0101E010E02FEF3FEF72
:102DF00050E040E064E070E0CE0146960E94671229
:102E00006C0130E020E04FEF5FEF65E070E0CE0155
:102E100046960E9467122C0130E020E041E050E02D
:102E2000B701CE0101960E94500B10E000E030E0A7
:102E300020E041E050E0B301CE0101960E94500B2A
:102E400021E030E041E050E0B401CE0101960E9463
:102E5000500B21E030E050E040E0B501CE0101969A
:102E60000E94500B01E010E021E030E050E040E033
:102E7000B601CE0101960E94500B30E020E050E0F8
:102E800040E0B201CE0101960E94500BFA82E98225
:102E900082E190E09C838B8387E392E00E942D0B7C
:102EA00064E670E080E090E00E9444011D8E1C8E7C
:102EB0000E941F016D837E838F839887E091C604F3
:102EC00081E08E0F8093C604F0E0EE0FFF1FE35AFF
:102ED000FB4F86ED93E0918380831D8E1C8E1092B4
:102EE00097021092960210920D0310922F030E94E7
:102EF000740981EA9AE09093BA028093B90282EA57
:102F00009AE09093BE028093BD0210925404809187
:102F10005804823018F098E090935404909159042A
:102F2000992339F0813029F480915404846080938E
:102F3000540462E370E080E090E00E9444016091FC
:102F40005A048FE494E00E94B30968EE73E080E0D5
:102F500090E00E94440160E38FE494E00E947F0BC4
:102F60000BE416E4C8010197F1F760E38FE494E005
:102F70000E947F0BC8010197F1F760E38FE494E0B2
:102F80000E947F0B83E592E00197F1F760E28FE406
:102F900094E00E947F0B60915404606240E08FE4F3
:102FA00094E00E94980B84E08093550440E06CE02C
:102FB0008FE494E00E94980B40E061E08FE494E09D
:102FC0000E94980B0BE31FE1C8010197F1F782E023
:102FD0008093560440E066E08FE494E00E94980BF2
:102FE00040E062E08FE494E00E94980BC8010197F2
:102FF000F1F788E080935A0460E08FE494E00E9447
:10300000B3091092C50422242394312C7E012AE2B4
:10301000E20EF11C10E2AA24AA94BA2C44EB842EEE
:1030200099249A94D12CC12C712C612C89859A8574
:10303000C816D9060CF431C12B853C85ED85FE857B
:1030400090E080E08217930784F4419151916416D7
:10305000750609F05CC121E04B895C894817590766
:1030600009F420E02D8B9C8B8B8B2B893C898981EB
:103070009A812817390709F066C08D89882309F4D9
:1030800062C06B817C81072E000C880B990B0E941B
:10309000951D2B013C010E941F012D813E814F8116
:1030A0005885621B730B840B950B6F3FAFEF7A074C
:1030B0008A079A0721F46EEF7FEF8FEF9FEF0E9450
:1030C000931D2DEB37E346E855E30E944A1E9B0112
:1030D000AC01C301B2010E94EB1C20E030E040ECE7
:1030E00050E40E94EB1C3B016C018C818F938B811F
:1030F0008F93DF92CF927F926F92EEE4F2E0FF9394
:10310000EF931F921F93FF92EF920E94B50BC7019E
:103110000E942D0B20E030E040E05FE3662D772D2C
:103120008C2D9D2D0E947A1C0E945D1D7A8B698BCF
:103130000E941F016D837E838F8398870FB6F8945A
:10314000DEBF0FBECDBF29893A89E0912D04F091F1
:103150002E0491E040912F04509130044217530700
:1031600009F490E08081892B808330933004209390
:103170002F048B899C89E0913104F091320431E075
:1031800040913304509134044817590709F430E052
:103190002081232B2083909334048093330497FD64
:1031A000B8C0288D398D821793070CF0B2C028A1C2
:1031B00039A12817390709F0B0C0EAA1FBA1EF3FF8
:1031C000FE0709F426C18CA19DA1019609F421C135
:1031D000CF01880F991FEE8DFF8DE80FF91F8181B8
:1031E0008F9380818F936FE572E07F936F931F922F
:1031F0001F93FF92EF920E94B50BC7010E942D0B07
:103200008CA19DA1880F991FEE8DFF8DE80FF91FEE
:1032100081818F9380818F93ABE6B2E0BF93AF93B0
:103220001F921F93FF92EF920E94B50BC7010E945D
:103230002D0B8AA19BA1880F991FEE8DFF8DE80FA2
:10324000F91F61E080810E94B5008CA19DA1880FCB
:10325000991FEE8DFF8DE80FF91FC080D18061E0CE
:103260008C2D0E94E300F601FF27E255FF4FE49109
:103270000FB6F894DEBF0FBECDBFE33009F4D0C166
:1032800008F0ABC0E13009F4BBC0E23009F4C2C1C0
:1032900060E08C2D0E94B500B8C0EF85F889C601AA
:1032A000880F991FE80FF91F208131813327F90119
:1032B000E255FF4F8491F901E656FF4F4490F90122
:1032C000EA57FF4F54905520F9F081110E948C006D
:1032D000E52DF0E0EE0FFF1FE859FF4FA591B491E7
:1032E000EC914E2231E020E009F430E0832F922F60
:1032F0000C2C02C0880F991F0A94E2F7682A792AD9
:103300003FEFC31AD30A92CE90E080E0F1CF01964E
:1033100099CE90E080E00E94FC1499A388A3D12C60
:10332000C12C712C612C4E895F8964167506BCF422
:10333000EE8DFF8DEC0DFD1D60E080810E94B500DB
:10334000EE8DFF8DEC0DFD1D60E082810E94B500C9
:103350007FEF671A770A84E0C80ED11CE4CF88A1FA
:1033600099A197FD2ACFCC8CDD8C489FF001499F15
:10337000F00D589FF00D1124EE0FFF1F8A8D9B8DCD
:10338000E80FF91F30E020E0241735070CF015CFC7
:103390008191919197FD1EC0C114D10439F0D101E2
:1033A00002C0B595A7958A95E2F7CD01BC016A5F89
:1033B0007F4F660F771FA1E0B0E0AC0FBD1FA60FD7
:1033C000B71FB901660F771F860F971F56969C93FC
:1033D0008E9355972F5F3F4FD7CFE73009F42AC11F
:1033E000E83009F430C1E43009F052CF8091800018
:1033F00080628093800090928B0080928A0005C04A
:1034000084B5806884BD84EB87BDBBA2AAA2BDA29F
:10341000ACA28091CB049091CC048130910509F449
:1034200033C10CF019C1892B09F0FCCDE091C50422
:10343000F0E0EE0FFF1FE35AFB4F80819181DC012A
:10344000ED91FC910480F581E02D0995882309F424
:10345000E1CDE091C504E093DD04F0E0EE0FFF1F45
:10346000E35AFB4FC080D180A60121E434E0ADECEB
:10347000B4E090E080E0812C912C54018394BA0157
:10348000680F791FFB011281B901680F791FFB01D9
:1034900060A9161303C0812C912C5401082E04C07E
:1034A000880C991CAA1CBB1C0A94D2F74D905D9005
:1034B0006D907C90139784289528A628B7288D9224
:1034C0009D92AD92BC92139701968531910599F624
:1034D0004B5E5F4F2B5E3F4F1496F4E025393F075C
:1034E00041F61092DE041092DF0484E5F601329674
:1034F000A1E7B4E001900D928A95E1F782E090E0B7
:103500009093CC048093CB048091DE042091DF045F
:10351000082F10E0D801AA0FBB1FAA0FBB1FA3538F
:10352000BB4FD12CC12C843008F0CDC0F801EC0D7C
:10353000FD1D4D905D906D907D904114510461048E
:10354000710409F4BAC030E0922F253108F0B5C0FB
:10355000A101022E02C0440F551F0A94E2F7052E66
:10356000000C660B770B2F5F3F4F53014201842203
:103570009522A622B72289288A288B2829F390939E
:10358000DF048093DE04EE0FFF1FEE0FFF1FE353F7
:10359000FB4F4095509560957095442255226622C8
:1035A0007722408251826282738228E0EAE0F1E071
:1035B000D70101900D922A95E1F720915804281720
:1035C00010F48FEF820FE82FF0E0EE0FFF1F21E0E5
:1035D00030E02C0F3D1FE20FF31F61A5690F6068FB
:1035E00040E08FE494E00E94980B8091DE042091EB
:1035F000DF0435E1839FC00111248F5B9B4F820F55
:10360000911D41E0DC01D0966C918FE494E00E9422
:10361000980B00CD84B5806284BD84EB88BDF5CE67
:1036200080918000806880938000909289008092D1
:103630008800EBCE8091B00080688093B00084EB6E
:103640008093B300E2CE8091B00080628093B0009E
:1036500084EB8093B400D9CE8230910509F454CF25
:10366000039709F0DFCC40E061E08FE494E00E9432
:10367000980B8BE39FE10197F1F761E070E07093A5
:10368000CC046093CB0429C00E941F010091C704A1
:103690001091C8042091C9043091CA04601B710BB9
:1036A000820B930B653176418540910508F4B2CCCD
:1036B0001092CC041092CB04B9CEEFEFCE1ADE0AF2
:1036C0008F5F20E030CF2093DF048093DE0421E081
:1036D00030E03093CC042093CB040E941F01609310
:1036E000C7047093C8048093C9049093CA0492CC11
:1036F00097FB072E16F4009407D077FD09D00E949F
:103700005F1C07FC05D03EF4909581959F4F08956E
:10371000709561957F4F0895A1E21A2EAA1BBB1BDD
:10372000FD010DC0AA1FBB1FEE1FFF1FA217B3078D
:10373000E407F50720F0A21BB30BE40BF50B661FA3
:10374000771F881F991F1A9469F760957095809567
:1037500090959B01AC01BD01CF010895689401C013
:10376000E8948F929F92CF93DF930E94BC1BDF91CE
:10377000CF919F908F90089588249924F401E401BB
:10378000B0E49F93AA279A158B049C04ED05FE05CF
:10379000CF05D007A10798F4AD2FDC2FCF2FFE2F38
:1037A000E92D982C892E982F872F762F652F542F4F
:1037B000432F322F2227B85031F7BF9127C01B2E3D
:1037C000BF91BB27220F331F441F551F661F771F52
:1037D000881F991F881C991CEE1FFF1FCC1FDD1F1F
:1037E000AA1FBB1F8A149B04EC05FD05CE05DF054F
:1037F000A007B10748F08A189B08EC09FD09CE091B
:10380000DF09A00BB10B21601A94E1F62EF49401AC
:10381000AF01BE01CD01000C0895609570958095B3
:10382000909530954095509521953F4F4F4F5F4F64
:103830006F4F7F4F8F4F9F4F0895002E083090F0AD
:10384000982F872F762F652F542F432F322F222723
:103850000850F4CF220F331F441F551F661F771FD8
:10386000881F991F0A95B2F7002D089597FD1094AF
:10387000002E083098F00850232F342F452F562F54
:10388000672F782F892F912DF4CF159497958795D1
:103890007795679557954795379527950A95AAF790
:1038A0001124002D08950024A7FD00942A17300547
:1038B0004005500560057005800590050895AA1B18
:1038C000BB1B51E107C0AA1FBB1FA617B70710F00B
:1038D000A61BB70B881F991F5A95A9F7809590953D
:1038E000BC01CD010895EE0FFF1F0590F491E02D6E
:1038F00009945058BB27AA270E94911C0C940B1EB8
:103900000E94FD1D38F00E94041E20F039F49F3FF4
:1039100019F426F40C94FA1D0EF4E095E7FB0C94D0
:10392000F41DE92F0E941C1E58F3BA176207730793
:103930008407950720F079F4A6F50C943E1E0EF44A
:10394000E0950B2EBA2FA02D0B01B90190010C01AF
:10395000CA01A0011124FF27591B99F0593F50F4C7
:10396000503E68F11A16F040A22F232F342F44271F
:10397000585FF3CF469537952795A795F040539517
:10398000C9F77EF41F16BA0B620B730B840BBAF0E7
:103990009150A1F0FF0FBB1F661F771F881FC2F752
:1039A0000EC0BA0F621F731F841F48F48795779566
:1039B0006795B795F7959E3F08F0B0CF9395880F20
:1039C00008F09927EE0F9795879508950E94D01DCE
:1039D00008F481E008950E94FF1C0C940B1E0E94C5
:1039E000041E58F00E94FD1D40F029F45F3F29F0AD
:1039F0000C94F41D51110C943F1E0C94FA1D0E945E
:103A00001C1E68F39923B1F3552391F3951B550BB5
:103A1000BB27AA2762177307840738F09F5F5F4FA1
:103A2000220F331F441FAA1FA9F335D00E2E3AF0E0
:103A3000E0E832D091505040E695001CCAF72BD0F8
:103A4000FE2F29D0660F771F881FBB1F2617370749
:103A50004807AB07B0E809F0BB0B802DBF01FF277B
:103A600093585F4F3AF09E3F510578F00C94F41D47
:103A70000C943F1E5F3FE4F3983ED4F38695779510
:103A80006795B795F7959F5FC9F7880F911D969534
:103A9000879597F90895E1E0660F771F881FBB1F90
:103AA000621773078407BA0720F0621B730B840B3D
:103AB000BA0BEE1F88F7E09508950E94641D689484
:103AC000B1110C943F1E08950E94241E88F09F5748
:103AD00098F0B92F9927B751B0F0E1F0660F771F32
:103AE000881F991F1AF0BA95C9F714C0B13091F028
:103AF0000E943E1EB1E008950C943E1E672F782F61
:103B00008827B85F39F0B93FCCF3869577956795EC
:103B1000B395D9F73EF490958095709561957F4F58
:103B20008F4F9F4F0895E89409C097FB3EF49095FE
:103B30008095709561957F4F8F4F9F4F9923A9F086
:103B4000F92F96E9BB279395F69587957795679515
:103B5000B795F111F8CFFAF4BB0F11F460FF1BC059
:103B60006F5F7F4F8F4F9F4F16C0882311F096E9EC
:103B700011C0772321F09EE8872F762F05C066239A
:103B800071F096E8862F70E060E02AF09A95660F53
:103B9000771F881FDAF7880F9695879597F908950C
:103BA000990F0008550FAA0BE0E8FEEF161617064E
:103BB000E807F907C0F012161306E407F50798F0B6
:103BC000621B730B840B950B39F40A2661F0232BCF
:103BD000242B252B21F408950A2609F4A140A6954B
:103BE0008FEF811D811D089597F99F6780E870E030
:103BF00060E008959FEF80EC089500240A94161663
:103C0000170618060906089500240A9412161306CA
:103C1000140605060895092E0394000C11F4882358
:103C200052F0BB0F40F4BF2B11F460FF04C06F5F74
:103C30007F4F8F4F9F4F089557FD9058440F551F4A
:103C400059F05F3F71F04795880F97FB991F61F01E
:103C50009F3F79F087950895121613061406551F95
:103C6000F2CF4695F1DF08C0161617061806991F01
:103C7000F1CF86957105610508940895E894BB27F6
:103C800066277727CB0197F908950E94D01D08F485
:103C90008FEF08950E945D1E0C940B1E0E94FD1D67
:103CA00038F00E94041E20F0952311F00C94F41DAE
:103CB0000C94FA1D11240C943F1E0E941C1E70F3DC
:103CC000959FC1F3950F50E0551F629FF001729FC1
:103CD000BB27F00DB11D639FAA27F00DB11DAA1FD0
:103CE000649F6627B00DA11D661F829F2227B00D1D
:103CF000A11D621F739FB00DA11D621F839FA00DA8
:103D0000611D221F749F3327A00D611D231F849FF7
:103D1000600D211D822F762F6A2F11249F5750404E
:103D20009AF0F1F088234AF0EE0FFF1FBB1F661FC9
:103D3000771F881F91505040A9F79E3F510580F092
:103D40000C94F41D0C943F1E5F3FE4F3983ED4F3B3
:103D5000869577956795B795F795E7959F5FC1F736
:103D6000FE2B880F911D9695879597F908950F93CF
:103D70001F93CF93DF938230910510F482E090E09F
:103D8000E091E204F091E30430E020E0B0E0A0E054
:103D9000309799F42115310509F44AC0281B390BD5
:103DA00024303105D8F58A819B816115710589F12F
:103DB000FB0193838283FE0111C040815181028106
:103DC000138148175907E0F04817590799F41097DD
:103DD00061F012960C93129713961C933296CF01B2
:103DE000DF91CF911F910F9108950093E2041093FA
:103DF000E304F4CF2115310551F04217530738F091
:103E0000A901DB019A01BD01DF01F801C1CFEF017A
:103E1000F9CF9093E3048093E204CDCFFE01E20F4B
:103E2000F31F819391932250310939832883D7CF8F
:103E30002091E0043091E104232B41F42091020110
:103E4000309103013093E1042093E00420910001BC
:103E5000309101012115310541F42DB73EB7409154
:103E6000040150910501241B350BE091E004F09111
:103E7000E104E217F307A0F42E1B3F0B28173907C4
:103E800078F0AC014E5F5F4F2417350748F04E0FB6
:103E90005F1F5093E1044093E004819391939FCF7F
:103EA000F0E0E0E09CCFCF93DF930097E9F0FC01D6
:103EB000329713821282A091E204B091E304ED01E3
:103EC00030E020E01097A1F420813181820F931F10
:103ED0002091E0043091E1042817390709F061C00E
:103EE000F093E104E093E004DF91CF910895EA01BB
:103EF000CE17DF07E8F54A815B819E014115510528
:103F0000B1F7E901FB83EA8349915991C40FD51FA9
:103F1000EC17FD0761F4808191810296840F951F53
:103F2000E90199838883828193819B838A83F0E06E
:103F3000E0E012968D919C9113970097B9F52D9121
:103F40003C911197CD010296820F931F2091E004BE
:103F50003091E1042817390739F6309751F510925E
:103F6000E3041092E204B093E104A093E004BCCF18
:103F7000D383C28340815181840F951FC817D9070D
:103F800061F44E5F5F4F88819981480F591F5183BB
:103F900040838A819B81938382832115310509F0B7
:103FA000B0CFF093E304E093E2049ECFFD01DC0187
:103FB000C0CF13821282D7CF81E090E0F8940C94A6
:103FC000F71FDC0101C06D9341505040E0F70895A8
:103FD000FB01DC014150504048F001900D9200205F
:103FE000C9F701C01D9241505040E0F70895F89480
:023FF000FFCF01
:103FF2000000E4048000FFFFFFFF00004000140007
:1040020054000000803F000020410000C842000030
:104012007A4400401C460050C347002474498096ED
:10402200184B20BCBE4C286B6E4E000000000202F2
:104032007601A3014F02D401B201C60100000000C3
:104042002C0BE011D41200000000AF0B7601290BFB
:104052006F0200000000FA0ACD0A290BA30AC60A61
:10406200B30AA40A666E692B00666E69006E616E01
:1040720000666E692D000D0A004E756D6265722034
:104082006F6620617267756D656E747320646F650B
:1040920064206E6F74206D61746368206E756D624A
:1040A2006572206F662073656E736F727300546F52
:1040B2006F204D616E7920537465707300546F6F79
:1040C200204665772053746570730050686173658C
:1040D2003D25642C20536F757263653D25642C2049
:1040E20053696E6B3D256400537465702023202054
:1040F200202020202020202020202020004D65612B
:1041020073757265642052504D2023232320202092
:1041120020002020202020202020202020202020BD
:10412200202020202020004D6F746F7220697320A0
:10413200436F6E666967757265642E2E2E00455058
:104142004D4620252E32662C205441202564004401
:1041520069676974616C3A20256400416E616C6F15
:06416200673A202564000D
:00000001FF
