:100000000C9461000C947E000C947E000C947E0095
:100010000C947E000C947E000C947E000C947E0068
:100020000C947E000C947E000C947E000C947E0058
:100030000C947E000C947E000C947E000C947E0048
:100040000C9455010C947E000C947E000C947E0060
:100050000C947E000C947E000C947E000C947E0028
:100060000C947E000C947E00000000002400270009
:100070002A0000000000250028002B0000000000DE
:1000800023002600290004040404040404040202DA
:100090000202020203030303030301020408102007
:1000A0004080010204081020010204081020000012
:1000B0000008000201000003040700000000000027
:1000C000000011241FBECFEFD8E0DEBFCDBF11E08E
:1000D000A0E0B1E0ECEAF5E002C005900D92AC378B
:1000E000B107D9F721E0ACE7B1E001C01D92AF380C
:1000F000B207E1F70E949F010C94D4020C94000017
:10010000833081F028F4813099F08230A1F0089595
:100110008730A9F08830B9F08430D1F48091800024
:100120008F7D03C0809180008F7780938000089539
:1001300084B58F7702C084B58F7D84BD089580918A
:10014000B0008F7703C08091B0008F7D8093B000A6
:100150000895CF93DF93282F30E0F901E255FF4F48
:100160008491F901E656FF4FD491F901EA57FF4F08
:10017000C491CC2391F081110E948000EC2FF0E01B
:10018000EE0FFF1FE458FF4FA591B491EC91ED23C2
:1001900081E090E021F480E002C080E090E0DF9117
:1001A000CF9108951F93CF93DF93282F30E0F9016B
:1001B000E255FF4F8491F901E656FF4FD491F901C2
:1001C000EA57FF4FC491CC23C1F0162F81110E9432
:1001D0008000EC2FF0E0EE0FFF1FEE58FF4FA591CF
:1001E000B4919FB7F894111104C08C91D095D82385
:1001F00002C0EC91DE2BDC939FBFDF91CF911F916A
:100200000895CF93DF9390E0FC01E656FF4F2491D1
:10021000FC01EA57FF4F8491882361F190E0880F39
:10022000991FFC01E859FF4FC591D491FC01EE588C
:10023000FF4FA591B491611109C09FB7F8948881CF
:10024000209582238883EC912E230BC0623061F4C9
:100250009FB7F8948881322F309583238883EC915F
:100260002E2B2C939FBF06C08FB7F894E8812E2BBE
:1002700028838FBFDF91CF91089560E082E00E94D4
:10028000D20060E084E00E94D20060E086E00E943C
:10029000D20060E083E00E94D20060E085E00E942E
:1002A000D20060E087E00C94D2001F920F920FB64C
:1002B0000F9211242F933F938F939F93AF93BF93EC
:1002C00080918B0190918C01A0918D01B0918E0154
:1002D00030918A0123E0230F2D3720F40196A11DD0
:1002E000B11D05C026E8230F0296A11DB11D209364
:1002F0008A0180938B0190938C01A0938D01B09320
:100300008E018091860190918701A0918801B09122
:1003100089010196A11DB11D8093860190938701EB
:10032000A0938801B0938901BF91AF919F918F9164
:100330003F912F910F900FBE0F901F901895CF9364
:10034000DF9300D000D000D0CDB7DEB7789484B56D
:10035000826084BD84B5816084BD85B5826085BDC1
:1003600085B5816085BD80916E00816080936E004F
:100370001092810080918100826080938100809141
:1003800081008160809381008091800081608093F2
:1003900080008091B10084608093B1008091B000B2
:1003A00081608093B00080917A00846080937A00AD
:1003B00080917A00826080937A0080917A008160D7
:1003C00080937A0080917A00806880937A001092FE
:1003D000C10060E088E00E94010160E089E00E94C5
:1003E000010160E08AE00E94010161E082E00E9478
:1003F000010161E083E00E94010161E084E00E946C
:10040000010161E085E00E94010161E086E00E9457
:10041000010161E087E00E940101A0E1B1E090E00C
:100420001196EC911197EE0F12968C911297880FFE
:10043000880FE80F8C91E80F81E0963008F480E097
:1004400028E0829FE00D1124F0E0E050FF4F908300
:100450009F5F19969C3021F70E943D0181E08093B7
:10046000850180E0E82E80E0F82EDD24D394909082
:100470007C01C0907D01A0907E0188E00E94A900CF
:10048000B82E80937C0189E00E94A900082F8093F8
:100490007D018AE00E94A900182F80937E012B2DF8
:1004A000200F280F8C2D90E0890D911D8A0D911D34
:1004B000422F50E08417950721F0222311F02330BA
:1004C00031F4E114F10499F20E940000D0CF0E94AF
:1004D0003D0180918501EB2D98E0899FE00D11246D
:1004E000000FE00F110F110FE10FF0E0E050FF4F90
:1004F000E08129E0E29FF0011124E05FFE4F83805C
:1005000094809092800180927F01A580B680B09205
:100510008201A092810107811085109384010093CC
:1005200083011C821D82DE82E4E0F0E0EC0FFD1FFF
:10053000E80DF91D608182E00E94D200E4E0F0E065
:10054000EC0FFD1FEA0DFB1D608184E00E94D200CC
:10055000E4E0F0E0EC0FFD1FE00FF11F608186E0AA
:100560000E94D2001982DA821B82E1E0F0E0EC0FF7
:10057000FD1FE80DF91D608183E00E94D200E1E0DB
:10058000F0E0EC0FFD1FEA0DFB1D608185E00E948D
:10059000D200E1E0F0E0EC0FFD1FE00FF11F608101
:0C05A00087E00E94D2008DCFF894FFCFBE
:1005AC00FF00000000000000000000000000000040
:1005BC000100010200010000000100000200000027
:1005CC000100010100000002000100000100010017
:1005DC000200000000010101000000020000000107
:1005EC0000000100020000000100000200010000F8
:1005FC0001010200000001000001000200010000E6
:10060C0000010100000001000200010000010000D7
:0C061C00000200010001010002000000CB
:00000001FF
