:100000000C9462000C948A000C948A000C948A0070
:100010000C948A000C948A000C948A000C948A0038
:100020000C948A000C948A000C948A000C948A0028
:100030000C948A000C948A000C948A000C948A0018
:100040000C94FD070C948A000C948A000C948A008E
:100050000C948A000C948A000C948A000C948A00F8
:100060000C9447080C948A0000000000240027002C
:100070002A0000000000250028002B0000000000DE
:1000800023002600290004040404040404040202DA
:100090000202020203030303030301020408102007
:1000A0004080010204081020010204081020000012
:1000B0000008000201000003040700000000000027
:1000C0000000311511241FBECFEFD8E0DEBFCDBF39
:1000D00011E0A0E0B1E0EAECF1E302C005900D927E
:1000E000A83FB107D9F723E0A8EFB1E001C01D9206
:1000F000A833B207E1F710E0C2E6D0E004C02197D0
:10010000FE010E948416C136D107C9F70E945B1117
:100110000C94E3180C94000008950895CF92DF9298
:10012000EF92FF920F931F93CF93DF936C017A01AD
:100130008B01C0E0D0E0CE15DF0581F0D8016D91D4
:100140008D01D601ED91FC910190F081E02DC60169
:100150000995892B11F02196EECF7E01C701DF9121
:10016000CF911F910F91FF90EF90DF90CF90089566
:10017000FC01848191E090937F028093A002109211
:10018000A9021092A802A485B5859385692BED91EB
:10019000FC9111970190F081E02DCD0109952091FE
:1001A000A802213208F047C08091A7028111FCCF3C
:1001B0008091A00292E09093A70291E09093A60212
:1001C0009FEF90937E0210927D0220937C02A0E824
:1001D000B2E0ECE5F2E090E0291721F03D91319397
:1001E0009F5FFACF10925B0290915B02880F892B80
:1001F00080935B028091A502813061F41092A50288
:1002000080915B028093BB008091BC0083FDF8CF9E
:1002100085EC01C085EE8093BC008091A7028230FE
:10022000E1F380917E028F3F31F080917E02803237
:1002300011F080917E021092A9021092A8021092F1
:100240007F0208950F931F93CF938C01C62F0E94B6
:10025000B8006C2F6460C8010E94B8006C2F6B7FDF
:10026000C8010E94B80083EC90E00197F1F7CF91AC
:100270001F910F9108950F931F93CF93DF938C01DC
:10028000C62FD42F607F642B0E94220180E1C89F7B
:10029000B00111246D2BC801DF91CF911F910F91F7
:1002A0000C94220141E00E943B0181E090E008951E
:1002B00085ED8093BC008091BC0084FDFCCF109242
:1002C000A702089540913802262F30E0240F311DF7
:1002D00021323105DCF42091A7022430C9F4FC015D
:1002E00080E090E0861758F4309138022191DC01CB
:1002F000A85EBD4FA30FB11D2C930196F3CF809143
:100300003802680F6093380280E0089581E0089514
:1003100082E008950895E091AB028091AA02E81767
:1003200030F4F0E0E850FE4F808190E008958FEFC8
:100330009FEF08959091AB028091AA02981750F414
:10034000E92FF0E0E850FE4F208130E09F5F90936E
:10035000AB0202C02FEF3FEFC90108958091AA02BE
:1003600090E02091AB02821B91090895CF92DF9219
:10037000EF92FF920F931F93CF93DF937C01CB01FA
:100380008A0120917F02222389F0EB016B01C40EC8
:10039000D51ECC15DD0569F06991D701ED91FC9171
:1003A0000190F081E02DC7010995F3CF642F0E94E1
:1003B0006201C801DF91CF911F910F91FF90EF90E3
:1003C000DF90CF900895CF93DF931F92CDB7DEB724
:1003D000698320917F022223D1F02091A80220324C
:1003E00040F021E030E0FC013383228380E090E0A4
:1003F00015C08091A902E82FF0E0E058FD4F9981E7
:1004000090838F5F8093A9028093A80205C061E06A
:10041000CE0101960E94620181E090E00F90DF9191
:10042000CF910895089580E090E008954217530712
:1004300020F4FB01E40FF51F808308950895CF9306
:10044000DF93C0EBD2E06E8183E00E94B6106F8133
:1004500085E00E94B610688587E00E94B6106B8127
:1004600082E00E94B6106C8184E00E94B6106D811B
:1004700086E00E94B61081E08B8BDF91CF910895CA
:1004800060E082E00E94B61060E084E00E94B61056
:1004900060E086E00E94B61060E083E00E94B61043
:1004A00060E085E00E94B61060E087E00E94B61030
:1004B0001092C30208950E94C8182F923F924F9243
:1004C0005F926F927F928F929F92AF92BF92CF92E4
:1004D000DF92EF92FF920F931F93CF93DF93CDB7ED
:1004E000DEB7EE970FB6F894DEBF0FBECDBF6796AE
:1004F000EEADFFAD67972E0127E5420E511C6596C4
:100500004EAD5FAD6597452B29F066E172E078ABA3
:100510006FA704C08EE192E098AB8FA7212C312CFD
:100520008081882309F485C09F012F5F3F4F7901A7
:10053000853279F081010F5F1F4F2FEF3FEFA1014F
:1005400065966EAD7FAD6597EFA5F8A90995F701A2
:100550006EC0612C712CD701F70181919F018B3204
:10056000A1F044F48032A1F0833209F06BC06894AA
:1005700064F8ECC48D3231F0803309F063C06894C4
:1005800060F8E4C4689461F8E1C4689462F8DEC479
:10059000689463F8DBC48A3209F0A2C0C2010296F3
:1005A000F2010190F081E02DFCA7EBA7F7FF02C05C
:1005B0001CA61BA69D012E5F3F4F3AA729A72C0121
:1005C000E9A5FAA580818C3609F08DC0E9A5FAA5C8
:1005D00081818C3609F4A4C0689470F83196FAA72A
:1005E000E9A7E9A5FAA58081853609F46DC30CF069
:1005F000C3C0873409F468C30CF0AFC0853409F474
:1006000063C30CF045C3853209F077C481010F5FE5
:100610001F4F2FEF3FEFA10165966EAD7FAD659740
:1006200085E2EFA5F8A90995E9A5FAA53196180183
:1006300077CFFFEF2F163F0611F0A10195C44EEFC3
:100640005FEF92C490ED980F9A3008F461C48A323B
:10065000A9F4C2010296F2018080918097FE09C040
:10066000689461F844275527481959095EA74DA792
:1006700002C09EA68DA6D9012C0102C01EA61DA6F1
:100680008C918E3259F5689472F8BD016F5F7F4F7F
:100690007AA769A711968C91119790ED980F9A30CF
:1006A00008F079CFFB011CA61BA6FAA7E9A72191A8
:1006B00080ED820F8A3008F083CF6AE04BA55CA5FD
:1006C000649FC001659F900D1124C097AC01420F3B
:1006D000511D27FD5A955CA74BA7E7CFBAA7A9A73D
:1006E0001CA61BA66DCF8D3674F48836E1F08A36D1
:1006F00009F077CF689471F869A57AA56F5F7F4F8D
:100700007AA769A76ECF8437F9F08A3709F069CFE5
:10071000689471F889A59AA501969AA789A761CFCF
:10072000F3E07F2A0AC0E9A5FAA58181883619F08D
:10073000689467F853CFF0EC6F2A29A53AA52E5F8D
:100740003F4F3AA729A74DCF689471F849A55AA5FC
:100750004F5F5F4F5AA749A744CF823609F4FFC3C2
:1007600024F4883509F4F4C3C8C3833609F4D4C229
:10077000843609F44AC0C1C38F3609F451C04CF421
:10078000873609F4A1C20CF483C2893609F0B5C3D7
:100790003CC0833709F419C384F5803709F0ADC331
:1007A000A2014E5F5F4F5EA74DA7F201008111814C
:1007B00020E030E0C30181629F938F931F92F4E0A9
:1007C000FF938BA49CA480E1A82EB12CC12CD12C2A
:1007D000E12CA10165966EAD7FAD65978FA598A9B7
:1007E0000E94380B1C01E9A5FAA531960F900F90D5
:1007F0000F900F904DA45EA493CE853731F08837CB
:1008000009F07BC340E150E00DC0E89464F88936FC
:1008100071F02AE030E03AAB29AB843661F004C0D5
:1008200048E050E05AAB49AB53EF652204C06AE0A0
:1008300070E07AAB69AB72FE02C0E89460F8930195
:1008400022273270893619F0843609F018C1232B1B
:1008500009F4C4C0C20108969CAF8BAFF201F080CE
:10086000A1811281B381C480B580D680E78049A977
:100870005AA99A0140E050E060E070E0CB0129A362
:100880003AA34BA35CA36DA37EA38FA398A72F2DA0
:100890003A2F412F5B2F6C2D7B2D8D2D9E2D0FE33D
:1008A0000E9448162DAF0A2FFC2DEB2D2F2D3A2F2D
:1008B000412F5B2F6C2D7B2D8D2D9E2DA0E00E9456
:1008C000641654F40E941D16F22E032F142FB52F18
:1008D000F62FE72FD82EE92EFBAA0CAB1DABBEAB33
:1008E0004F01DFAAE8AE2F2D302F412F5B2F6F2F46
:1008F0007E2F8D2D9E2DA0E00E94641611F4E894A9
:1009000064F872FE0DC02F2D302F412F5B2F6F2FFB
:100910007E2F8D2D9E2DA0E00E94641609F452C0FA
:1009200065FE02C081E401C081E6BE016F5F7F4FBA
:100930007AAF69AF412C512C8A508EAFA9A0BAA0D2
:10094000CBA0DCA0EDA0FEA00FA118A52BA93CA96F
:100950004DA95EA9692D782D8FA998AD0E94BE156D
:100960007FEF471A570A2A3014F4205D02C08EAD7B
:10097000280FE9ADFAAD2193FAAFE9AFA9A0BAA06B
:10098000CBA0DCA0EDA0FEA00FA118A52BA93CA92F
:100990004DA95EA9692D782D8FA998AD0E94C0152B
:1009A0002BAB3CAB4DAB5EAB962E872E8FAB98AF8F
:1009B000A0E00E94641641F0F0E24F16510409F0E5
:1009C000BDCF02C0412C512C7F926F928DA49EA46A
:1009D000ABA4BCA4C9A8DAA8EDACF7C029A93AA970
:1009E0005901C12CD12C70FE25C0A2014C5F5F4F74
:1009F0005AA349A3F2010081118122813381D901D7
:100A0000C8018827B7FD83959927AA27BB2737FFF9
:100A100007C030952095109501951F4F2F4F3F4FE0
:100A20007F926F92FEA5FF934DA54F938BA49CA43C
:100A3000E82EF8C0C2010296F20166FE05C00081F0
:100A4000002E000C110B04C030812181032F122FC6
:100A50002C01E12EEE1CEE24EE1C17FF03C01195B5
:100A600001951109012E000C220B330B7F926F921E
:100A7000FEA5FF934DA54F938BA49CA4F7C0232BF9
:100A800009F4B6C049A95AA99A0140E050E060E0D3
:100A900070E0CB0129A33AA34BA35CA36DA37EA373
:100AA0008FA398A7B201685F7F4F7CAF6BAFF20155
:100AB000F081FBABF20191808280F381FCABF2010B
:100AC000F481FDABF201F581FEABF201F681FFABE3
:100AD000F201F781F8AF2BA9392D482D5CA96DA93A
:100AE0007EA98FA99F2FA0E00E94641611F4E894BC
:100AF00064F872FE0DC02BA9392D482D5CA96DA993
:100B00007EA98FA998ADA0E00E94641609F452C096
:100B100065FE02C081E401C081E69E012F5F3F4F68
:100B20003AAF29AF412C512C8A508DAFA9A0BAA061
:100B3000CBA0DCA0EDA0FEA00FA118A52BA9392DFC
:100B4000482D5CA96DA97EA98FA998AD0E94BE15FC
:100B50003FEF431A530A2A3014F4205D02C04DAD12
:100B6000240FE9ADFAAD2193FAAFE9AFA9A0BAA07D
:100B7000CBA0DCA0EDA0FEA00FA118A52BA9392DBC
:100B8000482D5CA96DA97EA98FA998AD0E94C015BA
:100B90002BAB932E842E5CAB6DAB7EAB8FAB98AF43
:100BA000A0E00E94641641F0F0E24F16510409F0F3
:100BB000BDCF02C0412C512C7F926F928DA49EA478
:100BC000ABA4BCA4C9A8DAA8E12C82019E012F5FC6
:100BD0003F4FA10165966EAD7FAD65978FA598A932
:100BE0000E946E0A1C010F900F904BAC5CAC4CC085
:100BF00029A93AA95901C12CD12C70FE24C0A20107
:100C00004C5F5F4F5AA349A3F201008111812281F9
:100C100033817F926F92FEA5FF934DA54F938BA4D6
:100C20009CA4E12CA10165966EAD7FAD65978FA563
:100C300098A90E94380B1C010F900F900F900F90F5
:100C400049A05AA021C0C2010296F201008111817F
:100C500066FC11272C0120E030E07F926F92FEA508
:100C6000FF934DA54F938BA49CA4E12CA101659605
:100C70006EAD7FAD65978FA598A90E94380B1C01BA
:100C80000F900F900F900F90E9A5FAA5319648CCE0
:100C9000863411F4689465F8420154E0850E911C85
:100CA000F20100811181228133815301CDA4DEA4A0
:100CB000EBA4FCA4A10165966EAD7FAD65978FA5F1
:100CC00098A90E94530E22C0982F9F7D973419F443
:100CD000689473F88D7F853411F4689465F8420147
:100CE000F4E08F0E911CF201008111812281338189
:100CF0005301CDA4DEA4EBA4FCA4A10165966EADC6
:100D00007FAD65978FA598A90E94CD0B1C01E9A521
:100D1000FAA53196240104CC5301F2E0AF22BB24A2
:100D200061FC1DC0E12CF12CA1014E0D5F1D87015E
:100D30000E5F1F4FFFEFEF1AFF0A2DA53EA5E2162B
:100D4000F30658F42FEF3FEF65966EAD7FAD6597D4
:100D500080E2EFA5F8A90995E7CF1A0102C001E0EA
:100D600010E071013FEFE31AF30A620142E0C40EA2
:100D7000D11C2FEF3FEFA10165966EAD7FAD65975A
:100D8000F2018081EFA5F8A90995AB28C1F02DA546
:100D90003EA50217130798F45701FFEFAF1ABF0AD9
:100DA0002FEF3FEFA70165966EAD7FAD659780E2AF
:100DB000EFA5F8A909950F5F1F4F7501E8CFE9A5C9
:100DC000FAA5319617012601ABCBA2014E5F5F4F0A
:100DD0005AA349A3F201008111812BA53CA5232B25
:100DE00019F42FEF3FEF02C02BA53CA5F80180E0DE
:100DF00090E0AF014F5F5F4F6081662331F0821753
:100E0000930719F00196FA01F4CF7F01E01AF10A75
:100E10005301AA2434E0B32272FE06C04BA55CA5A0
:100E20004E155F0508F47A01630152E0C522DD2406
:100E300061FC1DC0C70141018E189F08AC01480D1F
:100E4000591D7C01FFEFEF1AFF0A2DA53EA5821761
:100E5000930760F42FEF3FEF65966EAD7FAD65971A
:100E600080E2EFA5F8A90995C701E8CF1A01410171
:100E7000801A910AA801480D591DF80181918F012E
:100E80008823C1F0A114B10451F42FEF3FEF659610
:100E90006EAD7FAD6597EFA5F8A90995EBCF2BA5B2
:100EA0003CA5215031096BA57CA5672B19F03CA707
:100EB0002BA7EBCF1A01CD28D1F0E41AF50AC70110
:100EC000820D931D2DA53EA58217930780F4810105
:100ED0000F5F1F4F2FEF3FEFA10165966EAD7FAD06
:100EE000659780E2EFA5F8A909951801E8CFE9A573
:100EF000FAA5319649A05AA013CB81010F5F1F4F6D
:100F00002FEF3FEFA10165966EAD7FAD659789CB61
:100F10001EA61DA6D701F70181917F0190ED980FC4
:100F20009A3008F0ADCB4AE02DA53EA5429F400186
:100F3000439F900C112450E3851A9108B401680F67
:100F4000711D87FD7A957EA76DA7E4CF790103CB4C
:100F5000689465F820E130E03AAB29AB65CC62E0FB
:100F600070E07AAB69AB60CC2FEF3FEF65966EAD6A
:100F70007FAD659780E0EFA5F8A90995C101EE96D0
:100F80000FB6F894DEBF0FBECDBFDF91CF911F919A
:100F90000F91FF90EF90DF90CF90BF90AF909F9018
:100FA0008F907F906F905F904F903F902F9008951B
:100FB0003FB7F8948091D5029091D602A091D702C4
:100FC000B091D80226B5A89B05C02F3F19F0019615
:100FD000A11DB11D3FBFBA2FA92F982F8827820FBF
:100FE000911DA11DB11DBC01CD0142E0660F771F0F
:100FF000881F991F4A95D1F708951F920F920FB637
:101000000F9211242F933F938F939F93AF93BF938E
:101010008091D1029091D202A091D302B091D402DA
:101020003091D00223E0230F2D3720F40196A11D2B
:10103000B11D05C026E8230F0296A11DB11D209306
:10104000D0028093D1029093D202A093D302B093A6
:10105000D4028091D5029091D602A091D702B0918E
:10106000D8020196A11DB11D8093D5029093D6029E
:10107000A093D702B093D802BF91AF919F918F9167
:101080003F912F910F900FBE0F901F9018951F92B8
:101090000F920FB60F9211242F933F934F935F93AC
:1010A0006F937F938F939F93AF93BF93EF93FF9330
:1010B0008091B900887F803609F49CC068F5883239
:1010C00009F45BC090F4803109F454C038F48823EB
:1010D00009F4F6C0883009F44DC0F6C0883109F42F
:1010E0004CC0803209F45DC0EFC0803409F468C0A0
:1010F00048F4803309F455C0883309F0E5C0809383
:101100007E02D8C0803509F44FC0883509F45DC02F
:10111000883409F0D9C0D6C0883909F4C7C0A8F40A
:10112000883709F467C038F4883609F463C080371B
:1011300009F460C0C9C0883809F4B8C0803909F41E
:101140005FC0803809F0C0C05BC0803B09F486C036
:1011500038F4803A09F466C0883A09F47FC0B4C014
:10116000803C09F4A7C0883C09F4A4C0883B09F47A
:101170008AC0AAC080915B0210C090917D028091CC
:101180007C02981770F5E0917D0281E08E0F8093CC
:101190007D02F0E0E45AFD4F80818093BB0085EC36
:1011A00086C080937E028EC0E0917D0281E08E0F2A
:1011B00080937D028091BB00F0E0E45AFD4F808374
:1011C00090917D0280917C026EC0E0917D0281E071
:1011D0008E0F80937D028091BB00F0E0E45AFD4FBA
:1011E00080838091A60281116DC081E08093A50269
:1011F00084EA61C083E08093A70210925A02CFCFA5
:1012000080915A02803208F051C0E0915A0281E088
:101210008E0F80935A028091BB00F0E0E65CFD4F98
:101220008083BDCF85EC8093BC001092A702809193
:101230005A02803230F4E0915A02F0E0E65CFD4F51
:10124000108260915A0270E0E091A102F091A20236
:101250008AE392E0099510925A0236C084E08093A6
:10126000A7021092390210923802E091A302F09185
:10127000A402099580913802811105C081E0809314
:10128000380210921802E091390281E08E0F8093AB
:101290003902F0E0E85EFD4F80818093BB009091C1
:1012A000390280913802981708F479CF85E8809345
:1012B000BC000AC085EC8093BC001092A70204C059
:1012C00010927E020E945801FF91EF91BF91AF9161
:1012D0009F918F917F916F915F914F913F912F914E
:1012E0000F900FBE0F901F9018952F923F924F9224
:1012F0005F926F927F928F929F92AF92BF92CF92A6
:10130000DF92EF92FF920F931F93CF93DF9300D062
:1013100000D0CDB7DEB71C014B015A0139012701BE
:101320009601227033273A83298333E0C322DD24D8
:101330005C834B83CD2821F46801C41AD50A06C00A
:101340007301E00EF11E4B815C8117C08B819C8183
:101350008C0D9D1D8415950598F7EB80FC808FEF13
:10136000E81AF80A2FEF3FEF4B815C81B40180E26D
:10137000F1010995FC82EB82E9CFE614F70471F0E4
:101380006A01FFEFCF1ADF0A2FEF3FEFB401F70139
:1013900082917F01F1010995A601EFCF8B819C819C
:1013A000800F911F29813A81232BA1F09C012A19DA
:1013B0003B092415350570F4FC013196FA83E98365
:1013C0002FEF3FEFAC01B40180E2F1010995898173
:1013D0009A81ECCF0F900F900F900F90DF91CF91EB
:1013E0001F910F91FF90EF90DF90CF90BF90AF9043
:1013F0009F908F907F906F905F904F903F902F9035
:101400000895833081F028F4813099F08230A1F082
:1014100008958730A9F08830B9F08430D1F48091F4
:1014200080008F7D03C0809180008F778093800043
:10143000089584B58F7702C084B58F7D84BD0895EB
:101440008091B0008F7703C08091B0008F7D809332
:10145000B0000895CF92DF92EF92FF920F931F9307
:10146000CF93DF938B0190E0FC01EE0FFF1F8E0FF7
:101470009F1FFC01E752FD4FE180F12CC280D12C6F
:10148000CE18DF082FEFC21AD20AEB010990002014
:10149000E9F72197C61BD70B8081970141E1849F13
:1014A000200D311D112424503D4F7901A60160E229
:1014B00070E0C9010E94CD18CC16DD060CF4E601DF
:1014C000AE015527B801C701DF91CF911F910F9150
:1014D000FF90EF90DF90CF900C94D4185F926F92B2
:1014E0007F928F929F92AF92BF92CF92DF92EF92B4
:1014F000FF920F931F93CF93DF93CDB7DEB73C01DD
:10150000DB015E2C74018A899B8981FD33C08928A7
:1015100061F080FF0AC0511005C0BC016C707727D4
:10152000672B19F061E0E61AF108F901E00FF11FED
:1015300060E30A151B0538F40032110520F40F5F33
:101540001F4F6193F6CFF901E00FF11FBC016170ED
:1015500077270F2EF0E39F2EF02D6115710551F0C6
:101560000E151F0538F40032110520F40F5F1F4FD0
:101570009192F3CF84FF4DC092FD16C00115110565
:1015800099F0A016B10619F00E151F0569F4B801FF
:101590006150710939F0E0E1CE16D10401F5025035
:1015A000110906C000E010E0F0E1CF16D104B1F45B
:1015B00085FD09C00032110508F045C0F901E00FB2
:1015C000F11F68E707C000321105E8F5F901E00FE7
:1015D000F11F68E560830F5F1F4F11C0B8018B01D9
:1015E000E2E0CE16D10459F46032710560F50F5F68
:1015F0001F4F620F731FE2E6DE2EFB01D082003226
:10160000110508F5F901E00FF11F60E360830F5F3A
:101610001F4F00321105B8F4552029F0F901E00FF1
:10162000F11F6DE20DC082FF05C0F901E00FF11F4F
:101630006BE206C083FF07C0F901E00FF11F60E213
:1016400060830F5F1F4F6C01BD01C3010E947509CC
:10165000DF91CF911F910F91FF90EF90DF90CF908E
:10166000BF90AF909F908F907F906F905F90089504
:101670002F923F924F925F926F927F928F929F92A2
:10168000AF92BF92CF92DF92EF92FF920F931F9390
:10169000CF93DF93CDB7DEB7A8970FB6F894DEBF30
:1016A0000FBECDBF9AA389A37CA36BA35EA34DA35A
:1016B00018012901EFA276016501540121960EADB2
:1016C0001FAD2197211431044104510409F40F7E08
:1016D00012FF05C0211431044104510481F105FFBA
:1016E00002C081E401C081E69E012F5F3F4F4901A6
:1016F000612C712C8A5088A7C201B101A701960103
:101700000E949C153FEF631A730A6A3014F4605DFF
:1017100002C088A5680FF40161934F01C201B101B5
:10172000A70196010E949C1519012A01232B242B45
:10173000252B39F0F0E26F167104F1F602C0612C2E
:10174000712C1F930F938DAC9EACEFA083019E0173
:101750002F5F3F4F4DA15EA16BA17CA189A19AA1F2
:101760000E946E0A0F900F90A8960FB6F894DEBFF5
:101770000FBECDBFDF91CF911F910F91FF90EF90E2
:10178000DF90CF90BF90AF909F908F907F906F90A1
:101790005F904F903F902F9008952F923F924F92DD
:1017A0005F926F927F928F929F92AF92BF92CF92F1
:1017B000DF92EF92FF920F931F93CF93DF93CDB7FA
:1017C000DEB7A2970FB6F894DEBF0FBECDBF9A8BDF
:1017D000898B7C8B6B8B58A34F8F0B871C872D8736
:1017E0003E871701DE8ECD8EBA86A986A9019801A3
:1017F000CA01B9010E94F716811118C02FEF3FEFFF
:101800004FE75FE76B857C858D859E850E94561826
:10181000181664F02FEF3FEF4FE75FEF6B857C8585
:101820008D859E850E94F71687FF12C0A984BA8411
:10183000CD8CDE8C71010B851C852D853E854F8DF1
:1018400058A16B897C8989899A890E94530E12C29A
:1018500020E030E0A9016B857C858D859E850E9406
:10186000F7164B845C846D847E8487FF04C077FA0E
:10187000709477F8709429853A85222734703AA3BA
:1018800029A389859A8592FD03C036E0232E312C49
:1018900049825A826B827C82242D3A814B815C8101
:1018A0006D817E818F819885498204E30E9448166C
:1018B000B90177706F5F7340072E000C880B990B8E
:1018C0000E94A6172BE930E24AE95EE30E945B180A
:1018D00024E431E544E35EE30E948B166B017C0156
:1018E00020E030E040EC5FE369817A818B819C816C
:1018F0000E948A162BE33DE344E95EE30E945B18F5
:101900009B01AC01C701B6010E948B160E946E17A5
:101910006D8B7E8B8F8B988FED89FE89F88BEF878F
:10192000BF01FF0F880B990B0E94A6176B017C016A
:1019300028E73AE944E550E40E945B1820E030E0F3
:1019400040E05FE30E948B160E946E174B015C0122
:101950002EE83DE543E150E4C701B6010E945B1863
:101960006B017C01B401092C000C880B990B0E94BF
:10197000A61728E132E741E35FE30E945B189B0171
:10198000AC01C701B6010E948A166B017C019B0164
:10199000AC010E945B18698F7A8F8B8F9C8F31E02E
:1019A000831A3CEF930A992D990F990B9401492FB3
:1019B000592F692F792F892F0E942D1629833A8359
:1019C0004B835C83A7019601C701B6010E948B1669
:1019D0004B015C0120E030E040E651E4698D7A8DF6
:1019E0008B8D9C8D0E94FC1620E030E040E251E49B
:1019F0000E948B169B01AC01698D7A8D8B8D9C8D1D
:101A00000E94FC1620E030E040EC50E40E948B166F
:101A10009B01AC01698D7A8D8B8D9C8D0E94FC168B
:101A2000698F7A8F8B8F9C8FA701960160E070E0A1
:101A300080E090E40E948A169B01AC01698D7A8D4A
:101A40008B8D9C8D0E948B169B01AC01C501B4014E
:101A50000E94FC1620E030E040E85FE30E948B1615
:101A600029813A814B815C810E945B186B017C016A
:101A70009B01AC01C301B2010E94F71687FD05C0AE
:101A8000C982DA82EB82FC8211C08D899E8901971E
:101A9000988B8F8720E030E040E251E4C701B60127
:101AA0000E94FC1669837A838B839C838F85988937
:101AB0008D599F4F873C910520F025E0822E912C77
:101AC00003C094E0892E912CE985FA85F3FF35C097
:101AD00027E137EB41ED58E3C301B2010E945618EC
:101AE00087FD21C020E034E244E759E4C301B2019C
:101AF0000E94F71687FF17C02F85388922153305F6
:101B000034F4221A330A31E0231A310802C0212C9E
:101B1000312C89859A8594609A878987812C912CAC
:101B2000188A1F860AC02114310439F0E9A1FAA1EC
:101B3000EF2B19F0F1E02F1A31082D8D3E8D821612
:101B4000930620F46901C818D90802C0C12CD12C11
:101B500089859A85827099279E8B8D8B998591FFB7
:101B600005C08114910411F0C12CD12CEF85F889A6
:101B7000EF2B51F029813A814B815C81C301B20185
:101B80000E94FC162B013C01A984BA84E894B3F8A6
:101B900020E030E0A9016B857C858D859E850E94C3
:101BA000F7169301820187FD305871014F8D58A1BE
:101BB0006B897C8989899A890E94530EAC018114B2
:101BC000910409F456C03C01FFEF6F1A7F0A298582
:101BD00025FD02C085E601C085E42FEF3FEF6B894C
:101BE0007C89E989FA890995E888EE1CEE24EE1CC7
:101BF0000F85188917FF03C0119501951109012E52
:101C0000000C220B330B1F9285E08F93F1E08F1AAB
:101C100091089F928F92812C912C8AE0A82EB12C52
:101C2000C12CD12CA3016B897C8989899A890E9456
:101C3000380BAC010F900F900F900F902D893E89BB
:101C4000232BB9F0CA012F8D38A1821B930BED8D88
:101C5000FE8D8E179F0768F48A010F5F1F4F2FEFCD
:101C60003FEF6B897C8980E2E989FA890995A801AF
:101C7000E9CFCA01A2960FB6F894DEBF0FBECDBF62
:101C8000DF91CF911F910F91FF90EF90DF90CF9058
:101C9000BF90AF909F908F907F906F905F904F908C
:101CA0003F902F9008952F923F924F925F926F92A4
:101CB0007F928F929F92AF92BF92CF92DF92EF92DC
:101CC000FF920F931F93CF93DF93CDB7DEB7E597C6
:101CD0000FB6F894DEBF0FBECDBF98A78FA37AA72B
:101CE00069A75CA74BA728013901FCA2EBA2DEA2E1
:101CF000CDA21501A9019801C301B2010E94F716F6
:101D0000882341F06501EDA0FEA003E010E02FEE76
:101D100031E0E2C12FEF3FEF4FE75FEFC301B201C8
:101D20000E94F71687FF08C06501EDA0FEA004E041
:101D300010E023EF31E0D0C12FEF3FEF4FE75FE737
:101D4000C301B2010E94561818167CF4A2FC05C00B
:101D500003E010E02BEE31E004C004E010E026EEDA
:101D600031E06101EDA0FEA0B7C128E23BE64EE6FE
:101D70005EE4C301B2010E945618181654F028E21E
:101D80003BE64EE65EECC301B2010E94F71687FF08
:101D900010C05101CDA0DEA0EBA0FCA093018201F8
:101DA0004BA55CA569A57AA58FA198A50E94CD0B2E
:101DB0009BC120E030E0A901C301B2010E94F716E7
:101DC00087FF0CC0A301920160E070E0CB010E948C
:101DD0008A162B013C0121E02DA701C01DA632FC73
:101DE00004C086E090E09CA38BA3FE01319600E046
:101DF00010E080E32BA13CA12A30310558F00F5FA1
:101E00001F4F8193ABA1BCA11197BCA3ABA3003220
:101E1000110581F7C301B2010E946E176EA77FA75B
:101E200088AB99AB8EA59FA59AA389A3EBA1FCA132
:101E3000EE0FFF1FEE0FFF1FEC57FE4F80819181C9
:101E4000A281B3818AAB9BABACABBDABAEA5BFA54A
:101E5000BD01BB0F880B990B0E94A6179B01AC011B
:101E6000C301B2010E948A162AA93BA94CA95DA907
:101E70000E945B184B015C010E9475176B017C018D
:101E80000E94A4179B01AC01C501B4010E948A16EF
:101E90004B015C0120E030E040E05FE30E94561817
:101EA0001816E4F4BFEFCB1ADB0AEB0AFB0AC701F2
:101EB000B6010E94A4179B01AC016AA97BA98CA959
:101EC0009DA90E94F7161816FCF0EEA5FFA5319605
:101ED000FAA3E9A3C12CD12C760116C020E030E092
:101EE00040E05FE3C501B4010E94F71687FD0CC016
:101EF000C114D104E104F10411F0C0FE05C0FFEFEC
:101F0000CF1ADF0AEF0AFF0A2BA13CA1232B69F0AD
:101F1000AA24A394B12CAC0EBD1EA00EB11E9AE053
:101F2000492E512C612C712C2CC0A9A1BAA1BD0144
:101F3000BB0F880B990B0E94A6179B01AC01C30134
:101F4000B2010E948A166B017C0120E030E040E083
:101F50005FE30E94F71687FF0BC020E030E040E00F
:101F60005FE3C701B6010E94561818160CF045C071
:101F7000B9A1B0FF42C0E9A1FAA13196FAA3E9A341
:101F80003CC00032110509F453C02BA13CA12150E3
:101F900031093CA32BA30F5F1F4FC701B601A3015B
:101FA00092010E949C15605DD5016D935D016901F0
:101FB0007A01C114D104E104F10419F7E1E0F0E081
:101FC000EC0FFD1FE00FF11FEBA0FCA0E00EF11ED7
:101FD00020E30032110561F1C80101960E151F05BD
:101FE00019F08C012193F5CF8C01E1E0F0E0EC0FCA
:101FF000FD1FEE0DFF1D8EE28083E1E0F0E0EC0FAF
:10200000FD1FE00FF11F2AE030E00032110581F0E2
:102010000F5F1F4F89A19AA1B9010E948815805DA9
:10202000819369A37AA389A19AA1892B71F702C030
:1020300000E210E021FC26C020FE24C0ADA1BEA11C
:10204000AB2B01F1BDA5B11105C0C1018C70992761
:10205000892B29F0EDA1FEA13197FEA3EDA3E1E0CC
:10206000F0E0EC0FFD1FE00FF11F80E32DA13EA17A
:102070000217130738F40032110541F10F5F1F4FAB
:102080008193F4CF0032110508F53DA5332341F0CB
:10209000E1E0F0E0EC0FFD1FE00FF11F8DE213C057
:1020A00022FE08C0E1E0F0E0EC0FFD1FE00FF11FA1
:1020B0008BE209C023FE0AC0E1E0F0E0EC0FFD1F57
:1020C000E00FF11F80E280830F5F1F4F6101EDA0E1
:1020D000FEA09E012F5F3F4F4BA55CA569A57AA589
:1020E0008FA198A50E947509E5960FB6F894DEBFFA
:1020F0000FBECDBFDF91CF911F910F91FF90EF9059
:10210000DF90CF90BF90AF909F908F907F906F9017
:102110005F904F903F902F900895CF93DF93282F9B
:1021200030E0F901E255FF4F8491F901E656FF4F87
:10213000D491F901EA57FF4FC491CC2391F081115A
:102140000E94010AEC2FF0E0EE0FFF1FE458FF4F52
:10215000A591B491EC91ED2381E090E021F480E031
:1021600002C080E090E0DF91CF9108951F93CF935C
:10217000DF93282F30E0F901E255FF4F8491F901F8
:10218000E656FF4FD491F901EA57FF4FC491CC2393
:10219000C1F0162F81110E94010AEC2FF0E0EE0F22
:1021A000FF1FEE58FF4FA591B4919FB7F8941111FE
:1021B00004C08C91D095D82302C0EC91DE2BDC9327
:1021C0009FBFDF91CF911F910895CF93DF9390E050
:1021D000FC01E656FF4F2491FC01EA57FF4F849122
:1021E000882361F190E0880F991FFC01E859FF4FA7
:1021F000C591D491FC01EE58FF4FA591B4916111A6
:1022000009C09FB7F8948881209582238883EC9138
:102210002E230BC0623061F49FB7F8948881322F6F
:10222000309583238883EC912E2B2C939FBF06C07F
:102230008FB7F894E8812E2B28838FBFDF91CF9141
:1022400008958F929F92AF92BF92CF92DF92EF92BA
:10225000FF926B017C010E94D8074B015C01C11405
:10226000D104E104F104F1F00E94D807DC01CB01B4
:1022700088199909AA09BB09883E9340A105B105AF
:1022800070F321E0C21AD108E108F10888EE880E47
:1022900083E0981EA11CB11CC114D104E104F10417
:1022A00019F7DDCFFF90EF90DF90CF90BF90AF9008
:1022B0009F908F900895CF93DF93CDB7DEB7689747
:1022C0000FB6F894DEBF0FBECDBF789484B58260A0
:1022D00084BD84B5816084BD85B5826085BD85B5CA
:1022E000816085BD80916E00816080936E00109248
:1022F00081008091810082608093810080918100C3
:102300008160809381008091800081608093800053
:102310008091B10084608093B1008091B0008160B1
:102320008093B00080917A00846080937A008091DD
:102330007A00826080937A0080917A008160809335
:102340007A0080917A00806880937A001092C100B0
:102350001092D9021092DA0287E08093DB02109289
:10236000DC0218E01093DD029FE09093DE0281E032
:102370008093DF021092E0029093E1021092AB0290
:102380001092AA021092A9021092A8021092A7021B
:102390008093A6021092A50261E082E10E94B6102D
:1023A00061E083E10E94B6108091B9008E7F809336
:1023B000B9008091B9008D7F8093B90088E4809343
:1023C000B80085E48093BC008CE890E09093A40270
:1023D0008093A3028DE890E09093A2028093A102E3
:1023E0001092F3028091F702823010F01093F30202
:1023F0009091F802992339F0813029F48091F30209
:1024000084608093F30262E370E080E090E00E94D9
:1024100021116091F9028EEE92E00E94B80068EE00
:1024200073E080E090E00E94211160E38EEE92E084
:102430000E9422010BE416E4C8010197F1F760E362
:102440008EEE92E00E942201C8010197F1F760E34D
:102450008EEE92E00E94220183E592E00197F1F76F
:1024600060E28EEE92E00E9422016091F3026062CF
:1024700040E08EEE92E00E943B0184E08093F40203
:1024800040E06CE08EEE92E00E943B0140E061E0B3
:102490008EEE92E00E943B010BE31FE1C801019721
:1024A000F1F782E08093F50240E066E08EEE92E084
:1024B0000E943B0140E062E08EEE92E00E943B0110
:1024C000C8010197F1F788E08093F90260E08EEE91
:1024D00092E00E94B8001092B0021092B1021092E5
:1024E000B2021092B3021092B4021092B50210928E
:1024F000B6021092B7021092B8021092BA0210926D
:10250000BB021092BC021092BD021092BE02109249
:10251000BF021092C0021092C1021092B902109232
:10252000C302A8E1B1E090E01196EC911197EE0F93
:1025300012968C911297880F880FE80F8C91E80FF4
:1025400081E0963008F480E028E0829FE00D1124BD
:10255000F0E0E050FF4F90839F5F19969C3021F789
:1025600060E088E00E94E51060E089E00E94E510EC
:1025700060E08AE00E94E51061E082E00E94E510E0
:1025800061E083E00E94E51061E084E00E94E510D4
:1025900061E085E00E94E51061E086E00E94E510C0
:1025A00061E087E00E94E5100E94400289E190E02E
:1025B000909321038093200310921F0310921E0317
:1025C00080E090E0A0E8BFE3809322039093230390
:1025D000A0932403B0932503772473940BED11E0AB
:1025E0000E94D8076093C8027093C9028093CA0200
:1025F0009093CB028090C4029090C502A090C60236
:10260000B090C702681579058A059B0571F09B019A
:10261000AC01281939094A095B092093CC0230938F
:10262000CD024093CE025093CF026093C4027093C8
:10263000C5028093C6029093C7029090B002809129
:10264000B102980E8091B202980E88E00E948D101F
:10265000A82E8093B00289E00E948D10B82E80933E
:10266000B1028AE00E948D108093B2029A2D9B0DD8
:10267000980F992011F0991619F041E0911101C0BD
:1026800040E04093C2022091260330912703240F9B
:10269000311D30932703209326039091B902EA2D30
:1026A00058E0959FE00D1124BB0CEB0D880F880FAF
:1026B0008E0FE82FF0E0E050FF4FE081198A1A8A70
:1026C0007B8A89E0E89FF0011124E85EFE4FE380F9
:1026D000F48081E190E08C0F9D1F8E0D9F1DDC0129
:1026E0008C918093B3026581768181E190E08C0FBB
:1026F0009D1F860F971FDC018C918093B402878108
:102700009085E1E1F0E0EC0FFD1FE80FF91F50812B
:102710005093B50219827A821B82A1E0B0E0AC0F1F
:10272000BD1FAE0DBF1D5C915093B602E1E0F0E01D
:10273000EC0FFD1FE60FF71F50815093B702E1E049
:10274000F0E0EC0FFD1FE80FF91F80818093B802C5
:102750008090CC029090CD02A090CE02B090CF029B
:102760008091280390912903A0912A03B0912B0313
:10277000BC01CD01680D791D8A1D9B1D6093280346
:102780007093290380932A0390932B03C090BE0279
:10279000D090BF02E090C002F090C1021401250168
:1027A0002C0C3D1C4E1C5F1C2092BE023092BF02BE
:1027B0004092C0025092C102C090BA02D090BB02B7
:1027C000E090BC02F090BD026090C3022C143D0466
:1027D0004E045F0408F468C01092BE021092BF025B
:1027E0001092C0021092C102232B51F40E94A41730
:1027F00020E034E244E759E40E94F71687FD22C046
:1028000010921F0310921E031092280310922903A6
:1028100010922A0310922B03109227031092260382
:102820008091200390912103892B61F080E090E05A
:10283000A0E8BFE38093220390932303A093240393
:10284000B09325036620A9F00E9440022091220344
:1028500030912303409124035091250360E070E000
:1028600080E89FE30E948A1620E030E44CE156E4C1
:102870000EC00E941F0220E030E44CE156E460915B
:1028800022037091230380912403909125030E94D9
:102890005B180E9475176093BA027093BB02809315
:1028A000BC029093BD0208C0662031F0442321F0A1
:1028B0000E9440020E941F028091AC029091AD02E2
:1028C000A091AE02B091AF028034EDE09E07E3E04C
:1028D000AE07B10568F4880E991EAA1EBB1E809231
:1028E000AC029092AD02A092AE02B092AF02B2C022
:1028F0001092AC021092AD021092AE021092AF0292
:1029000040E150E060E270E08CEF92E00E94CD1870
:1029100040E150E060E270E08DE093E00E94CD186D
:1029200080911F038F9380911E038F932AEC31E0D7
:102930003F932F9381E090E08C0F9D1F9F938F9387
:102940000E945D02BE016F5F7F4F80E00E942A0AF5
:10295000809121038F93809120038F93A3EDB1E0A9
:10296000BF93AF9321E030E02C0F3D1F3F932F9397
:102970000E945D02BE016F5F7F4F81E00E942A0AC4
:1029800020E030E048EC52E4609122037091230390
:1029900080912403909125030E945B180E946E177A
:1029A0007F936F931F930F9341E050E04C0F5D1F97
:1029B0005F934F930E945D02BE016F5F7F4F82E085
:1029C0000E942A0A40E061E08EEE92E00E943B0104
:1029D0008BE39FE10197F1F78CEFA82E82E0B82EF0
:1029E0000FB6F894DEBF0FBECDBF912C88E0E0E1BA
:1029F000F1E0DE01519601900D928A95E1F7809108
:102A0000F702891510F0892D01C08FEFFE01319674
:102A1000E80FF11DE80FF11D6089606840E08EEE5F
:102A200092E00E943B01A114B10469F0F50101900C
:102A30000020E9F73197AF014A195B09B5018EEE25
:102A400092E00E948E0091E1A90EB11C9394A2E045
:102A50009A12CCCFE0E0F0E0309709F4C1CD0995AF
:102A6000BDCDCF93DF93ACE2B3E013961C921E92E0
:102A7000129748EE53E060E070E014964D935D933A
:102A80006D937C9317978CEB91E011969C938E93AA
:102A9000EEE1F3E011861086128613861486158601
:102AA000E9EDF2E029E0EF0119922A95E9F71486A1
:102AB0001386458756876787708B92878187108E2C
:102AC000178A80EB91E0968B858B87E2818F80E17E
:102AD000858F82E0868F178E88E080A3B2A3A1A3A2
:102AE00081E2ECEFF2E0DF011D928A95E9F740E127
:102AF00050E060E270E0CF010E94CD1840E150E06C
:102B000060E270E08DE093E0DF91CF910C94CD18FE
:102B100097FB072E16F4009407D077FD09D00E948A
:102B2000701607FC05D03EF4909581959F4F08954F
:102B3000709561957F4F0895A1E21A2EAA1BBB1BC9
:102B4000FD010DC0AA1FBB1FEE1FFF1FA217B30779
:102B5000E407F50720F0A21BB30BE40BF50B661F8F
:102B6000771F881F991F1A9469F760957095809553
:102B700090959B01AC01BD01CF010895689401C0FF
:102B8000E8948F929F92CF93DF930E94CC15DF91B0
:102B9000CF919F908F90089588249924F401E401A7
:102BA000B0E49F93AA279A158B049C04ED05FE05BB
:102BB000CF05D007A10798F4AD2FDC2FCF2FFE2F24
:102BC000E92D982C892E982F872F762F652F542F3B
:102BD000432F322F2227B85031F7BF9127C01B2E29
:102BE000BF91BB27220F331F441F551F661F771F3E
:102BF000881F991F881C991CEE1FFF1FCC1FDD1F0B
:102C0000AA1FBB1F8A149B04EC05FD05CE05DF053A
:102C1000A007B10748F08A189B08EC09FD09CE0906
:102C2000DF09A00BB10B21601A94E1F62EF4940198
:102C3000AF01BE01CD01000C08956095709580959F
:102C4000909530954095509521953F4F4F4F5F4F50
:102C50006F4F7F4F8F4F9F4F08950F93083090F025
:102C6000982F872F762F652F542F432F322F22270F
:102C70000850F4CF220F331F441F551F661F771FC4
:102C8000881F991F0A95B2F70F91089597FB10F8C6
:102C9000169400080F93083098F00850232F342F13
:102CA000452F562F672F782F892F902DF4CF05941D
:102CB0009795879577956795579547953795279574
:102CC0000A95AAF70F9108950024A7FD00942A17EA
:102CD0003005400550056005700580059005089594
:102CE000AA1BBB1B51E107C0AA1FBB1FA617B70732
:102CF00010F0A61BB70B881F991F5A95A9F780954E
:102D00009095BC01CD010895EE0FFF1F0590F49141
:102D1000E02D09945058BB27AA270E94A2160C94B4
:102D20001C180E940E1838F00E94151820F039F473
:102D30009F3F19F426F40C940B180EF4E095E7FB72
:102D40000C940518E92F0E942D1858F3BA17620742
:102D500073078407950720F079F4A6F50C944F18B3
:102D60000EF4E0950B2EBA2FA02D0B01B9019001A6
:102D70000C01CA01A0011124FF27591B99F0593FEA
:102D800050F4503E68F11A16F040A22F232F342F32
:102D90004427585FF3CF469537952795A795F04080
:102DA0005395C9F77EF41F16BA0B620B730B840B95
:102DB000BAF09150A1F0FF0FBB1F661F771F881F4D
:102DC000C2F70EC0BA0F621F731F841F48F48795A5
:102DD00077956795B795F7959E3F08F0B0CF939597
:102DE000880F08F09927EE0F9795879508950E9410
:102DF000E11708F481E008950E9410170C941C1844
:102E00000E94151858F00E940E1840F029F45F3FF8
:102E100029F00C94051851110C9450180C940B18AF
:102E20000E942D1868F39923B1F3552391F3951B54
:102E3000550BBB27AA2762177307840738F09F5FDB
:102E40005F4F220F331F441FAA1FA9F335D00E2E48
:102E50003AF0E0E832D091505040E695001CCAF7B5
:102E60002BD0FE2F29D0660F771F881FBB1F261778
:102E700037074807AB07B0E809F0BB0B802DBF014F
:102E8000FF2793585F4F3AF09E3F510578F00C941E
:102E900005180C9450185F3FE4F3983ED4F38695E0
:102EA00077956795B795F7959F5FC9F7880F911D3F
:102EB0009695879597F90895E1E0660F771F881F2B
:102EC000BB1F621773078407BA0720F0621B730BDE
:102ED000840BBA0BEE1F88F7E09508950E947517D2
:102EE0006894B1110C94501808950E94351888F018
:102EF0009F5798F0B92F9927B751B0F0E1F0660FBE
:102F0000771F881F991F1AF0BA95C9F714C0B130FE
:102F100091F00E944F18B1E008950C944F18672F5C
:102F2000782F8827B85F39F0B93FCCF3869577952D
:102F30006795B395D9F73EF4909580957095619516
:102F40007F4F8F4F9F4F0895E89409C097FB3EF441
:102F500090958095709561957F4F8F4F9F4F9923E6
:102F6000A9F0F92F96E9BB279395F6958795779564
:102F70006795B795F111F8CFFAF4BB0F11F460FF24
:102F80001BC06F5F7F4F8F4F9F4F16C0882311F07C
:102F900096E911C0772321F09EE8872F762F05C090
:102FA000662371F096E8862F70E060E02AF09A952B
:102FB000660F771F881FDAF7880F9695879597F920
:102FC0000895990F0008550FAA0BE0E8FEEF1616BA
:102FD0001706E807F907C0F012161306E407F5070D
:102FE00098F0621B730B840B950B39F40A2661F081
:102FF000232B242B252B21F408950A2609F4A14024
:10300000A6958FEF811D811D089597F99F6780E830
:1030100070E060E008959FEF80EC089500240A942A
:103020001616170618060906089500240A941216A3
:103030001306140605060895092E0394000C11F4D6
:10304000882352F0BB0F40F4BF2B11F460FF04C083
:103050006F5F7F4F8F4F9F4F089557FD9058440FDC
:10306000551F59F05F3F71F04795880F97FB991FE7
:1030700061F09F3F79F087950895121613061406A4
:10308000551FF2CF4695F1DF08C016161706180631
:10309000991FF1CF86957105610508940895E8940C
:1030A000BB2766277727CB0197F908950E94E11780
:1030B00008F48FEF08950E946E180C941C180E945B
:1030C0000E1838F00E94151820F0952311F00C947A
:1030D00005180C940B1811240C9450180E942D18EC
:1030E00070F3959FC1F3950F50E0551F629FF0015B
:1030F000729FBB27F00DB11D639FAA27F00DB11D74
:10310000AA1F649F6627B00DA11D661F829F2227FC
:10311000B00DA11D621F739FB00DA11D621F839F83
:10312000A00D611D221F749F3327A00D611D231F59
:10313000849F600D211D822F762F6A2F11249F57A7
:1031400050409AF0F1F088234AF0EE0FFF1FBB1FAA
:10315000661F771F881F91505040A9F79E3F510569
:1031600080F00C9405180C9450185F3FE4F3983EDF
:10317000D4F3869577956795B795F795E7959F5F13
:10318000C1F7FE2B880F911D9695879597F90895A5
:1031900081E090E0F8940C94E318DC0101C06D9399
:1031A00041505040E0F70895FB01DC014150504090
:1031B00048F001900D920020C9F701C01D924150C6
:0A31C0005040E0F70895F894FFCFA7
:1031CA00FF000000000000000000000000000000F6
:1031DA000000400014005400010001020001000038
:1031EA0000010000020000000100010100000002CD
:1031FA0000010000010001000200000000010101BD
:10320A0000000002000000010000010002000000AE
:10321A00010000020001000001010200000001009B
:10322A00000100020001000000010100000001008D
:10323A00020001000001000000020001000101007B
:10324A00020000000000803F000020410000C84248
:10325A0000007A4400401C460050C34700247449C9
:10326A008096184B20BCBE4C286B6E4E00000000A6
:10327A0052018E001302120200000000E301B6019F
:10328A0013028A01AE019A018B0152504D204D253D
:10329A00336400203A20542533640044757479203D
:1032AA00253364252500666E692B00666E69006EFB
:0832BA00616E00666E692D00D3
:00000001FF
