:100000000C9462000C948A000C948A000C948A0070
:100010000C948A000C948A000C948A000C948A0038
:100020000C948A000C948A000C948A000C948A0028
:100030000C948A000C948A000C948A000C948A0018
:100040000C94B4120C948A000C9424130C94FE1299
:100050000C948A000C948A000C948A000C948A00F8
:100060000C9456130C948A00000000002300260014
:10007000290000000000240027002A0000000000E2
:10008000250028002B0004040404040404040202D4
:100090000202020203030303030301020408102007
:1000A0004080010204081020010204081020000012
:1000B0000008000201000003040700000000000027
:1000C0000000751411241FBECFEFD8E0DEBFCDBFF6
:1000D00012E0A0E0B1E0E6EAFEE302C005900D9276
:1000E000A633B107D9F724E0A6E3B2E001C01D9220
:1000F000A43AB207E1F710E0C2E6D0E004C02197CD
:10010000FE010E94CD1BC136D107C9F70E942E15F2
:100110000C94511F0C940000833081F028F481303E
:1001200099F08230A9F008958730A9F08830C9F09D
:100130008430B1F4809180008F7D03C08091800075
:100140008F7780938000089584B58F7784BD08955C
:1001500084B58F7DFBCF8091B0008F778093B00006
:1001600008958091B0008F7DF9CF1F93CF93DF93D7
:10017000282F30E0F901E255FF4F8491F901E6564E
:10018000FF4FD491F901EA57FF4FC491CC23A9F056
:10019000162F81110E948C00EC2FF0E0EE0FFF1F54
:1001A000E458FF4FA591B4918FB7F894EC911111D9
:1001B00008C0D095DE23DC938FBFDF91CF911F91D4
:1001C0000895DE2BF8CFCF93DF9390E0FC01E65645
:1001D000FF4F24918A579F4FFC0184918823C9F0D7
:1001E00090E0880F991FFC01EE58FF4FA591B49144
:1001F000FC01E458FF4FC591D49161110DC09FB728
:10020000F8948C91209582238C93888128232883CD
:100210009FBFDF91CF910895623051F49FB7F8945A
:100220003C91822F809583238C93E8812E2BEFCFF6
:100230008FB7F894EC912E2B2C938FBFEACF3FB75A
:10024000F8948091F5029091F602A091F702B09196
:10025000F80226B5A89B05C02F3F19F00196A11DF5
:10026000B11D3FBFBA2FA92F982F8827BC01CD0100
:10027000620F711D811D911D42E0660F771F881F5F
:10028000991F4A95D1F708958F929F92AF92BF928E
:10029000CF92DF92EF92FF924B015C010E941F010F
:1002A0006B017C010E941F016C197D098E099F0959
:1002B000683E734081059105A8F321E0821A9108F8
:1002C000A108B10888EEC80E83E0D81EE11CF11C1D
:1002D00081149104A104B10429F7FF90EF90DF90FD
:1002E000CF90BF90AF909F908F900895AF92BF92A4
:1002F000CF92DF92EF92FF920F931F93CF93DF93F2
:100300006C017B018B01040F151FEB015E01AE1820
:10031000BF08C017D10759F06991D601ED91FC9142
:100320000190F081E02DC6010995892B79F7C5016F
:10033000DF91CF911F910F91FF90EF90DF90CF90C1
:10034000BF90AF900895FC01538D448D252F30E070
:10035000842F90E0821B930B541710F0CF960895D2
:1003600001970895FC01918D828D981761F0A28DFF
:10037000AE0FBF2FB11D5D968C91928D9F5F9F73C5
:10038000928F90E008958FEF9FEF0895FC01918D7B
:10039000828D981731F0828DE80FF11D858D90E0E8
:1003A00008958FEF9FEF0895FC01918D228D892F85
:1003B00090E0805C9F4F821B91098F73992708956D
:1003C000FC01A48DA80FB92FB11DA35ABF4F2C91CA
:1003D000848D90E001968F739927848FA689B789C1
:1003E0002C93A089B1898C91837080648C93938DB8
:1003F000848D981306C00288F389E02D80818F7D5B
:1004000080830895EF92FF920F931F93CF93DF9312
:10041000EC0181E0888F9B8D8C8D98131AC0E88940
:10042000F989808185FF15C09FB7F894EE89FF890F
:100430006083E889F98980818370806480839FBFAD
:1004400081E090E0DF91CF911F910F91FF90EF90AD
:100450000895F62E0B8D10E00F5F1F4F0F731127BD
:10046000E02E8C8D8E110CC00FB607FCFACFE889F8
:10047000F989808185FFF5CFCE010E94E001F1CF9F
:10048000EB8DEC0FFD2FF11DE35AFF4FF0829FB76C
:10049000F8940B8FEA89FB8980818062CFCFCF935C
:1004A000DF93EC01888D8823B9F0AA89BB89E8899C
:1004B000F9898C9185FD03C0808186FD0DC00FB642
:1004C00007FCF7CF8C9185FFF2CF808185FFEDCFC0
:1004D000CE010E94E001E9CFDF91CF910895089508
:1004E0004217530720F4640F751FFB0180830895A2
:1004F00008952F923F924F925F926F927F928F92C8
:100500009F92AF92BF92CF92DF92EF92FF920F93A2
:100510001F93CF93DF9300D000D000D0CDB7DEB7CC
:100520009A8389834B015E834D833901180127012A
:10053000DC82CB82C50122E0A222BB2483709927F2
:100540007A01892BC9F4ED80FE806201CE18DF08A4
:100550000BC087010F5F1F4F9301A701B40180E219
:10056000E981FA8109957801C6018E0D9F1D2B81C5
:100570003C818217930768F38101040D151DA701C3
:1005800002151305F1F4C701840D951DAB2891F5F3
:1005900026960FB6F894DEBF0FBECDBFDF91CF9188
:1005A0001F910F91FF90EF90DF90CF90BF90AF9091
:1005B0009F908F907F906F905F904F903F902F9083
:1005C00008956A013FEFC31AD30A9301B401F801F9
:1005D00082918F01E981FA810995A601D1CF8C0121
:1005E0000F5F1F4F9301AC01B40180E2E981FA81F2
:1005F0000995C8019C014D815E81241B350BEB815F
:10060000FC812E173F0758F3C3CF4F925F926F9232
:100610007F928F929F92AF92BF92CF92DF92EF9292
:10062000FF920F931F93CF93DF93CDB7DEB73C01BB
:10063000DB01C7015C2CCB88DC886D897E8961FD7C
:1006400034C07B01E1E0EE22FF24C114D10469F043
:10065000E114F10451F0511005C0FB01EC70FF27CB
:10066000EF2B19F0E1E0CE1AD108F801E80FF91FDD
:100670000F2EF0E34F2EF02D05C08032910529F0AA
:100680000196419288159905C0F3F801E80FF91F0A
:100690000F2EF0E34F2EF02DE114F10431F08C1504
:1006A0009D0518F48032910530F164FF47C072FD5A
:1006B00027C0009729F18815990519F08C159D051B
:1006C000F9F47C01E1E0EE1AF108C1F00297E0E1F3
:1006D000AE16B104C9F0C701E2E0AE16B10411F5DF
:1006E00080329105C8F5F801E80FF91F0F2EF2E6E8
:1006F000FF2EF02D15C001964192CECF90E080E004
:10070000E0E1AE16B10441F765FD3DC080329105D0
:1007100018F5F801E80FF91F0F2EF8E7FF2EF02D5E
:10072000F082019680329105B8F4F801E80FF91FC4
:100730000F2EF0E3FF2EF02DF0820196803291050E
:1007400058F4552059F1F801E80FF91F0F2EFDE27A
:10075000FF2EF02DF08201965B017C01BD01C301EB
:100760000E947902DF91CF911F910F91FF90EF903E
:10077000DF90CF90BF90AF909F908F907F906F90C1
:100780005F904F9008958032910530F7F801E80F9F
:10079000F91F0F2EF8E5FF2EF02DC2CF62FF08C023
:1007A000F801E80FF91F0F2EFBE2FF2EF02DD2CF3C
:1007B00063FFD2CFF801E80FF91F6894FF24F5F822
:1007C000C9CF2F923F924F925F926F927F928F92FA
:1007D0009F92AF92BF92CF92DF92EF92FF920F93D0
:1007E0001F93CF93DF93CDB7DEB7A6970FB6F894DC
:1007F000DEBF0FBECDBF9CA38BA31B013A01290115
:10080000C801B701CDA2650154018DAC9EAC219603
:10081000EEACFFAC2197611571058105910511F4CE
:10082000E894E4F8F2FE07C010E000E061157105FD
:100830008105910529F121E4E5FE21E6AE014F5F36
:100840005F4F5AA349A310E000E02A502EA3A6014F
:1008500095010E94E61A6A300CF041C0605D0F5F9E
:100860001F4FE9A1FAA16193FAA3E9A3B901CA0153
:10087000611571058105910519F00032110539F7EF
:10088000FF92EF929F928F928BAC9CACCDA078019F
:100890008E010F5F1F4F9201A301B1018BA19CA19B
:1008A0000E9405030F900F900F900F90A6960FB621
:1008B000F894DEBF0FBECDBFDF91CF911F910F9196
:1008C000FF90EF90DF90CF90BF90AF909F908F9070
:1008D0007F906F905F904F903F902F9008958EA1E2
:1008E000680FBDCF2F923F924F925F926F927F928F
:1008F0008F929F92AF92BF92CF92DF92EF92FF9230
:100900000F931F93CF93DF93CDB7DEB7AE970FB69C
:10091000F894DEBF0FBECDBF9C8F8B8F7E8F6D8F07
:1009200058A74FA338A32F8FEF8AF88E098F1A8FFD
:100930001601BAA2A9A29E8A8D8AA8019701C801B0
:10094000B7010E94401C811114C02FEF3FEF4FE709
:100950005FE7C801B7010E949F1D181654F02FEFE2
:100960003FEF4FE75FEFC801B7010E94401C87FFD0
:100970002CC08D889E88A9A0BAA06101EF88F88C50
:10098000098D1A8D2F8D38A14FA158A56D8D7E8DA3
:100990008B8D9C8D0E941107AE960FB6F894DEBF2A
:1009A0000FBECDBFDF91CF911F910F91FF90EF90C0
:1009B000DF90CF90BF90AF909F908F907F906F907F
:1009C0005F904F903F902F90089520E030E0A90174
:1009D0006F89788D898D9A8D0E94401C4F88588C24
:1009E000698C7A8C87FF04C077FA709477F87094DA
:1009F0002D893E89222734703AA729A74D895E891F
:100A000052FD03C096E0292E312C49825A826B8216
:100A10007C82DA80EB80CC806D817E81242D3D2D1F
:100A20004E2D5C2D8F81988504E30E94921B2987AF
:100A30003A874B875C876D877E878F87988B698520
:100A40007A8577706F5F7340072E000C880B990BC7
:100A50000E94EF1C2BE930E24AE95EE30E94A41DEC
:100A600024E431E544E35EE30E94D41B4B015C01C6
:100A700020E030E040EC5FE3642D7D2D8E2D9C2D39
:100A80000E94D31B2BE33DE344E95EE30E94A41DD7
:100A90009B01AC01C501B4010E94D41B0E94B71C8C
:100AA000698B7A8B8B8B9C8B89899A899A878987AA
:100AB000BC01990F880B990B0E94EF1C6B017C0104
:100AC00028E73AE944E550E40E94A41D20E030E024
:100AD00040E05FE30E94D41B0E94B71C6BA37CA381
:100AE0008DA39EA32EE83DE543E150E4C701B60186
:100AF0000E94A41D6B017C012BA13CA1B901330F05
:100B0000880B990B0E94EF1C28E132E741E35FE379
:100B10000E94A41D9B01AC01C701B6010E94D31B1A
:100B20004B015C01AC019B010E94A41D6B017C0187
:100B3000A5019401C501B4010E94D41B6BA77CA739
:100B40008DA79EA720E030E040E651E4C701B60142
:100B50000E94451C20E030E040E251E40E94D41B9A
:100B60009B01AC01C701B6010E94451C20E030E0AA
:100B700040EC50E40E94D41B9B01AC01C701B601BC
:100B80000E94451C6B017C01A501940160E070E0AE
:100B900080E090E40E94D31B9B01AC01C701B60129
:100BA0000E94D41B9B01AC016BA57CA58DA59EA5C5
:100BB0000E94451C20E030E040E85FE30E94D41B27
:100BC0006B017C014BA15CA141505C4F952F990FAB
:100BD000990B9A01492F592F692F792F892F0E943C
:100BE000771BC701B6010E94A41D6B017C01AC01FB
:100BF0009B01C301B2010E94401C87FDE8C0C9826D
:100C0000DA82EB82FC8289859A858D599F4F873CD9
:100C1000910508F4EFC085E090E09A8B898B2D89CF
:100C20003E8933FF28C027E137EB41ED58E3C3018C
:100C3000B2010E949F1D87FDE5C020E034E244E739
:100C400059E4C301B2010E94401C87FFDBC0498503
:100C50005A85421553050CF0D2C0241A350A51E0CA
:100C6000251A31088D899E8994609E8B8D8B1A8AF6
:100C7000198A1A86198629A13AA149895A895901DE
:100C8000A41AB50A4217530710F0B12CA12C8D8974
:100C90009E89827099279CA38BA39D8991FF06C092
:100CA000E989FA89EF2B11F0B12CA12C29853A851D
:100CB000232B51F029813A814B815C81C301B20120
:100CC0000E94451C2B013C018D889E88E89493F876
:100CD00020E030E0A9016F89788D898D9A8D0E947E
:100CE000401C87FF04C077FA709477F87094610114
:100CF000830172012F8D38A14FA158A56D8D7E8D76
:100D00008B8D9C8D0E94110749895A89452B09F4C6
:100D100043CE2C015FEF451A550AED89E5FD7FC0F2
:100D2000E5E62F8D38A1AC016D8D7E8D8E2FEB8D7C
:100D3000FC8D0995CA84CC1CCC24CC1CE984FA8493
:100D4000F7FE03C0F194E194F1080F2C000C000BA6
:100D5000110B1F9285E08F9369887A88F1E06F1AF2
:100D600071087F926F921F921F928AE0882E912CB9
:100D7000A12CB12C2F8D38A1A2016D8D7E8D8B8D74
:100D80009C8D0E94E1030F900F900F900F900F9099
:100D90000F902BA13CA1232B09F4FECD9C014FA168
:100DA00058A5241B350BE9A1FAA12E173F0708F01F
:100DB000F3CD8C010F5F1F4F2F8D38A1AC016D8DCE
:100DC0007E8D80E2EB8DFC8D0995C801E7CF4989C6
:100DD0005A89415051095A87498720E030E040E262
:100DE00051E4C701B6010E94451C69837A838B8355
:100DF0009C8309CFE4E0F0E0FA8BE98B10CF312C33
:100E0000212C30CF2114310409F435CFE9A5FAA5FE
:100E1000EF2B09F430CFF1E02F1A31082CCFE5E4A5
:100E200080CF2F923F924F925F926F927F928F92DC
:100E30009F92AF92BF92CF92DF92EF92FF920F9369
:100E40001F93CF93DF93CDB7DEB7E9970FB6F89432
:100E5000DEBF0FBECDBF9EA38DA378A76FA35AA7F9
:100E600049A73CA72BA7270138011601BCA2ABA2BA
:100E70005401A8019701C801B7010E94401C8823B2
:100E800091F0CBA0DCA053E0E52EF12C09E711E0B6
:100E90002BA53CA549A55AA56FA178A58DA19EA11A
:100EA0000E9479024EC02FEF3FEF4FE75FEFC8017E
:100EB000B7010E94401C87FF08C0CBA0DCA044E023
:100EC000E42EF12C0DE711E0E3CF2FEF3FEF4FE7DA
:100ED0005FE7C801B7010E949F1D181674F483E0F4
:100EE00090E005E711E082FE04C084E090E000E7B6
:100EF00011E0CBA0DCA07C01CBCF28E23BE64EE6A4
:100F00005EE4C801B7010E949F1D181654F028E244
:100F10003BE64EE65EECC801B7010E94401C87FF2D
:100F200029C04501ABA0BCA06101830172012BA5C2
:100F30003CA549A55AA56FA178A58DA19EA10E94A7
:100F40007204E9960FB6F894DEBF0FBECDBFDF91F5
:100F5000CF911F910F91FF90EF90DF90CF90BF90B6
:100F6000AF909F908F907F906F905F904F903F9049
:100F70002F90089520E030E0A901C801B7010E9438
:100F8000401C87FFBFC0A801970160E070E0CB0163
:100F90000E94D31B2B013C0121E029ABB2FEB4C05F
:100FA000FE01319610E000E080E39AE0291631045A
:100FB00048F00F5F1F4F819331E0231A3108003250
:100FC000110599F7C301B2010E94B71C6AAB7BAB54
:100FD0008CAB9DABAAA9BBA9BAA3A9A3F101EE0F43
:100FE000FF1FEE0FFF1FE25FFE4F80819181A28104
:100FF000B3818EAB9FABA8AFB9AFAAA9BBA9BD0106
:10100000BB0F880B990B0E94EF1C9B01AC01C30125
:10101000B2010E94D31B2EA93FA948AD59AD0E9431
:10102000A41D6DA77EA78FA798AB0E94BE1C6B0165
:101030007C010E94ED1C9B01AC016DA57EA58FA5D6
:1010400098A90E94D31B6DA77EA78FA798AB20E01D
:1010500030E040E05FE30E949F1D18160CF058C07E
:10106000BFEFCB1ADB0AEB0AFB0AC701B6010E94ED
:10107000ED1C9B01AC016EA97FA988AD99AD0E94C2
:10108000401C181644F0EAA9FBA93196FAA3E9A37B
:10109000C12CD12C76012114310409F081C029A181
:1010A0003AA1B901330F880B990B0E94EF1C9B01E9
:1010B000AC01C301B2010E94D31B6B017C0120E093
:1010C00030E040E05FE30E94401C87FF0AC020E060
:1010D00030E040E05FE3C701B6010E949F1D181693
:1010E00044F439A130FF05C089A19AA101969AA3C1
:1010F00089A3E1E0F0E0EC0FFD1FE00FF11F2AE013
:1011000030E090C019AA4ACF36E0232E312C48CFC8
:1011100020E030E040E05FE36DA57EA58FA598A9B3
:101120000E94401C87FDB7CFC114D104E104F10433
:1011300011F0C0FEB0CFFFEFCF1ADF0AEF0AFF0AAF
:10114000AACF91E0291A31080F5F1F4FC701B601DE
:10115000A30192010E94E61A605DD4016D934D01D6
:1011600069017A01C114D104E104F10429F5E1E037
:10117000F0E0EC0FFD1FE00FF11F20E3003211053E
:10118000F1F0C801019621143104B9F5E1E0F0E075
:10119000EC0FFD1FE00FF11F2EE220838C01A9CF81
:1011A00088248394912C8C0E9D1E800E911E9AE0B3
:1011B000492E512C612C712C0032110511F6A1FC25
:1011C00047C0A0FE45C0ABA1BCA1AB2B09F440C0F9
:1011D000B9A9B11105C0C5018C709927892B29F0D7
:1011E000EBA1FCA13197FCA3EBA3E1E0F0E0EC0F55
:1011F000FD1FE00FF11F80E31CC02193B1E02B1A0B
:1012000031088C01BBCF0F5F1F4F89A19AA1B90193
:101210000E94D21A805D819369A37AA389A19AA1C1
:10122000892B69F20032110570F3C9CF0F5F1F4F90
:1012300081932BA13CA10217130750F40032110532
:10124000A8F3CBA0DCA078018E010F5F1F4F20CE4A
:1012500000321105B0F739A9332359F0E1E0F0E08D
:10126000EC0FFD1FE00FF11F8DE280830F5F1F4F1A
:10127000E8CFA2FE08C0E1E0F0E0EC0FFD1FE00FB8
:10128000F11F8BE2F2CFA3FEDCCFE1E0F0E0EC0F48
:10129000FD1FE00FF11F80E2E8CF20917B02260FB7
:1012A0003327331F21323105ECF42091C602FC01B3
:1012B00090E080E0243069F082E00895A0917B0204
:1012C0002191AC01475A5D4FA40FB52FB11D2C934E
:1012D0000196861798F380917B02680F60937B02DA
:1012E00080E0089581E008951092C60281E0809325
:1012F000C5021092A00261E082E10E94B50061E0A7
:1013000083E10E94B500E9EBF0E080818E7F80836D
:1013100080818D7F808388E48093B80085E480930A
:10132000BC000895CF93DF9391E0909358028823F7
:10133000B9F0C091B800D091BA008091BC008A7B0E
:101340008093BC0060E082E10E94B50060E083E130
:101350000E94B5000E947409D093BA00C093B800EF
:10136000DF91CF910895CF92DF92EF92FF920F938A
:101370001F93CF93DF93FC0184859585248131E011
:101380003093CC022093EE021092CD021092EF0225
:101390002385622BDC01ED91FC910190F081E02D21
:1013A0000995D091EF02D13208F094C0C091EE02BD
:1013B0000E941F016B017C018091C602811165C0F2
:1013C00082E08093C60281E08093C5028FEF809314
:1013D000C4021092C302D093C202AEECB2E0E2EAC1
:1013E000F2E080E0D81385C01092A1028091A102A2
:1013F000CC0FC82BC093A1028091A002813009F0CC
:101400007CC01092A0020E941F016B017C018091A0
:10141000A1028093BB008091C8029091C902A09163
:10142000CA02B091CB02892B8A2B8B2B99F00E9498
:101430001F010091C8021091C9022091CA02309187
:10144000CB026C197D098E099F090617170728071B
:101450003907E0F18091BC0083FDD9CF85EC809302
:10146000BC000E941F016B017C018091C60282308A
:1014700009F445C08091C4028F3F61F18091C4029C
:10148000803241F18091C40225C08091C8029091C0
:10149000C902A091CA02B091CB02892B8A2B8B2B57
:1014A00009F48ACF0E941F010091C8021091C9025D
:1014B0002091CA023091CB026C197D098E099F09D7
:1014C000061717072807390708F076CF8091C7025B
:1014D0000E9492091092CD021092EF021092CC025B
:1014E000DF91CF911F910F91FF90EF90DF90CF9000
:1014F00008959D9191938F5F75CF85EEB0CF8091C8
:10150000C8029091C902A091CA02B091CB02892B66
:101510008A2B8B2B09F4A9CF0E941F010091C802CE
:101520001091C9022091CA023091CB026C197D0939
:101530008E099F09061717072807390708F095CF66
:10154000C5CF089508950895E091570280915602FD
:10155000E81730F4F0E0EA5CFD4F808190E00895F8
:101560008FEF9FEF089590915702809156022FEFD1
:101570003FEF981748F4E92FF0E0EA5CFD4F208137
:1015800030E09F5F90935702C90108958091560201
:1015900090915702891B990B0895CF92DF92EF9299
:1015A000FF920F931F93CF93DF937C01CB018A01AE
:1015B0002091CC02222389F0EB016B01C40ED51ED1
:1015C000CC15DD0569F06991D701ED91FC91019091
:1015D000F081E02DC7010995F3CF642F0E944D09DA
:1015E000C801DF91CF911F910F91FF90EF90DF9095
:1015F000CF900895CF93DF931F92CDB7DEB7698365
:101600002091CC022223F9F02091EF02203258F0F1
:1016100021E030E0FC013383228390E080E00F90F2
:10162000DF91CF9108958091CD02E82FF0E0E25351
:10163000FD4F998190838F5F8093CD028093EF025D
:1016400081E090E0ECCF61E0CE0101960E944D096F
:10165000F7CF90E080E008950895CF93DF93D0E036
:10166000C0E0009771F0FC0101900020E9F731978C
:10167000AF01481B590BBC0189EF92E00E94760133
:10168000EC0142E050E062E871E089EF92E00E94F4
:1016900076018C0F9D1FDF91CF9108950E94361F18
:1016A0000F931F93CF938C01C62F0E94B3096C2F09
:1016B0006460C8010E94B3096C2F6B7FC8010E944F
:1016C000B30983EC90E00197F1F7CF911F910F914F
:1016D00008950F931F93CF93DF938C01D62FC42FC0
:1016E000607F642B0E94500B80E1D89FB0011124D1
:1016F0006C2BC801DF91CF911F910F910C94500B6F
:1017000041E00E94690B81E090E008952F923F92A2
:101710004F925F926F927F928F929F92AF92BF9201
:10172000CF92DF92EF92FF920F931F93CF93DF93AD
:10173000CDB7DEB7EC970FB6F894DEBF0FBECDBFC6
:101740008E01095A1F4F312C212C6796AEADBFADCB
:1017500067978C91811130C06596EEADFFAD6597AE
:10176000AF01415051092E163F0608F4A1016596BC
:101770002EAD3FAD659763966EAD7FAD639780E00C
:101780000E947002C101EC960FB6F894DEBF0FBE46
:10179000CDBFDF91CF911F910F91FF90EF90DF9020
:1017A000CF90BF90AF909F908F907F906F905F9001
:1017B0004F903F902F90089567962EAD3FAD67975D
:1017C0002F5F3F4F67963FAF2EAF679771013FEF97
:1017D000E31AF30A853209F0FDC0512C412C0AC0EE
:1017E0008D32E1F0803391F4689440F86796FFAF52
:1017F000EEAF67976796EEADFFAD679781918B323D
:1018000081F074F7803281F0833289F090ED980F87
:101810009A3008F042C01CA61BA620C0689441F86C
:10182000E5CF689442F8E2CF689443F8DFCF68943C
:1018300044F8DCCF6AE04BA55CA5649FC001659FBE
:10184000900D1124C097DC01A20FB11D27FDBA95A0
:10185000BCA7ABA76796FFAFEEAF67976796EEADF5
:10186000FFAD6797219180ED820F8A3018F367965C
:10187000AEADBFAD67978C918E3209F07DC0CD01C2
:101880000196689452F811962C9130ED320F3A304F
:1018900008F054C01AA619A62FC08A32C9F49801BC
:1018A0002E5F3F4FD8018D919C9197FF0EC0689499
:1018B00041F844275527481B590B5CA74BA78901C2
:1018C0006796FFAFEEAF6797D2CF9CA78BA7F7CFF6
:1018D0001CA61BA6CCCF6AE049A55AA5649FC001EF
:1018E000659F900D1124C097DC01A20FB11D27FD4B
:1018F000BA95BAA7A9A7CF01FC01219130ED320F0B
:101900003A3048F367969FAF8EAF679767962EADD4
:101910003FAD67972F5F3F4F6796AEADBFAD6797FF
:101920008C918C3699F15CF5883609F466C08A365C
:1019300051F167962EAD3FAD679731C02A32C1F4A1
:10194000C8010296F8010190F081E02DFAA7E9A7FD
:10195000F7FF02C01AA619A667962EAD3FAD67978E
:101960002E5F3F4F67963FAF2EAF67978C01CECF6C
:1019700067969FAF8EAF67971AA619A6C7CF843711
:1019800011F08A37B1F6689451F809C06796EEAD48
:10199000FFAD679781818C3639F1689450F8F90171
:1019A00081916796FFAFEEAF6797853609F402C362
:1019B0000CF046C1873409F4FDC26CF5853409F496
:1019C000F9C20CF0D5C2853209F405C471014FEF9C
:1019D000E41AF40A65962EAD3FAD6597A1016396B2
:1019E0006EAD7FAD639705C4F3E05F2A67962EADB9
:1019F0003FAD67972E5F3F4FD2CF6796AEADBFAD7D
:101A0000679711968C91883619F0689447F8C7CF7C
:101A1000B0EC4B2AEBCF823609F4F2C34CF4883594
:101A2000A9F6689445F820E130E03FA72EA710C042
:101A3000833609F4E6C2843649F6E89444F88936D8
:101A400009F437C12AE030E03FA72EA7843611F011
:101A500053EF452252FE02C0E89440F8920122273B
:101A60003270893619F0843609F095C1232B09F4B8
:101A700028C1C80108969BAF8AAFD801BC901196C7
:101A8000CC9011971296DC9012971396EC901397C6
:101A90001496FC9014971596BC91F801F681FFAB53
:101AA000F801F781FCAF4EA55FA59A0150E040E038
:101AB00060E070E0CB0129A33AA34BA35CA36DA324
:101AC0007EA38FA398A72B2D3C2D4D2D5E2D6F2D22
:101AD0007B2F8FA99F2F0FE30E94921B29AFBDA6DA
:101AE0003601AE2C0F2D1B2F9FA88F2E2B2D3C2D9A
:101AF0004D2D5E2D6F2D7B2F892D9F2FA0E00E94F5
:101B0000AD1B4CF40E94671B2DA7632E742EA52ECF
:101B10008B01982E892E68AA79AAAAAA0BAB1DABB5
:101B20002B2D3C2D4D2D5E2D6F2D7B2F8FA99CAD28
:101B3000A0E00E94AD1B11F4E89444F852FE0FC0DF
:101B40002B2D3C2D4D2D5E2D6F2D7B2F8FA99CAD08
:101B5000A0E0712C612C0E94AD1B09F44DC081E402
:101B600045FE81E6BE016F5F7F4F78AF6FAB712C92
:101B7000612C8A508CAFA9A0BAA0CBA0DCA0EDA0AC
:101B8000FEA00FA118A52DA538A949A95AA96BA98E
:101B90007DA9892D982D0E94081B2A300CF08EC03B
:101BA000205D8FEF681A780AAFA9B8AD2D93B8AF52
:101BB000AFABA9A0BAA0CBA0DCA0EDA0FEA00FA166
:101BC00018A52DA538A949A95AA96BA97DA9892DC0
:101BD000982D0E940A1B2DA738AB49AB5AAB6BABB3
:101BE0007DAB982E892EA0E00E94AD1B29F0B0E2BB
:101BF0006B16710409F0BFCF5F924F92ECA5EF9383
:101C0000FBA5FF9389A49AA4AEA4BFA4C9AC730199
:101C10008E010F5F1F4F65962EAD3FAD6597A101F9
:101C200063966EAD7FAD639780E792E00E940503F7
:101C30001C010F900F900F900F900AAD1BAD85CD3A
:101C40008F3609F4DAC24CF4873609F4B3C10CF4C8
:101C50008FC1893609F0BACEF0CE833709F429C294
:101C6000ECF4803709F0B2CE380132E0630E711C1B
:101C7000D801ED90FC9010E000E0B1E24B2A5F92B9
:101C80004F921F92E4E0EF93FAA5FF9329A52F93BB
:101C900080E1882E912CA12CB12C5DC1853709F4EF
:101CA000CCCE40E150E0883709F090CE5FA74EA738
:101CB000CFCE6AE070E07FA76EA7CCCE7CAD270FB9
:101CC00070CF2EA53FA54901B12CA12C380150FEA3
:101CD0003CC034E0630E711CD8014D915D916D9153
:101CE0007C91DB01CA018827B7FD83959927AA2734
:101CF000BB277A018B0117FF08C010950095F0945F
:101D0000E094E11CF11C011D111D5F924F92ECA5A6
:101D1000EF93FBA5FF932AA52F9339A53F93C82ED8
:101D200065962EAD3FAD6597A10163966EAD7FAD13
:101D3000639780E792E00E94E1031C010F900F90EF
:101D40000F900F900F900F9033C142E0640E711C02
:101D500046FE1DC0D801EC900E2C000CFF08CF2CC5
:101D6000CC1CCC24CC1CF7FE03C0F194E194F10808
:101D70000F2C000C000B110B5F924F92FCA5FF93F0
:101D80002BA52F933AA53F9349A54F93C9CFF801AF
:101D9000E080F180E4CF4EA55FA5232B09F4C3C0FA
:101DA0009A0150E040E060E070E0CB0129A33AA343
:101DB0004BA35CA36DA37EA38FA398A7B801685F14
:101DC0007F4F78AF6FABD8019C9011968C90119794
:101DD00012967C90129713966C9013971496BC9160
:101DE000BDA7F801F581F8ABD8011696BC91B9AB47
:101DF000F801F781FAAB292D382D472D562D6DA509
:101E000078A98B2F9F2FA0E00E94AD1B11F4E894BE
:101E100044F852FE0DC0292D382D472D562D6DA5A5
:101E200078A989A99AA9A0E00E94AD1B09F478C0FD
:101E300081E445FE81E69E012F5F3F4F3EAB2DAB17
:101E40001CAA1BAA8A5089AFA9A0BAA0CBA0DCA06B
:101E5000EDA0FEA00FA118A5292D382D472D562D38
:101E60006DA578A989A99AA90E94081B2A300CF0AF
:101E700054C0205D4BA95CA94F5F5F4F5CAB4BAB7F
:101E8000ADA9BEA92D93BEABADABA9A0BAA0CBA006
:101E9000DCA0EDA0FEA00FA118A5292D382D472DFF
:101EA000562D6DA578A989A99AA90E940A1B922E80
:101EB000832E742E652E6DA778AB89AB9AABA0E00C
:101EC0000E94AD1B29F0EBA9FCA9B09709F0BCCF8B
:101ED0005F924F92FCA5FF932BA52F9389A49AA400
:101EE000AEA4BFA4C12CEBA8FCA88E010F5F1F4FAE
:101EF00065962EAD3FAD6597A10163966EAD7FAD42
:101F0000639780E792E00E9405031C010F900F90F9
:101F10000F900F900FA918AD18CC39AD230FAACF91
:101F20001CAA1BAAD5CF4A01B12CA12C380150FE06
:101F300014C054E0650E711CD801ED90FD900D9118
:101F40001C915F924F92BCA5BF93EBA5EF93FAA5AE
:101F5000FF9329A52F93C12CE3CE32E0630E711CB1
:101F6000D801ED90FC9046FCFF2410E000E0E9CFA2
:101F7000863411F4689445F8380134E0630E711C1E
:101F8000D801ED90FD900D911C914201ABA4BCA431
:101F9000C9A4DAA465962EAD3FAD6597A1016396FD
:101FA0006EAD7FAD639780E792E00E9411071C0140
:101FB0008301CBCB982F9F7D973419F4689453F805
:101FC0008D7F853411F4689445F83801B4E06B0EC8
:101FD000711CF801E080F180028113814201ABA401
:101FE000BCA4C9A4DAA465962EAD3FAD6597A10146
:101FF00063966EAD7FAD639780E792E00E947204B6
:10200000D6CF5201F2E0AF22BB24A101CC24C3946D
:10201000D12C41FC1DC0F12CE12C0BC065962EADDE
:102020003FAD659763966EAD7FAD639780E20E948A
:102030007002A1014E0D5F1D670122E0C20ED11C8E
:102040003FEFE31AF30A6BA57CA5E616F70630F31B
:102050001A017FEF271A370A780182E0E80EF11C97
:1020600065962EAD3FAD659763966EAD7FAD639778
:10207000D8018C910E947002AB2829F0EBA5FCA539
:10208000CE16DF0610F0870160CB81010F5F1F4F76
:1020900065962EAD3FAD6597A10163966EAD7FADA0
:1020A000639780E20E947002BFEFCB1ADB0A18012F
:1020B000E5CF3801F2E06F0E711CD8010D911C9133
:1020C000E9A5FAA59F01EF2B11F42FEF3FEF78015F
:1020D00090E080E0A7014F5F5F4FD7016C916623CE
:1020E00019F082179307C9F4E01AF10A5201AA24E1
:1020F000B4E0BB2252FE06C0E9A5FAA5EE15FF0525
:1021000008F47F016201F2E0CF22DD24A10141FC4D
:102110001FC0C7012E183F080FC001967A01DACF01
:1021200065962EAD3FAD659763966EAD7FAD6397B7
:1021300080E20E947002C701A101480F591F7C0173
:102140002FEFE21AF20A6BA57CA58617970740F3DA
:102150004A01801A910A0CC03AA729A765962EADAC
:102160003FAD659763966EAD7FAD63970E94700239
:10217000A401400F511FD8018D918D01882359F082
:10218000A114B10459F329A53AA521503109E9A5B3
:10219000FAA5EF2B09F71A01CD2809F409CFE41AA3
:1021A000F50A10C081010F5F1F4F65962EAD3FAD40
:1021B0006597A10163966EAD7FAD639780E20E9443
:1021C00070021801C1018E0D9F1D2BA53CA5821721
:1021D000930740F3EDCE71013FEFE31AF30A6596E2
:1021E0002EAD3FAD6597A10163966EAD7FAD639750
:1021F00085E20E9470021701A8CA48E050E056CD5F
:1022000062E070E07FA76EA723CC0F931F93CF935C
:10221000DF93CDB7DEB7A0970FB6F894DEBF0FBE41
:10222000CDBF7F936F939F938F931F9280E28F9385
:102230008E010F5F1F4F1F930F930E94860BC801E3
:102240000E942D0B0FB6F894DEBF0FBECDBFA09637
:102250000FB6F894DEBF0FBECDBFDF91CF911F91B7
:102260000F9108958F929F92AF92BF92CF92DF927B
:10227000EF92FF920F931F93CF93DF93CDB7DEB70B
:10228000A0970FB6F894DEBF0FBECDBF8C017B01C7
:10229000C42EB52ED22EA32E3F932F935F934F9330
:1022A000FF926F9385E891E09F938F931F9280E256
:1022B0008F93CE0101964C019F938F930E94860BC2
:1022C000C4010E942D0BF701EE0FFF1FEE0FFF1F41
:1022D000E00FF11FD4AAA5AAC6AAB7AA61E08C2D67
:1022E0000E94E30061E08D2D0E94E3000FB6F89498
:1022F000DEBF0FBECDBFA0960FB6F894DEBF0FBEF7
:10230000CDBFDF91CF911F910F91FF90EF90DF90A4
:10231000CF90BF90AF909F908F90089585ED809360
:10232000BC008091C8029091C902A091CA02B091EC
:10233000CB020796A11DB11D23E0B695A7959795F1
:1023400087952A95D1F72091BC0024FD03C01092F7
:10235000C60208954091C8025091C9026091CA0214
:102360007091CB02452B462B472B69F30097A105B3
:10237000B10541F025E32A95F1F700000197A10985
:10238000B109E1CF8091C7020C9492090C94AD1E63
:102390008F929F92AF92BF92CF92DF92EF92FF9275
:1023A0000F931F93CF93DF93CDB7DEB728970FB668
:1023B000F894DEBF0FBECDBFDB01F12CE12CED9117
:1023C000FC9111972081233231F42FEFE21AF20AA7
:1023D00021812332B9F431961196FC93EE93E114E6
:1023E000F10439F4FC01208131812F5F3F4F3183AB
:1023F0002083ED91FC91119720812111E0CFE11410
:10240000F104C1F16D018C015F934F9380EA91E07B
:102410009F938F931F9288E08F93CE0101965C016A
:102420009F938F930E94860B4C01A70160E270E09E
:10243000F801808191810E943B1FA401E814F904F6
:102440000CF4A701B501F801808191810E94421F1F
:10245000F80180819181E80EF91EF182E082F60197
:10246000808191810196918380830FB6F894DEBFBD
:102470000FBECDBF28960FB6F894DEBF0FBECDBFFE
:10248000DF91CF911F910F91FF90EF90DF90CF9050
:10249000BF90AF909F908F900895FF920F931F93DE
:1024A000CF93DF9300D000D000D0CDB7DEB7FC01D2
:1024B000EA5AFF4FF080FF2009F449C08C011082D6
:1024C000379640815181DC011296BC83AB8383EA4D
:1024D00091E09A83898384E1E3EAF1E001900D922F
:1024E0008A95E1F7BE016F5F7F4FCE0103960E9490
:1024F000C811F801E75AFF4F40815181D801579622
:10250000BE83AD8388EB91E09C838B8384E1E8EB11
:10251000F1E001900D928A95E1F7BE016D5F7F4F6A
:10252000CE0105960E94C811D8019C9684E1EDEC7D
:10253000F1E001900D928A95E1F7D801AF5BBF4FB2
:1025400084E1EDECF1E001900D928A95E1F78F2D99
:1025500026960FB6F894DEBF0FBECDBFDF91CF91A8
:102560001F910F91FF9008951F920F920FB60F9237
:1025700011242F933F938F939F93AF93BF93809199
:10258000F1029091F202A091F302B091F402309125
:10259000F00223E0230F2D3758F50196A11DB11D40
:1025A0002093F0028093F1029093F202A093F30241
:1025B000B093F4028091F5029091F602A091F70297
:1025C000B091F8020196A11DB11D8093F502909380
:1025D000F602A093F702B093F802BF91AF919F91DA
:1025E0008F913F912F910F900FBE0F901F901895D4
:1025F00026E8230F0296A11DB11DD2CF1F920F9284
:102600000FB60F9211242F933F934F935F936F93C5
:102610007F938F939F93AF93BF93EF93FF9389EF34
:1026200092E00E94E001FF91EF91BF91AF919F91E5
:102630008F917F916F915F914F913F912F910F906B
:102640000FBE0F901F9018951F920F920FB60F920A
:1026500011242F938F939F93EF93FF93E09109039E
:10266000F0910A038081E0910F03F091100382FD45
:102670001BC09081809112038F5F8F732091130391
:10268000821741F0E0911203F0E0E750FD4F958F83
:1026900080931203FF91EF919F918F912F910F9053
:1026A0000FBE0F901F9018958081F4CF1F920F924C
:1026B0000FB60F9211242F933F934F935F936F9315
:1026C0007F938F939F93AF93BF93EF93FF938091EB
:1026D000B900887F803609F44AC0F0F5883209F4E1
:1026E000A7C018F5803109F49BC0B8F4882309F419
:1026F000F9C0883009F494C0FF91EF91BF91AF9178
:102700009F918F917F916F915F914F913F912F9109
:102710000F900FBE0F901F901895883109F488C054
:10272000803251F78093C40214C0803409F49DC0F4
:1027300040F48033B9F38833F9F68093C40285EC12
:10274000B0C0803509F485C0883509F496C0883456
:1027500099F60E948E11D0CF883909F48CC038F5D3
:10276000883729F050F4883611F0803729F683E055
:102770008093C60210929F0257C0883809F47BC02C
:10278000803919F0803809F0B7CF80919F028032EC
:1027900008F071C0E0919F0281E08E0F80939F024C
:1027A0008091BB00F0E0E158FD4F80833DC0803B4D
:1027B00039F0E0F4803A09F479C0883A09F09CCF06
:1027C00084E08093C60210927C0210927B02E0911A
:1027D0007902F0917A02099580917B0281110FC0F4
:1027E00081E080937B021092590209C0803C09F479
:1027F000A6CF883C09F4A3CF883B09F07DCFE091B8
:102800007C0281E08E0F80937C02F0E0E75AFD4F5E
:1028100080818093BB0090917C0280917B0229C0D3
:102820008091A1028093BB0085EC8093BC0064CFB3
:102830009091C3028091C202981758F5E091C302AB
:1028400081E08E0F8093C302F0E0EE55FD4F808152
:10285000E9CFE091C30281E08E0F8093C3028091A3
:10286000BB00F0E0EE55FD4F80839091C302809154
:10287000C2029817C8F285E8D8CFE091C30281E080
:102880008E0F8093C3028091BB00F0E0EE55FD4FA8
:1028900080838091C50281115CCF81E08093A0028A
:1028A00084EA8093BC001092C60226CF85EC809308
:1028B000BC001092C60280919F02803230F4E091F9
:1028C0009F02F0E0E158FD4F108260919F0270E09E
:1028D000E0917D02F0917E028FE792E009951092DF
:1028E0009F020ACF1092C40234CF0F931F93CF934D
:1028F000DF93E9EFF2E01382128248EE53E060E0EA
:1029000070E044835583668377838AE391E0918303
:10291000808385EC90E09587848784EC90E09787AE
:10292000868780EC90E0918B808B81EC90E0938B9C
:10293000828B82EC90E0958B848B86EC90E0978B79
:10294000868B118E128E138E148EA5EFB3E0139624
:102950001C921E92129714964D935D936D937C93E7
:10296000179722E631E011963C932E93ECEEF3E0BC
:1029700081E0808384E108E913E0E801982F19924F
:102980009A95E9F70DEA13E0E801982F19929A95C4
:10299000E9F702EC13E0E801982F19929A95E9F70C
:1029A00007ED13E0E801982F19929A95E9F7CCE426
:1029B000D1E0D0939703C0939603F093EE03E09396
:1029C000ED03F093F203E093F103E1E0F4E0C4E0FF
:1029D000D0E0D183C08315821482468357836087F9
:1029E000718733832283118A108A26E531E0378785
:1029F000268797E2928B868B94E0978B108E98E0D7
:102A0000918FB38FA28FEDE1F4E0DF011D928A95E3
:102A1000E9F78FEF80938504109286041092870463
:102A2000109288041092890410928A0423E030E006
:102A300030938C0420938B04EDE8F4E090E1EF01F7
:102A400019929A95E9F780939D0410929E04109232
:102A50009F04DF91CF911F910F910895CF93DF9342
:102A6000CDB7DEB7CD57D1090FB6F894DEBF0FBE94
:102A7000CDBF789484B5826084BD84B5816084BD07
:102A800085B5826085BD85B5816085BD80916E000C
:102A9000816080936E00109281008091810082603D
:102AA000809381008091810081608093810080917A
:102AB00080008160809380008091B1008460809369
:102AC000B1008091B00081608093B00080917A0065
:102AD000846080937A0080917A00826080937A008B
:102AE00080917A00816080937A0080917A0080687A
:102AF00080937A001092C100E0910903F0910A03DB
:102B000082E08083E0910503F09106031082E0915A
:102B10000703F09108038FEC808310921103E0917A
:102B20000D03F0910E0386E08083E0910B03F0919A
:102B30000C03808180618083E0910B03F0910C0392
:102B4000808188608083E0910B03F0910C03808189
:102B500080688083E0910B03F0910C0380818F7D6E
:102B600080831A8219821C821B821D821E821F8210
:102B700018861A8619868FEF9FEF9E8F8D8F18A269
:102B80001F8E1AA219A29CA38BA31DA21FA21EA274
:102B90009E012A593F4FEE963FAF2EAFEE97A89673
:102BA0009FAF8EAFA8978DEC9CECACE4BFE3E096B2
:102BB0008CAF9DAFAEAFBFAFE09782EE91E00E94C9
:102BC0002D0B28E030E04BE050E070E060E0CE01FB
:102BD00086960E94321127E030E04AE050E061E042
:102BE00070E0CE0186960E94321126E030E049E086
:102BF00050E062E070E0CE0186960E94321164E0FF
:102C000070E08FEE91E00E94051160E084E00E9488
:102C1000E30074E0E72EF12CF88EEF8A63E070E0B9
:102C20008FEF91E00E94051160E083E00E94E300D5
:102C300003E010E01A8F098F62E070E08FE092E00D
:102C40000E94051160E082E00E94E30062E070E013
:102C50007C8F6B8F89859A855C013FEFA31AB30A3D
:102C6000FC013596EE0FFF1F41E050E04C0F5D1F59
:102C7000E40FF51FB5E0CB2ED12CD182C0829C0190
:102C80002A5F3F4FF901EE0FFF1FE40FF51FA1E090
:102C9000B0E0B183A083FC013796EE0FFF1FE40F75
:102CA000F51F11830083FC013896EE0FFF1FE40F20
:102CB000F51F71836083FC013996EE0FFF1FE40F4F
:102CC000F51F46E050E0518340833A872987FC0195
:102CD0003A96EE0FFF1F44244394512C4C0E5D1E78
:102CE000E40DF51DF182E082BA82A98222E130E092
:102CF0003C832B832EA13FA1A9014F5F5F4FF901B8
:102D0000EE0FFF1FEE0FFF1FE40DF51D10A617A21B
:102D1000FA01EE0FFF1FEE0FFF1F42018E0E9F1EE6
:102D2000F40116A305A33901F2E06F0E711CF40142
:102D300010A617A2FA013196EE0FFF1FEE0FFF1F2C
:102D400044244394512C4C0E5D1EE40DF51DD6A277
:102D5000C5A25901E3E0AE0EB11CF301EE0FFF1F57
:102D6000EE0FFF1FE40DF51D70A767A3F501EE0F31
:102D7000FF1FEE0FFF1F44244394512C4C0E5D1E89
:102D80004E0E5F1EF201B6A3A5A34901F4E08F0E1B
:102D9000911CF20170A767A3F401EE0FFF1FEE0F65
:102DA000FF1F44244394512C4C0E5D1EE40DF51D71
:102DB000D6A2C5A2B9016B5F7F4FF0A6E7A26B0157
:102DC000CC0CDD1CCC0CDD1CC40CD51CF601B6A350
:102DD000A5A3F9013696FFA3EEA3D6019896FC921F
:102DE000EE929797EE0FFF1FEE0FFF1FE40DF51DFC
:102DF00016A305A3FC013D96EE0FFF1FE40DF51D84
:102E000076A265A2FC013E96EE0FFF1FE40DF51DB4
:102E100096A285A2FC013F96EE0FFF1FE40DF51D63
:102E200076A365A3FC017096EE0FFF1FE40DF51D60
:102E300036A325A3FC017196EE0FFF1FE40DF51DCF
:102E400056A345A3FC017296EE0FFF1FE40DF51D7E
:102E5000B6A2A5A2FC017396EE0FFF1FE40DF51DAF
:102E600036A325A3FC017496EE0FFF1FE40DF51D9C
:102E700076A365A3FC017596EE0FFF1FE40DF51D0B
:102E800056A345A3FC017696EE0FFF1FE40DF51D3A
:102E9000B6A2A5A2FC017796EE0FFF1FE40DF51D6B
:102EA00096A285A2FC017896EE0FFF1FE40DF51D9A
:102EB00076A265A28FE192E00E942D0B64E670E09D
:102EC00080E090E00E9444010E941F016D837E8398
:102ED0008F839887E091860481E08E0F809386042B
:102EE000F0E0EE0FFF1FE35EFB4F86E993E0918376
:102EF00080836A961FAE1EAE6A9710925702109298
:102F000056021092CD021092EF020E94740981EADB
:102F10009AE090937A028093790282EA9AE0909301
:102F20007E0280937D0210921404809118048230F6
:102F300018F098E09093140490911904992339F0B3
:102F4000813029F48091140484608093140462E336
:102F500070E080E090E00E94440160911A048FE0EC
:102F600094E00E94B30968EE73E080E090E00E9474
:102F7000440160E38FE094E00E94500B0BE416E400
:102F8000C8010197F1F760E38FE094E00E94500BD5
:102F9000C8010197F1F760E38FE094E00E94500BC5
:102FA00083E592E00197F1F760E28FE094E00E9400
:102FB000500B60911404606240E08FE094E00E9446
:102FC000690B84E08093150440E06CE08FE094E0AE
:102FD0000E94690B40E061E08FE094E00E94690B81
:102FE0000BE31FE1C8010197F1F782E0809316041B
:102FF00040E066E08FE094E00E94690B40E062E010
:103000008FE094E00E94690BC8010197F1F788E016
:1030100080931A0460E08FE094E00E94B30910925C
:103020008504CC24C394D12CAA24AA94BA2C4E0192
:10303000B7E18B0E911CF12CE12C10E000E0F401C3
:10304000219131914F013327F901E255FF4F8491CE
:10305000F901E656FF4F3490F901EA57FF4F2490EB
:10306000222009F4BEC081110E948C00E22DF0E004
:10307000EE0FFF1FE859FF4FA591B491EC913E224E
:1030800031E020E009F430E0832F922F002E02C0BF
:10309000880F991F0A94E2F7E82AF92A0F5F1F4F59
:1030A0000330110509F0CBCFFE013B9690E080E0A4
:1030B00021913191E216F30609F096C021E04BA16F
:1030C0005CA14817590709F420E02DA39CA38BA30A
:1030D0002BA13CA189819A812817390709F046C0A4
:1030E0008DA1882309F442C06B817C81072E000CDE
:1030F000880B990B0E94EF1C3B014C010E941F01A1
:103100000D811E812F813885601B710B820B930B03
:103110006F3FFFEF7F078F079F0721F46EEF7FEF71
:103120008FEF9FEF0E94ED1C2DEB37E346E855E350
:103130000E94A41D9B01AC01C401B3010E94451C67
:1031400020E030E040EC50E40E94451C20E030E0FC
:1031500040E05FE30E94D41B0E94B71C7AA369A3DE
:103160000E941F016D837E838F83988729A13AA1D6
:10317000E091ED03F091EE0391E04091EF03509167
:10318000F0034217530709F490E08081892B808374
:103190003093F0032093EF030BA11CA1E091F10306
:1031A000F091F20391E02091F3033091F4032017A2
:1031B000310709F490E08081892B80831093F40318
:1031C0000093F30306301105A8F090E080E00E9420
:1031D0002D0B68EE73E080E090E00E9444010E94B5
:1031E000361F90E080E052CF01968630910509F0BD
:1031F0005FCF6ECFA8968EAD9FADA8978017910731
:1032000009F447C0A8961FAF0EAFA897B8018EE289
:1032100092E00E9405116A968EAD9FAD6A97F80103
:10322000892B09F072C13D96EE0FFF1F4424439491
:10323000512C4C0E5D1EE40DF51D85A196A1880F45
:10324000991F880F991FE1E0F0E0EC0FFD1FE80FD8
:10325000F91F87A190A5A1A5B2A5AC968CAF9DAF93
:10326000AEAFBFAFAC978E01065A1F4F60E0D801DA
:103270008C910E94B50060E0F80182810E94B50047
:103280000C5F1F4FEE964EAC5FACEE9740165106AA
:1032900069F7AA968EAD9FADAA97019669F1AC9693
:1032A000EEADFFADAC97EF3FFE0731F17A96EE0F32
:1032B000FF1F41E050E04C0F5D1FE40FF51F61E080
:1032C00085A10E94B500AA96EEADFFADAA977A96A9
:1032D000EE0FFF1F61E070E06C0F7D1FE60FF71F20
:1032E00061E085A10E94B500AC96BFAEAEAEAC97D2
:1032F000AA96BFAEAEAEAA9780918B0490918C0433
:103300008130910509F41EC10CF00AC1892B09F026
:103310008ECEE0918504F0E0EE0FFF1FE35EFB4FE1
:1033200080819181DC01ED91FC910480F581E02D9B
:103330000995882309F478CEE0918504E0939D04F3
:10334000F0E0EE0FFF1FE35EFB4F40805180A201D3
:1033500021E034E0ADE8B4E0E5E56E2EE4E07E2E59
:1033600090E080E0812C912C54018394BA01680F85
:10337000791FFB01F280B901680F791FFB0160A979
:10338000F61203C0812C912C5401082E04C0880C25
:10339000991CAA1CBB1C0A94D2F7ED90FD900D91CC
:1033A0001C9113978E289F28A02AB12A8D929D9256
:1033B000AD92BC92139701968531910599F64B5EBB
:1033C0005F4F2B5E3F4F14966216730649F61092BC
:1033D0009E0410929F0484E5F2013296A1E3B4E0CA
:1033E00001900D928A95E1F782E090E090938C0431
:1033F00080938B0480919E0420919F04082F10E0FD
:10340000F801EE0FFF1FEE0FFF1FE357FB4FB0E079
:10341000A0E0843008F0B3C07801EA0EFB1E819072
:103420009190A190B19081149104A104B10409F488
:10343000A2C030E0922F253108F09DC041E050E05D
:10344000022E02C0440F551F0A94E2F7052E000C0D
:10345000660B770B2F5F3F4F240135014422552225
:103460006622772245284628472821F390939F0417
:1034700080939E04F701EE0FFF1FEE0FFF1FE3572F
:10348000FB4F409550956095709584229522A62219
:10349000B72280829182A282B38228E0E6E0F1E046
:1034A000DE01A059BF4F01900D922A95E1F72091BE
:1034B0001804281710F48FEF820FE82FF0E0EE0FBA
:1034C000FF1F20E7622E712C6C0E7D1EE60DF71D8E
:1034D0006081690F606840E08FE094E00E94690BB2
:1034E00080919E0420919F0435E1839FC0011124A7
:1034F0008F5F9B4F820F911D41E0DC01D0966C9154
:103500008FE094E00E94690B8FCD7396EE0FFF1F42
:1035100066246394712C6C0E7D1EE60DF71D8DCE16
:103520008230910509F466CF039709F080CD40E021
:1035300061E08FE094E00E94690B8BE39FE10197CB
:10354000F1F721C00E941F010091870410918804A7
:103550002091890430918A04601B710B820B930BBC
:10356000653176418540910508F45ECD10928C045A
:1035700010928B04CECE11968F5F20E04ACF20931D
:103580009F0480939E04D0928C04C0928B040E946E
:103590001F0160938704709388048093890490933B
:1035A0008A0442CD97FB072E16F4009407D077FDCE
:1035B00009D00E94B91B07FC05D03EF49095819577
:1035C0009F4F0895709561957F4F0895A1E21A2E3F
:1035D000AA1BBB1BFD010DC0AA1FBB1FEE1FFF1FB7
:1035E000A217B307E407F50720F0A21BB30BE40B07
:1035F000F50B661F771F881F991F1A9469F760954E
:103600007095809590959B01AC01BD01CF01089507
:10361000689401C0E8948F929F92CF93DF930E94A9
:10362000161BDF91CF919F908F9008958824992445
:10363000F401E401B0E49F93AA279A158B049C043B
:10364000ED05FE05CF05D007A10798F4AD2FDC2FBF
:10365000CF2FFE2FE92D982C892E982F872F762F8C
:10366000652F542F432F322F2227B85031F7BF91A7
:1036700027C01B2EBF91BB27220F331F441F551F8E
:10368000661F771F881F991F881C991CEE1FFF1F3C
:10369000CC1FDD1FAA1FBB1F8A149B04EC05FD0570
:1036A000CE05DF05A007B10748F08A189B08EC0992
:1036B000FD09CE09DF09A00BB10B21601A94E1F6D8
:1036C0002EF49401AF01BE01CD01000C0895609568
:1036D00070958095909530954095509521953F4FE8
:1036E0004F4F5F4F6F4F7F4F8F4F9F4F0895002E6B
:1036F000083090F0982F872F762F652F542F432F67
:10370000322F22270850F4CF220F331F441F551F9A
:10371000661F771F881F991F0A95B2F7002D08951D
:1037200097FD1094002E083098F00850232F342F66
:10373000452F562F672F782F892F912DF4CF159471
:1037400097958795779567955795479537952795D9
:103750000A95AAF71124002D08950024A7FD0094CE
:103760002A17300540055005600570058005900555
:103770000895AA1BBB1B51E107C0AA1FBB1FA617B8
:10378000B70710F0A61BB70B881F991F5A95A9F70A
:1037900080959095BC01CD010895EE0FFF1F059017
:1037A000F491E02D09945058BB27AA270E94EB1BE7
:1037B0000C94651D0E94571D38F00E945E1D20F07C
:1037C00039F49F3F19F426F40C94541D0EF4E0953F
:1037D000E7FB0C944E1DE92F0E94761D58F3BA1793
:1037E000620773078407950720F079F4A6F50C9417
:1037F000981D0EF4E0950B2EBA2FA02D0B01B901E8
:1038000090010C01CA01A0011124FF27591B99F056
:10381000593F50F4503E68F11A16F040A22F232F62
:10382000342F4427585FF3CF469537952795A795B2
:10383000F0405395C9F77EF41F16BA0B620B730B59
:10384000840BBAF09150A1F0FF0FBB1F661F771FCA
:10385000881FC2F70EC0BA0F621F731F841F48F47F
:10386000879577956795B795F7959E3F08F0B0CF08
:103870009395880F08F09927EE0F979587950895EF
:103880000E942A1D08F481E008950E94591C0C949E
:10389000651D0E945E1D58F00E94571D40F029F4DE
:1038A0005F3F29F00C944E1D51110C94991D0C94FE
:1038B000541D0E94761D68F39923B1F3552391F3AB
:1038C000951B550BBB27AA2762177307840738F08F
:1038D0009F5F5F4F220F331F441FAA1FA9F335D0EC
:1038E0000E2E3AF0E0E832D091505040E695001CA0
:1038F000CAF72BD0FE2F29D0660F771F881FBB1F5A
:10390000261737074807AB07B0E809F0BB0B802D37
:10391000BF01FF2793585F4F3AF09E3F510578F063
:103920000C944E1D0C94991D5F3FE4F3983ED4F324
:10393000869577956795B795F7959F5FC9F7880F37
:10394000911D9695879597F90895E1E0660F771F89
:10395000881FBB1F621773078407BA0720F0621B1A
:10396000730B840BBA0BEE1F88F7E09508950E9445
:10397000BE1C6894B1110C94991D08950E947E1D7F
:1039800088F09F5798F0B92F9927B751B0F0E1F020
:10399000660F771F881F991F1AF0BA95C9F714C0D0
:1039A000B13091F00E94981DB1E008950C94981DDB
:1039B000672F782F8827B85F39F0B93FCCF3869509
:1039C00077956795B395D9F73EF490958095709566
:1039D00061957F4F8F4F9F4F0895E89409C097FBE3
:1039E0003EF490958095709561957F4F8F4F9F4FD6
:1039F0009923A9F0F92F96E9BB279395F69587951A
:103A000077956795B795F111F8CFFAF4BB0F11F4DC
:103A100060FF1BC06F5F7F4F8F4F9F4F16C0882383
:103A200011F096E911C0772321F09EE8872F762FB9
:103A300005C0662371F096E8862F70E060E02AF0FA
:103A40009A95660F771F881FDAF7880F96958795E6
:103A500097F90895990F0008550FAA0BE0E8FEEFBB
:103A600016161706E807F907C0F012161306E40742
:103A7000F50798F0621B730B840B950B39F40A263B
:103A800061F0232B242B252B21F408950A2609F419
:103A9000A140A6958FEF811D811D089597F99F671D
:103AA00080E870E060E008959FEF80EC08950024C6
:103AB0000A941616170618060906089500240A9493
:103AC00012161306140605060895092E0394000C19
:103AD00011F4882352F0BB0F40F4BF2B11F460FFA8
:103AE00004C06F5F7F4F8F4F9F4F089557FD9058D1
:103AF000440F551F59F05F3F71F04795880F97FBB2
:103B0000991F61F09F3F79F087950895121613066B
:103B10001406551FF2CF4695F1DF08C0161617069A
:103B20001806991FF1CF86957105610508940895CF
:103B3000E894BB2766277727CB0197F908950E9461
:103B40002A1D08F48FEF08950E94B71D0C94651D7F
:103B50000E94571D38F00E945E1D20F0952311F041
:103B60000C944E1D0C94541D11240C94991D0E940C
:103B7000761D70F3959FC1F3950F50E0551F629F1E
:103B8000F001729FBB27F00DB11D639FAA27F00DB6
:103B9000B11DAA1F649F6627B00DA11D661F829FDD
:103BA0002227B00DA11D621F739FB00DA11D621FC2
:103BB000839FA00D611D221F749F3327A00D611DDF
:103BC000231F849F600D211D822F762F6A2F1124C1
:103BD0009F5750409AF0F1F088234AF0EE0FFF1FF4
:103BE000BB1F661F771F881F91505040A9F79E3F4B
:103BF000510580F00C944E1D0C94991D5F3FE4F329
:103C0000983ED4F3869577956795B795F795E795A0
:103C10009F5FC1F7FE2B880F911D9695879597F9A9
:103C200008950F931F93CF93DF938230910510F483
:103C300082E090E0E091A204F091A30430E020E063
:103C4000B0E0A0E0309799F42115310509F44AC09D
:103C5000281B390B24303105D8F58A819B816115E9
:103C6000710589F1FB0193838283FE0111C04081BC
:103C700051810281138148175907E0F0481759070D
:103C800099F4109761F012960C93129713961C9367
:103C90003296CF01DF91CF911F910F91089500933C
:103CA000A2041093A304F4CF2115310551F042175B
:103CB000530738F0A901DB019A01BD01DF01F801CA
:103CC000C1CFEF01F9CF9093A3048093A204CDCF8D
:103CD000FE01E20FF31F8193919322503109398342
:103CE0002883D7CF2091A0043091A104232B41F445
:103CF00020910201309103013093A1042093A0048C
:103D000020910001309101012115310541F42DB7B9
:103D10003EB74091040150910501241B350BE09101
:103D2000A004F091A104E217F307A0F42E1B3F0BAF
:103D30002817390778F0AC014E5F5F4F241735071D
:103D400048F04E0F5F1F5093A1044093A00481934D
:103D500091939FCFF0E0E0E09CCFCF93DF9300976B
:103D6000E9F0FC01329713821282A091A204B09173
:103D7000A304ED0130E020E01097A1F4208131810F
:103D8000820F931F2091A0043091A10428173907B6
:103D900009F061C0F093A104E093A004DF91CF91FA
:103DA0000895EA01CE17DF07E8F54A815B819E019D
:103DB00041155105B1F7E901FB83EA834991599116
:103DC000C40FD51FEC17FD0761F480819181029625
:103DD000840F951FE90199838883828193819B8356
:103DE0008A83F0E0E0E012968D919C911397009702
:103DF000B9F52D913C911197CD010296820F931F39
:103E00002091A0043091A1042817390739F6309782
:103E100051F51092A3041092A204B093A104A093B0
:103E2000A004BCCFD383C28340815181840F951FEE
:103E3000C817D90761F44E5F5F4F88819981480F99
:103E4000591F518340838A819B81938382832115EB
:103E5000310509F0B0CFF093A304E093A2049ECF04
:103E6000FD01DC01C0CF13821282D7CF81E090E048
:103E7000F8940C94511FDC0101C06D9341505040E7
:103E8000E0F70895FB01DC014150504048F00190FB
:103E90000D920020C9F701C01D9241505040E0F73B
:063EA0000895F894FFCF25
:103EA6000000A4048000000040001400540000003C
:103EB600803F000020410000C84200007A440040D4
:103EC6001C460050C347002474498096184B20BCFA
:103ED600BE4C286B6E4E0000000002027601A30164
:103EE6004F02D401B201C601000000002C0BC6111E
:103EF6004D1200000000800B7601290B6F020000B6
:103F06000000FA0ACD0A290BA30AC60AB30AA40AB4
:103F1600666E692B00666E69006E616E00666E697C
:103F26002D000D0A002050686173652025643B2032
:103F3600536F757263652025643B2053696E6B2051
:103F46002564005374657020232020202020202023
:103F560020202020202020004D6561737572656445
:103F66002052504D202323232020202000202020D3
:103F7600202020202020202020202020202020203B
:103F860020003D3D3D436F6E6669673D3D3D002027
:103F960048616C6C20313B2070696E2025640020DE
:103FA60048616C6C20323B2070696E2025640020CD
:103FB60048616C6C20333B2070696E202564004D8F
:103FC6006F746F722052656164792E2E2E005374C1
:063FD60065702025640067
:00000001FF
