:100000000C9462000C9457130C9430130C948A00D7
:100010000C948A000C948A000C948A000C948A0038
:100020000C948A000C948A000C948A000C948A0028
:100030000C948A000C948A000C948A000C948A0018
:100040000C94E6120C948A000C94A4130C947E1366
:100050000C948A000C948A000C948A000C948A00F8
:100060000C94D6130C948A00000000002300260094
:10007000290000000000240027002A0000000000E2
:10008000250028002B0004040404040404040202D4
:100090000202020203030303030301020408102007
:1000A0004080010204081020010204081020000012
:1000B0000008000201000003040700000000000027
:1000C0000000F51411241FBECFEFD8E0DEBFCDBF76
:1000D00012E0A0E0B1E0E4EFF0E402C005900D9280
:1000E000A836B107D9F724E0A8E6B2E001C01D9216
:1000F000A03EB207E1F710E0C2E6D0E004C02197CD
:10010000FE010E94F41CC136D107C9F70E94B21546
:100110000C9478200C940000833081F028F4813016
:1001200099F08230A9F008958730A9F08830C9F09D
:100130008430B1F4809180008F7D03C08091800075
:100140008F7780938000089584B58F7784BD08955C
:1001500084B58F7DFBCF8091B0008F778093B00006
:1001600008958091B0008F7DF9CF1F93CF93DF93D7
:10017000282F30E0F901E255FF4F8491F901E6564E
:10018000FF4FD491F901EA57FF4FC491CC23A9F056
:10019000162F81110E948C00EC2FF0E0EE0FFF1F54
:1001A000E458FF4FA591B4918FB7F894EC911111D9
:1001B00008C0D095DE23DC938FBFDF91CF911F91D4
:1001C0000895DE2BF8CFCF93DF9390E0FC01E65645
:1001D000FF4F24918A579F4FFC0184918823C9F0D7
:1001E00090E0880F991FFC01EE58FF4FA591B49144
:1001F000FC01E458FF4FC591D49161110DC09FB728
:10020000F8948C91209582238C93888128232883CD
:100210009FBFDF91CF910895623051F49FB7F8945A
:100220003C91822F809583238C93E8812E2BEFCFF6
:100230008FB7F894EC912E2B2C938FBFEACF3FB75A
:10024000F89480912D0390912E03A0912F03B091EB
:10025000300326B5A89B05C02F3F19F00196A11DBC
:10026000B11D3FBFBA2FA92F982F8827BC01CD0100
:10027000620F711D811D911D42E0660F771F881F5F
:10028000991F4A95D1F708958F929F92AF92BF928E
:10029000CF92DF92EF92FF924B015C010E941F010F
:1002A0006B017C010E941F016C197D098E099F0959
:1002B000683E734081059105A8F321E0821A9108F8
:1002C000A108B10888EEC80E83E0D81EE11CF11C1D
:1002D00081149104A104B10429F7FF90EF90DF90FD
:1002E000CF90BF90AF909F908F9008950895AF9258
:1002F000BF92CF92DF92EF92FF920F931F93CF9313
:10030000DF936C017B018B01040F151FEB015E0174
:10031000AE18BF08C017D10759F06991D601ED9109
:10032000FC910190F081E02DC6010995892B79F7A8
:10033000C501DF91CF911F910F91FF90EF90DF905A
:10034000CF90BF90AF900895FC01538D448D252F21
:1003500030E0842F90E0821B930B541710F0CF965F
:10036000089501970895FC01918D828D981761F091
:10037000A28DAE0FBF2FB11D5D968C91928D9F5FA8
:100380009F73928F90E008958FEF9FEF0895FC0187
:10039000918D828D981731F0828DE80FF11D858D3A
:1003A00090E008958FEF9FEF0895FC01918D228DCD
:1003B000892F90E0805C9F4F821B91098F73992752
:1003C0000895FC01A48DA80FB92FB11DA35ABF4FEA
:1003D0002C91848D90E001968F739927848FA68944
:1003E000B7892C93A089B1898C91837080648C9398
:1003F000938D848D981306C00288F389E02D808147
:100400008F7D80830895EF92FF920F931F93CF9378
:10041000DF93EC0181E0888F9B8D8C8D98131AC03F
:10042000E889F989808185FF15C09FB7F894EE8926
:10043000FF896083E889F989808183708064808383
:100440009FBF81E090E0DF91CF911F910F91FF90CE
:10045000EF900895F62E0B8D10E00F5F1F4F0F7376
:100460001127E02E8C8D8E110CC00FB607FCFACF31
:10047000E889F989808185FFF5CFCE010E94E101ED
:10048000F1CFEB8DEC0FFD2FF11DE35AFF4FF08202
:100490009FB7F8940B8FEA89FB8980818062CFCF68
:1004A000CF93DF93EC01888D8823B9F0AA89BB89AB
:1004B000E889F9898C9185FD03C0808186FD0DC096
:1004C0000FB607FCF7CF8C9185FFF2CF808185FFB7
:1004D000EDCFCE010E94E101E9CFDF91CF910895E8
:1004E00008954217530720F4640F751FFB018083A2
:1004F000089508952F923F924F925F926F927F924C
:100500008F929F92AF92BF92CF92DF92EF92FF9223
:100510000F931F93CF93DF9300D000D000D0CDB7BF
:10052000DEB79A8389834B015E834D8339011801BD
:100530002701DC82CB82C50122E0A222BB2483708A
:1005400099277A01892BC9F4ED80FE806201CE18CB
:10055000DF080BC087010F5F1F4F9301A701B40194
:1005600080E2E981FA8109957801C6018E0D9F1D0F
:100570002B813C818217930768F38101040D151DBF
:10058000A70102151305F1F4C701840D951DAB28D1
:1005900091F526960FB6F894DEBF0FBECDBFDF9162
:1005A000CF911F910F91FF90EF90DF90CF90BF9070
:1005B000AF909F908F907F906F905F904F903F9003
:1005C0002F9008956A013FEFC31AD30A9301B40133
:1005D000F80182918F01E981FA810995A601D1CFB5
:1005E0008C010F5F1F4F9301AC01B40180E2E981E0
:1005F000FA810995C8019C014D815E81241B350B50
:10060000EB81FC812E173F0758F3C3CF4F925F92C7
:100610006F927F928F929F92AF92BF92CF92DF9212
:10062000EF92FF920F931F93CF93DF93CDB7DEB777
:100630003C01DB01C7015C2CCB88DC886D897E899D
:1006400061FD34C07B01E1E0EE22FF24C114D1043E
:1006500069F0E114F10451F0511005C0FB01EC7098
:10066000FF27EF2B19F0E1E0CE1AD108F801E80FCF
:10067000F91F0F2EF0E34F2EF02D05C080329105AB
:1006800029F00196419288159905C0F3F801E80F09
:10069000F91F0F2EF0E34F2EF02DE114F10431F08D
:1006A0008C159D0518F48032910530F164FF47C028
:1006B00072FD27C0009729F18815990519F08C154E
:1006C0009D05F9F47C01E1E0EE1AF108C1F0029712
:1006D000E0E1AE16B104C9F0C701E2E0AE16B10424
:1006E00011F580329105C8F5F801E80FF91F0F2EBA
:1006F000F2E6FF2EF02D15C001964192CECF90E08C
:1007000080E0E0E1AE16B10441F765FD3DC0803206
:10071000910518F5F801E80FF91F0F2EF8E7FF2EE5
:10072000F02DF082019680329105B8F4F801E80FBF
:10073000F91F0F2EF0E3FF2EF02DF082019680328C
:10074000910558F4552059F1F801E80FF91F0F2EC3
:10075000FDE2FF2EF02DF08201965B017C01BD01D0
:10076000C3010E947A02DF91CF911F910F91FF90F8
:10077000EF90DF90CF90BF90AF909F908F907F9041
:100780006F905F904F9008958032910530F7F80197
:10079000E80FF91F0F2EF8E5FF2EF02DC2CF62FFF4
:1007A00008C0F801E80FF91F0F2EFBE2FF2EF02D15
:1007B000D2CF63FFD2CFF801E80FF91F6894FF246E
:1007C000F5F8C9CF2F923F924F925F926F927F922E
:1007D0008F929F92AF92BF92CF92DF92EF92FF9251
:1007E0000F931F93CF93DF93CDB7DEB7A6970FB6C6
:1007F000F894DEBF0FBECDBF9CA38BA31B013A01B3
:100800002901C801B701CDA2650154018DAC9EAC90
:100810002196EEACFFAC219761157105810591051C
:1008200011F4E894E4F8F2FE07C010E000E061156E
:1008300071058105910529F121E4E5FE21E6AE016E
:100840004F5F5F4F5AA349A310E000E02A502EA348
:10085000A60195010E940D1C6A300CF041C0605D3C
:100860000F5F1F4FE9A1FAA16193FAA3E9A3B901B0
:10087000CA01611571058105910519F00032110554
:1008800039F7FF92EF929F928F928BAC9CACCDA0E8
:1008900078018E010F5F1F4F9201A301B1018BA15F
:1008A0009CA10E9406030F900F900F900F90A696A8
:1008B0000FB6F894DEBF0FBECDBFDF91CF911F9171
:1008C0000F91FF90EF90DF90CF90BF90AF909F90EF
:1008D0008F907F906F905F904F903F902F900895F2
:1008E0008EA1680FBDCF2F923F924F925F926F9271
:1008F0007F928F929F92AF92BF92CF92DF92EF92B0
:10090000FF920F931F93CF93DF93CDB7DEB7AE97D0
:100910000FB6F894DEBF0FBECDBF9C8F8B8F7E8F3E
:100920006D8F58A74FA338A32F8FEF8AF88E098FAA
:100930001A8F1601BAA2A9A29E8A8D8AA8019701D0
:10094000C801B7010E94671D811114C02FEF3FEF4E
:100950004FE75FE7C801B7010E94C61E181654F0A2
:100960002FEF3FEF4FE75FEFC801B7010E94671D10
:1009700087FF2CC08D889E88A9A0BAA06101EF884E
:10098000F88C098D1A8D2F8D38A14FA158A56D8D2A
:100990007E8D8B8D9C8D0E941207AE960FB6F894BB
:1009A000DEBF0FBECDBFDF91CF911F910F91FF90A2
:1009B000EF90DF90CF90BF90AF909F908F907F90FF
:1009C0006F905F904F903F902F90089520E030E01F
:1009D000A9016F89788D898D9A8D0E94671D4F8836
:1009E000588C698C7A8C87FF04C077FA709477F8FA
:1009F00070942D893E89222734703AA729A74D8902
:100A00005E8952FD03C096E0292E312C49825A821C
:100A10006B827C82DA80EB80CC806D817E81242D9C
:100A20003D2D4E2D5C2D8F81988504E30E94B91CCD
:100A300029873A874B875C876D877E878F87988B5E
:100A400069857A8577706F5F7340072E000C880B7D
:100A5000990B0E94161E2BE930E24AE95EE30E94E0
:100A6000CB1E24E431E544E35EE30E94FB1C4B0112
:100A70005C0120E030E040EC5FE3642D7D2D8E2DA5
:100A80009C2D0E94FA1C2BE33DE344E95EE30E94A7
:100A9000CB1E9B01AC01C501B4010E94FB1C0E944E
:100AA000DE1D698B7A8B8B8B9C8B89899A899A87BF
:100AB0008987BC01990F880B990B0E94161E6B0148
:100AC0007C0128E73AE944E550E40E94CB1E20E08F
:100AD00030E040E05FE30E94FB1C0E94DE1D6BA340
:100AE0007CA38DA39EA32EE83DE543E150E4C7011E
:100AF000B6010E94CB1E6B017C012BA13CA1B90168
:100B0000330F880B990B0E94161E28E132E741E350
:100B10005FE30E94CB1E9B01AC01C701B6010E949E
:100B2000FA1C4B015C01AC019B010E94CB1E6B01C6
:100B30007C01A5019401C501B4010E94FB1C6BA7B7
:100B40007CA78DA79EA720E030E040E651E4C701D6
:100B5000B6010E946C1D20E030E040E251E40E94AA
:100B6000FB1C9B01AC01C701B6010E946C1D20E07B
:100B700030E040EC50E40E94FB1C9B01AC01C7013B
:100B8000B6010E946C1D6B017C01A501940160E01F
:100B900070E080E090E40E94FA1C9B01AC01C70168
:100BA000B6010E94FB1C9B01AC016BA57CA58DA529
:100BB0009EA50E946C1D20E030E040E85FE30E94AB
:100BC000FB1C6B017C014BA15CA141505C4F952F3C
:100BD000990F990B9A01492F592F692F792F892F36
:100BE0000E949E1CC701B6010E94CB1E6B017C01B6
:100BF000AC019B01C301B2010E94671D87FDE8C0E3
:100C0000C982DA82EB82FC8289859A858D599F4F51
:100C1000873C910508F4EFC085E090E09A8B898BC2
:100C20002D893E8933FF28C027E137EB41ED58E39A
:100C3000C301B2010E94C61E87FDE5C020E034E278
:100C400044E759E4C301B2010E94671D87FFDBC07E
:100C500049855A85421553050CF0D2C0241A350A2D
:100C600051E0251A31088D899E8994609E8B8D8B69
:100C70001A8A198A1A86198629A13AA149895A8994
:100C80005901A41AB50A4217530710F0B12CA12C30
:100C90008D899E89827099279CA38BA39D8991FF42
:100CA00006C0E989FA89EF2B11F0B12CA12C298516
:100CB0003A85232B51F029813A814B815C81C30114
:100CC000B2010E946C1D2B013C018D889E88E89426
:100CD00093F820E030E0A9016F89788D898D9A8D95
:100CE0000E94671D87FF04C077FA709477F87094AC
:100CF0006101830172012F8D38A14FA158A56D8D1F
:100D00007E8D8B8D9C8D0E94120749895A89452BB7
:100D100009F443CE2C015FEF451A550AED89E5FD34
:100D20007FC0E5E62F8D38A1AC016D8D7E8D8E2FB5
:100D3000EB8DFC8D0995CA84CC1CCC24CC1CE98499
:100D4000FA84F7FE03C0F194E194F1080F2C000C33
:100D5000000B110B1F9285E08F9369887A88F1E070
:100D60006F1A71087F926F921F921F928AE0882EED
:100D7000912CA12CB12C2F8D38A1A2016D8D7E8DCF
:100D80008B8D9C8D0E94E2030F900F900F900F901F
:100D90000F900F902BA13CA1232B09F4FECD9C01B9
:100DA0004FA158A5241B350BE9A1FAA12E173F0727
:100DB00008F0F3CD8C010F5F1F4F2F8D38A1AC01D0
:100DC0006D8D7E8D80E2EB8DFC8D0995C801E7CF9E
:100DD00049895A89415051095A87498720E030E0B2
:100DE00040E251E4C701B6010E946C1D69837A8319
:100DF0008B839C8309CFE4E0F0E0FA8BE98B10CF82
:100E0000312C212C30CF2114310409F435CFE9A540
:100E1000FAA5EF2B09F430CFF1E02F1A31082CCFCF
:100E2000E5E480CF2F923F924F925F926F927F9234
:100E30008F929F92AF92BF92CF92DF92EF92FF92EA
:100E40000F931F93CF93DF93CDB7DEB7E9970FB61C
:100E5000F894DEBF0FBECDBF9EA38DA378A76FA36E
:100E60005AA749A73CA72BA7270138011601BCA206
:100E7000ABA25401A8019701C801B7010E94671DE8
:100E8000882391F0CBA0DCA053E0E52EF12C0DE7F8
:100E900011E02BA53CA549A55AA56FA178A58DA168
:100EA0009EA10E947A024EC02FEF3FEF4FE75FEF07
:100EB000C801B7010E94671D87FF08C0CBA0DCA056
:100EC00044E0E42EF12C01E811E0E3CF2FEF3FEFF7
:100ED0004FE75FE7C801B7010E94C61E181674F4F9
:100EE00083E090E009E711E082FE04C084E090E036
:100EF00004E711E0CBA0DCA07C01CBCF28E23BE6ED
:100F00004EE65EE4C801B7010E94C61E181654F0F2
:100F100028E23BE64EE65EECC801B7010E94671D81
:100F200087FF29C04501ABA0BCA06101830172010C
:100F30002BA53CA549A55AA56FA178A58DA19EA179
:100F40000E947304E9960FB6F894DEBF0FBECDBFC2
:100F5000DF91CF911F910F91FF90EF90DF90CF9095
:100F6000BF90AF909F908F907F906F905F904F90C9
:100F70003F902F90089520E030E0A901C801B7010B
:100F80000E94671D87FFBFC0A801970160E070E065
:100F9000CB010E94FA1C2B013C0121E029ABB2FEDF
:100FA000B4C0FE01319610E000E080E39AE029161B
:100FB000310448F00F5F1F4F819331E0231A31084D
:100FC0000032110599F7C301B2010E94DE1D6AAB20
:100FD0007BAB8CAB9DABAAA9BBA9BAA3A9A3F1011A
:100FE000EE0FFF1FEE0FFF1FEE5EFE4F808191811F
:100FF000A281B3818EAB9FABA8AFB9AFAAA9BBA9A1
:10100000BD01BB0F880B990B0E94161E9B01AC0102
:10101000C301B2010E94FA1C2EA93FA948AD59ADE7
:101020000E94CB1E6DA77EA78FA798AB0E94E51DDF
:101030006B017C010E94141E9B01AC016DA57EA575
:101040008FA598A90E94FA1C6DA77EA78FA798ABC1
:1010500020E030E040E05FE30E94C61E18160CF06E
:1010600058C0BFEFCB1ADB0AEB0AFB0AC701B60177
:101070000E94141E9B01AC016EA97FA988AD99AD99
:101080000E94671D181644F0EAA9FBA93196FAA33D
:10109000E9A3C12CD12C76012114310409F081C0BF
:1010A00029A13AA1B901330F880B990B0E94161E92
:1010B0009B01AC01C301B2010E94FA1C6B017C01CF
:1010C00020E030E040E05FE30E94671D87FF0AC038
:1010D00020E030E040E05FE3C701B6010E94C61E99
:1010E000181644F439A130FF05C089A19AA10196D0
:1010F0009AA389A3E1E0F0E0EC0FFD1FE00FF11FE0
:101100002AE030E090C019AA4ACF36E0232E312CD5
:1011100048CF20E030E040E05FE36DA57EA58FA5DD
:1011200098A90E94671D87FDB7CFC114D104E104BF
:10113000F10411F0C0FEB0CFFFEFCF1ADF0AEF0AC3
:10114000FF0AAACF91E0291A31080F5F1F4FC7018C
:10115000B601A30192010E940D1C605DD4016D9344
:101160004D0169017A01C114D104E104F10429F5AA
:10117000E1E0F0E0EC0FFD1FE00FF11F20E3003293
:101180001105F1F0C801019621143104B9F5E1E02F
:10119000F0E0EC0FFD1FE00FF11F2EE220838C0129
:1011A000A9CF88248394912C8C0E9D1E800E911EB5
:1011B0009AE0492E512C612C712C0032110511F648
:1011C000A1FC47C0A0FE45C0ABA1BCA1AB2B09F45C
:1011D00040C0B9A9B11105C0C5018C709927892BF0
:1011E00029F0EBA1FCA13197FCA3EBA3E1E0F0E037
:1011F000EC0FFD1FE00FF11F80E31CC02193B1E055
:101200002B1A31088C01BBCF0F5F1F4F89A19AA108
:10121000B9010E94F91B805D819369A37AA389A11A
:101220009AA1892B69F20032110570F3C9CF0F5FC3
:101230001F4F81932BA13CA10217130750F40032DA
:101240001105A8F3CBA0DCA078018E010F5F1F4F22
:1012500020CE00321105B0F739A9332359F0E1E06F
:10126000F0E0EC0FFD1FE00FF11F8DE280830F5FB8
:101270001F4FE8CFA2FE08C0E1E0F0E0EC0FFD1F39
:10128000E00FF11F8BE2F2CFA3FEDCCFE1E0F0E054
:10129000EC0FFD1FE00FF11F80E2E8CF2091B302B9
:1012A000260F3327331F21323105ECF42091FE0243
:1012B000FC0190E080E0243069F082E00895A09184
:1012C000B3022191AC014F565D4FA40FB52FB11D54
:1012D0002C930196861798F38091B302680F609360
:1012E000B30280E0089581E008951092FE0281E04B
:1012F0008093FD021092D80261E082E10E94B50065
:1013000061E083E10E94B500E9EBF0E080818E7F2F
:10131000808380818D7F808388E48093B80085E41A
:101320008093BC000895CF93DF9391E09093900257
:101330008823B9F0C091B800D091BA008091BC0068
:101340008A7B8093BC0060E082E10E94B50060E08F
:1013500083E10E94B5000E947509D093BA00C09342
:10136000B800DF91CF910895CF92DF92EF92FF9274
:101370000F931F93CF93DF93FC0184859585248180
:1013800031E030930403209326031092050310925A
:1013900027032385622BDC01ED91FC910190F08104
:1013A000E02D0995D0912703D13208F094C0C09167
:1013B00026030E941F016B017C018091FE028111B6
:1013C00065C082E08093FE0281E08093FD028FEF92
:1013D0008093FC021092FB02D093FA02A6E0B3E0E5
:1013E000EAEDF2E080E0D81385C01092D902809136
:1013F000D902CC0FC82BC093D9028091D80281307A
:1014000009F07CC01092D8020E941F016B017C0180
:101410008091D9028093BB008091000390910103D9
:10142000A0910203B0910303892B8A2B8B2B99F097
:101430000E941F01009100031091010320910203FB
:10144000309103036C197D098E099F090617170750
:1014500028073907E0F18091BC0083FDD9CF85ECE6
:101460008093BC000E941F016B017C018091FE02F1
:10147000823009F445C08091FC028F3F61F1809178
:10148000FC02803241F18091FC0225C08091000372
:1014900090910103A0910203B0910303892B8A2B41
:1014A0008B2B09F48ACF0E941F0100910003109139
:1014B000010320910203309103036C197D098E0909
:1014C0009F09061717072807390708F076CF80917C
:1014D000FF020E94930910920503109227031092B5
:1014E0000403DF91CF911F910F91FF90EF90DF9058
:1014F000CF9008959D9191938F5F75CF85EEB0CF7A
:101500008091000390910103A0910203B091030325
:10151000892B8A2B8B2B09F4A9CF0E941F010091E4
:1015200000031091010320910203309103036C1911
:101530007D098E099F09061717072807390708F044
:1015400095CFC5CF089508950895E0918F028091B9
:101550008E02E81730F4F0E0E259FD4F808190E010
:1015600008958FEF9FEF089590918F0280918E02E2
:101570002FEF3FEF981748F4E92FF0E0E259FD4FC5
:10158000208130E09F5F90938F02C9010895809180
:101590008E0290918F02891B990B0895CF92DF9252
:1015A000EF92FF920F931F93CF93DF937C01CB01B8
:1015B0008A0120910403222389F0EB016B01C40E00
:1015C000D51ECC15DD0569F06991D701ED91FC912F
:1015D0000190F081E02DC7010995F3CF642F0E949F
:1015E0004E09C801DF91CF911F910F91FF90EF90AD
:1015F000DF90CF900895CF93DF931F92CDB7DEB7E2
:101600006983209104032223F9F0209127032032DB
:1016100058F021E030E0FC013383228390E080E049
:101620000F90DF91CF91089580910503E82FF0E0AE
:10163000EA5FFC4F998190838F5F809305038093CD
:10164000270381E090E0ECCF61E0CE0101960E949B
:101650004E09F7CF90E080E00895CF92DF92EF92AD
:10166000FF920F931F930E941F0100916A02109135
:101670006B0220916C0230916D026B017C01C01AEB
:10168000D10AE20AF30A9701860160936A02709315
:101690006B0280936C0290936D0205361105210553
:1016A000310548F08091680290916902019690930B
:1016B0006902809368021F910F91FF90EF90DF9075
:1016C000CF9008950895CF93DF93D0E0C0E00097C6
:1016D00071F0FC0101900020E9F73197AF01481B40
:1016E000590BBC0181E393E00E947701EC0142E0D9
:1016F00050E066E871E081E393E00E9477018C0F8F
:101700009D1FDF91CF9108950E945D200F931F933D
:10171000CF938C01C62F0E94B4096C2F6460C8015E
:101720000E94B4096C2F6B7FC8010E94B40983EC3E
:1017300090E00197F1F7CF911F910F9108950F93CA
:101740001F93CF93DF938C01D62FC42F607F642B20
:101750000E94860B80E1D89FB00111246C2BC80138
:10176000DF91CF911F910F910C94860B41E00E9465
:101770009F0B81E090E008952F923F924F925F92ED
:101780006F927F928F929F92AF92BF92CF92DF9291
:10179000EF92FF920F931F93CF93DF93CDB7DEB7F6
:1017A000EC970FB6F894DEBF0FBECDBF8E01095A7D
:1017B0001F4F312C212C6796AEADBFAD67978C9132
:1017C000811130C06596EEADFFAD6597AF01415018
:1017D00051092E163F0608F4A10165962EAD3FADC6
:1017E000659763966EAD7FAD639780E00E9471024E
:1017F000C101EC960FB6F894DEBF0FBECDBFDF91EE
:10180000CF911F910F91FF90EF90DF90CF90BF90FD
:10181000AF909F908F907F906F905F904F903F9090
:101820002F90089567962EAD3FAD67972F5F3F4F7E
:1018300067963FAF2EAF679771013FEFE31AF30A48
:10184000853209F0FDC0512C412C0AC08D32E1F0E7
:10185000803391F4689440F86796FFAFEEAF6797D6
:101860006796EEADFFAD679781918B3281F074F78B
:10187000803281F0833289F090ED980F9A3008F031
:1018800042C01CA61BA620C0689441F8E5CF68940E
:1018900042F8E2CF689443F8DFCF689444F8DCCF95
:1018A0006AE04BA55CA5649FC001659F900D112463
:1018B000C097DC01A20FB11D27FDBA95BCA7ABA74D
:1018C0006796FFAFEEAF67976796EEADFFAD679790
:1018D000219180ED820F8A3018F36796AEADBFADCF
:1018E00067978C918E3209F07DC0CD010196689486
:1018F00052F811962C9130ED320F3A3008F054C066
:101900001AA619A62FC08A32C9F498012E5F3F4F3C
:10191000D8018D919C9197FF0EC0689441F844279F
:101920005527481B590B5CA74BA789016796FFAF4A
:10193000EEAF6797D2CF9CA78BA7F7CF1CA61BA6AD
:10194000CCCF6AE049A55AA5649FC001659F900D60
:101950001124C097DC01A20FB11D27FDBA95BAA7CB
:10196000A9A7CF01FC01219130ED320F3A3048F3A5
:1019700067969FAF8EAF679767962EAD3FAD67971F
:101980002F5F3F4F6796AEADBFAD67978C918C369A
:1019900099F15CF5883609F466C08A3651F167968C
:1019A0002EAD3FAD679731C02A32C1F4C80102960F
:1019B000F8010190F081E02DFAA7E9A7F7FF02C036
:1019C0001AA619A667962EAD3FAD67972E5F3F4FBB
:1019D00067963FAF2EAF67978C01CECF67969FAFCC
:1019E0008EAF67971AA619A6C7CF843711F08A372A
:1019F000B1F6689451F809C06796EEADFFAD6797F0
:101A000081818C3639F1689450F8F901819167969B
:101A1000FFAFEEAF6797853609F402C30CF046C1FD
:101A2000873409F4FDC26CF5853409F4F9C20CF071
:101A3000D5C2853209F405C471014FEFE41AF40AE6
:101A400065962EAD3FAD6597A10163966EAD7FADF6
:101A5000639705C4F3E05F2A67962EAD3FAD6797A5
:101A60002E5F3F4FD2CF6796AEADBFAD6797119651
:101A70008C91883619F0689447F8C7CFB0EC4B2AA0
:101A8000EBCF823609F4F2C34CF48835A9F668949A
:101A900045F820E130E03FA72EA710C0833609F4B7
:101AA000E6C2843649F6E89444F8893609F437C129
:101AB0002AE030E03FA72EA7843611F053EF4522ED
:101AC00052FE02C0E89440F8920122273270893613
:101AD00019F0843609F095C1232B09F428C1C801F7
:101AE00008969BAF8AAFD801BC901196CC90119705
:101AF0001296DC9012971396EC9013971496FC9024
:101B000014971596BC91F801F681FFABF801F781A7
:101B1000FCAF4EA55FA59A0150E040E060E070E0A8
:101B2000CB0129A33AA34BA35CA36DA37EA38FA3F0
:101B300098A72B2D3C2D4D2D5E2D6F2D7B2F8FA922
:101B40009F2F0FE30E94B91C29AFBDA63601AE2C12
:101B50000F2D1B2F9FA88F2E2B2D3C2D4D2D5E2D35
:101B60006F2D7B2F892D9F2FA0E00E94D41C4CF459
:101B70000E948E1C2DA7632E742EA52E8B01982EED
:101B8000892E68AA79AAAAAA0BAB1DAB2B2D3C2DD6
:101B90004D2D5E2D6F2D7B2F8FA99CADA0E00E9457
:101BA000D41C11F4E89444F852FE0FC02B2D3C2DA8
:101BB0004D2D5E2D6F2D7B2F8FA99CADA0E0712C3C
:101BC000612C0E94D41C09F44DC081E445FE81E6DD
:101BD000BE016F5F7F4F78AF6FAB712C612C8A5065
:101BE0008CAFA9A0BAA0CBA0DCA0EDA0FEA00FA155
:101BF00018A52DA538A949A95AA96BA97DA9892D90
:101C0000982D0E942F1C2A300CF08EC0205D8FEF83
:101C1000681A780AAFA9B8AD2D93B8AFAFABA9A039
:101C2000BAA0CBA0DCA0EDA0FEA00FA118A52DA509
:101C300038A949A95AA96BA97DA9892D982D0E9477
:101C4000311C2DA738AB49AB5AAB6BAB7DAB982E93
:101C5000892EA0E00E94D41C29F0B0E26B1671041A
:101C600009F0BFCF5F924F92ECA5EF93FBA5FF93D6
:101C700089A49AA4AEA4BFA4C9AC73018E010F5F5E
:101C80001F4F65962EAD3FAD6597A10163966EAD72
:101C90007FAD639781E792E00E9406031C010F90DD
:101CA0000F900F900F900AAD1BAD85CD8F3609F4C4
:101CB000DAC24CF4873609F4B3C10CF48FC189360B
:101CC00009F0BACEF0CE833709F429C2ECF480379C
:101CD00009F0B2CE380132E0630E711CD801ED90EC
:101CE000FC9010E000E0B1E24B2A5F924F921F920D
:101CF000E4E0EF93FAA5FF9329A52F9380E1882EC6
:101D0000912CA12CB12C5DC1853709F4CCCE40E1DA
:101D100050E0883709F090CE5FA74EA7CFCE6AE09B
:101D200070E07FA76EA7CCCE7CAD270F70CF2EA51D
:101D30003FA54901B12CA12C380150FE3CC034E034
:101D4000630E711CD8014D915D916D917C91DB0109
:101D5000CA018827B7FD83959927AA27BB277A014F
:101D60008B0117FF08C010950095F094E094E11CDA
:101D7000F11C011D111D5F924F92ECA5EF93FBA585
:101D8000FF932AA52F9339A53F93C82E65962EADB4
:101D90003FAD6597A10163966EAD7FAD639781E717
:101DA00092E00E94E2031C010F900F900F900F90A1
:101DB0000F900F9033C142E0640E711C46FE1DC0AF
:101DC000D801EC900E2C000CFF08CF2CCC1CCC249E
:101DD000CC1CF7FE03C0F194E194F1080F2C000C29
:101DE000000B110B5F924F92FCA5FF932BA52F9335
:101DF0003AA53F9349A54F93C9CFF801E080F18000
:101E0000E4CF4EA55FA5232B09F4C3C09A0150E08F
:101E100040E060E070E0CB0129A33AA34BA35CA3B0
:101E20006DA37EA38FA398A7B801685F7F4F78AF9B
:101E30006FABD8019C9011968C90119712967C9064
:101E4000129713966C9013971496BC91BDA7F80146
:101E5000F581F8ABD8011696BC91B9ABF801F781C2
:101E6000FAAB292D382D472D562D6DA578A98B2F2E
:101E70009F2FA0E00E94D41C11F4E89444F852FE75
:101E80000DC0292D382D472D562D6DA578A989A96E
:101E90009AA9A0E00E94D41C09F478C081E445FE10
:101EA00081E69E012F5F3F4F3EAB2DAB1CAA1BAAC4
:101EB0008A5089AFA9A0BAA0CBA0DCA0EDA0FEA05B
:101EC0000FA118A5292D382D472D562D6DA578A9C0
:101ED00089A99AA90E942F1C2A300CF054C0205DB9
:101EE0004BA95CA94F5F5F4F5CAB4BABADA9BEA9E3
:101EF0002D93BEABADABA9A0BAA0CBA0DCA0EDA04A
:101F0000FEA00FA118A5292D382D472D562D6DA502
:101F100078A989A99AA90E94311C922E832E742E29
:101F2000652E6DA778AB89AB9AABA0E00E94D41C5C
:101F300029F0EBA9FCA9B09709F0BCCF5F924F92B2
:101F4000FCA5FF932BA52F9389A49AA4AEA4BFA4AC
:101F5000C12CEBA8FCA88E010F5F1F4F65962EAD1C
:101F60003FAD6597A10163966EAD7FAD639781E745
:101F700092E00E9406031C010F900F900F900F90AB
:101F80000FA918AD18CC39AD230FAACF1CAA1BAAD4
:101F9000D5CF4A01B12CA12C380150FE14C054E019
:101FA000650E711CD801ED90FD900D911C915F9212
:101FB0004F92BCA5BF93EBA5EF93FAA5FF9329A57C
:101FC0002F93C12CE3CE32E0630E711CD801ED904B
:101FD000FC9046FCFF2410E000E0E9CF863411F4C9
:101FE000689445F8380134E0630E711CD801ED9017
:101FF000FD900D911C914201ABA4BCA4C9A4DAA42C
:1020000065962EAD3FAD6597A10163966EAD7FAD30
:10201000639781E792E00E9412071C018301CBCBFA
:10202000982F9F7D973419F4689453F88D7F8534E9
:1020300011F4689445F83801B4E06B0E711CF80196
:10204000E080F180028113814201ABA4BCA4C9A449
:10205000DAA465962EAD3FAD6597A10163966EAD8E
:102060007FAD639781E792E00E947304D6CF52015F
:10207000F2E0AF22BB24A101CC24C394D12C41FCBB
:102080001DC0F12CE12C0BC065962EAD3FAD6597C0
:1020900063966EAD7FAD639780E20E947102A101ED
:1020A0004E0D5F1D670122E0C20ED11C3FEFE31A07
:1020B000F30A6BA57CA5E616F70630F31A017FEF4D
:1020C000271A370A780182E0E80EF11C65962EADDA
:1020D0003FAD659763966EAD7FAD6397D8018C91E8
:1020E0000E947102AB2829F0EBA5FCA5CE16DF06F5
:1020F00010F0870160CB81010F5F1F4F65962EADF9
:102100003FAD6597A10163966EAD7FAD639780E2A9
:102110000E947102BFEFCB1ADB0A1801E5CF38012C
:10212000F2E06F0E711CD8010D911C91E9A5FAA582
:102130009F01EF2B11F42FEF3FEF780190E080E04B
:10214000A7014F5F5F4FD7016C91662319F082178B
:102150009307C9F4E01AF10A5201AA24B4E0BB22A1
:1021600052FE06C0E9A5FAA5EE15FF0508F47F01A9
:102170006201F2E0CF22DD24A10141FC1FC0C701B2
:102180002E183F080FC001967A01DACF65962EAD62
:102190003FAD659763966EAD7FAD639780E20E9419
:1021A0007102C701A101480F591F7C012FEFE21AEC
:1021B000F20A6BA57CA58617970740F34A01801A9F
:1021C000910A0CC03AA729A765962EAD3FAD659739
:1021D00063966EAD7FAD63970E947102A401400FBC
:1021E000511FD8018D918D01882359F0A114B1049C
:1021F00059F329A53AA521503109E9A5FAA5EF2BF4
:1022000009F71A01CD2809F409CFE41AF50A10C01C
:1022100081010F5F1F4F65962EAD3FAD6597A10100
:1022200063966EAD7FAD639780E20E9471021801E4
:10223000C1018E0D9F1D2BA53CA58217930740F36E
:10224000EDCE71013FEFE31AF30A65962EAD3FAD77
:102250006597A10163966EAD7FAD639785E20E949D
:1022600071021701A8CA48E050E056CD62E070E064
:102270007FA76EA723CC0F931F93CF93DF93CDB788
:10228000DEB7A0970FB6F894DEBF0FBECDBF7F9329
:102290006F939F938F931F9280E28F938E010F5FB6
:1022A0001F4F1F930F930E94BC0BC8010E94630B2A
:1022B0000FB6F894DEBF0FBECDBFA0960FB6F89450
:1022C000DEBF0FBECDBFDF91CF911F910F9108955B
:1022D0008F929F92AF92BF92CF92DF92EF92FF9236
:1022E0000F931F93CF93DF93CDB7DEB7A0970FB6B1
:1022F000F894DEBF0FBECDBF8C017B01C42EB52E7E
:10230000D22EA32E3F932F935F934F93FF926F9301
:1023100089E891E09F938F931F9280E28F93CE0183
:1023200001964C019F938F930E94BC0BC4010E94A5
:10233000630BF701EE0FFF1FEE0FFF1FE00FF11F02
:10234000D4AAA5AAC6AAB7AA61E08C2D0E94E30070
:1023500061E08D2D0E94E3000FB6F894DEBF0FBE42
:10236000CDBFA0960FB6F894DEBF0FBECDBFDF91F4
:10237000CF911F910F91FF90EF90DF90CF90BF9082
:10238000AF909F908F90089585ED8093BC008091D1
:10239000000390910103A0910203B09103030796FB
:1023A000A11DB11D23E0B695A795979587952A9510
:1023B000D1F72091BC0024FD03C01092FE020895C5
:1023C0004091000350910103609102037091030357
:1023D000452B462B472B69F30097A105B10541F02A
:1023E00025E32A95F1F700000197A109B109E1CF92
:1023F0008091FF020C9493090C94D41FAF92BF926A
:10240000CF92DF92EF92FF920F931F93CF93DF93C0
:10241000CDB7DEB728970FB6F894DEBF0FBECDBF9D
:10242000FC01A081B18124E1FB0101900D922A956C
:10243000E1F7DA01DC9011964C91FB01F12CE12CD3
:1024400021912332C9F5BFEFEB1AFB0A2081233219
:10245000F1F18C014F93DF9284EA91E09F938F9387
:102460001F9288E08F93FE0131965F01FF93EF93F7
:102470000E94BC0B6C01A70160E270E0D8018D9155
:102480009C910E946220A701CE14DF040CF4A601E7
:10249000B501F801808191810E946920D8018D9158
:1024A0009C911197E80EF91EED92FC920FB6F894EC
:1024B000DEBF0FBECDBF12C0E114F10441F4DC0158
:1024C0002D913C9111972F5F3F4F2D933C9320818D
:1024D0002111B6CFE114F10409F0BBCF28960FB655
:1024E000F894DEBF0FBECDBFDF91CF911F910F914A
:1024F000FF90EF90DF90CF90BF90AF900895FF9244
:102500000F931F93CF93DF93CDB7DEB728970FB606
:10251000F894DEBF0FBECDBFFC01EA5AFF4FF0803A
:10252000FF2009F446C08C0110823796808191818A
:102530009C838B83C80102969A838983AE014D5F89
:102540005F4F67EA71E0CE0101960E94FE11F8012B
:10255000E75AFF4F808191819E838D83C801479602
:102560009A838983AE014B5F5F4F6CEB71E0CE01C4
:1025700001960E94FE11F801EF59FF4F8081918171
:1025800098878F83C8018C969A838983AE01495FAF
:102590005F4F61ED71E0CE0101960E94FE11D801FE
:1025A000AF5BBF4F84E1E6EEF1E001900D928A95BA
:1025B000E1F78F2D28960FB6F894DEBF0FBECDBF82
:1025C000DF91CF911F910F91FF9008951F920F926D
:1025D0000FB60F9211242F933F938F939F93AF9336
:1025E000BF938091290390912A03A0912B03B0916E
:1025F0002C033091280323E0230F2D3758F5019643
:10260000A11DB11D209328038093290390932A03D1
:10261000A0932B03B0932C0380912D0390912E0354
:10262000A0912F03B09130030196A11DB11D80939D
:102630002D0390932E03A0932F03B0933003BF91EB
:10264000AF919F918F913F912F910F900FBE0F905F
:102650001F90189526E8230F0296A11DB11DD2CF19
:102660001F920F920FB60F9211242F933F934F9307
:102670005F936F937F938F939F93AF93BF93EF93EA
:10268000FF93E0910201F09103010995FF91EF9111
:10269000BF91AF919F918F917F916F915F914F917A
:1026A0003F912F910F900FBE0F901F9018951F9282
:1026B0000F920FB60F9211242F933F934F935F9376
:1026C0006F937F938F939F93AF93BF93EF93FF93FA
:1026D000E0910001F09101010995FF91EF91BF9107
:1026E000AF919F918F917F916F915F914F913F91AA
:1026F0002F910F900FBE0F901F9018951F920F9261
:102700000FB60F9211242F933F934F935F936F93C4
:102710007F938F939F93AF93BF93EF93FF9381E347
:1027200093E00E94E101FF91EF91BF91AF919F91E2
:102730008F917F916F915F914F913F912F910F906A
:102740000FBE0F901F9018951F920F920FB60F9209
:1027500011242F938F939F93EF93FF93E091410365
:10276000F09142038081E0914703F091480382FD9C
:102770001BC0908180914A038F5F8F7320914B0320
:10278000821741F0E0914A03F0E0EF5CFC4F958F37
:1027900080934A03FF91EF919F918F912F910F901A
:1027A0000FBE0F901F9018958081F4CF1F920F924B
:1027B0000FB60F9211242F933F934F935F936F9314
:1027C0007F938F939F93AF93BF93EF93FF938091EA
:1027D000B900887F803609F44AC0F0F5883209F4E0
:1027E000A7C018F5803109F49BC0B8F4882309F418
:1027F000F9C0883009F494C0FF91EF91BF91AF9177
:102800009F918F917F916F915F914F913F912F9108
:102810000F900FBE0F901F901895883109F488C053
:10282000803251F78093FC0214C0803409F49DC0BB
:1028300040F48033B9F38833F9F68093FC0285ECD9
:10284000B0C0803509F485C0883509F496C0883455
:1028500099F60E94C411D0CF883909F48CC038F59C
:10286000883729F050F4883611F0803729F683E054
:102870008093FE021092D70257C0883809F47BC0BB
:10288000803919F0803809F0B7CF8091D7028032B3
:1028900008F071C0E091D70281E08E0F8093D702DB
:1028A0008091BB00F0E0E954FD4F80833DC0803B48
:1028B00039F0E0F4803A09F479C0883A09F09CCF05
:1028C00084E08093FE021092B4021092B302E09171
:1028D000B102F091B20209958091B30281110FC04B
:1028E00081E08093B3021092910209C0803C09F408
:1028F000A6CF883C09F4A3CF883B09F07DCFE091B7
:10290000B40281E08E0F8093B402F0E0EF56FD4FE9
:1029100080818093BB009091B4028091B30229C062
:102920008091D9028093BB0085EC8093BC0064CF7A
:102930009091FB028091FA02981758F5E091FB0202
:1029400081E08E0F8093FB02F0E0E652FD4F808124
:10295000E9CFE091FB0281E08E0F8093FB02809132
:10296000BB00F0E0E652FD4F80839091FB02809126
:10297000FA029817C8F285E8D8CFE091FB0281E00F
:102980008E0F8093FB028091BB00F0E0E652FD4F7A
:1029900080838091FD0281115CCF81E08093D80219
:1029A00084EA8093BC001092FE0226CF85EC8093CF
:1029B000BC001092FE028091D702803230F4E09188
:1029C000D702F0E0E954FD4F10826091D70270E029
:1029D000E091B502F091B60287EB92E00995109272
:1029E000D7020ACF1092FC0234CF0F931F93CF93DC
:1029F000DF93E1E3F3E01382128248EE53E060E0FC
:102A000070E044835583668377838EE391E09183FE
:102A1000808385EC90E09587848784EC90E09787AD
:102A2000868780EC90E0918B808B81EC90E0938B9B
:102A3000828B82EC90E0958B848B86EC90E0978B78
:102A4000868B118E128E138E148EA1E3B4E0139632
:102A50001C921E92129714964D935D936D937C93E6
:102A6000179726E631E011963C932E93E4E2F4E0CA
:102A700081E0808384E100ED13E0E801982F199252
:102A80009A95E9F705EE13E0E801982F19929A95C7
:102A9000E9F70AEF13E0E801982F19929A95E9F700
:102AA0000FE014E0E801982F19929A95E9F7C0E534
:102AB000D1E0D093CF03C093CE03F0932604E093EC
:102AC0002504F0932A04E0932904F0932E04E09364
:102AD0002D04EDE3F4E0C4E0D0E0D183C08315829F
:102AE0001482468357836087718733832283118AD8
:102AF000108A2AE531E03787268797E2928B868B0A
:102B000094E0978B108E98E0918FB38FA28FE9E5B8
:102B1000F4E0DF011D928A95E9F78FEF8093C104FD
:102B20001092C2041092C3041092C4041092C504FF
:102B30001092C60423E030E03093C8042093C70409
:102B4000E9ECF4E090E1EF0119929A95E9F78093AE
:102B5000D9041092DA041092DB04DF91CF911F9117
:102B60000F910895CF93DF93CDB7DEB7C957D10941
:102B70000FB6F894DEBF0FBECDBF789484B58260E7
:102B800084BD84B5816084BD85B5826085BD85B511
:102B9000816085BD80916E00816080936E0010928F
:102BA000810080918100826080938100809181000A
:102BB000816080938100809180008160809380009B
:102BC0008091B10084608093B1008091B0008160F9
:102BD0008093B00080917A00846080937A00809125
:102BE0007A00826080937A0080917A00816080937D
:102BF0007A0080917A00806880937A001092C100F8
:102C0000E0914103F091420382E08083E0913D0333
:102C1000F0913E031082E0913F03F09140038FEC6E
:102C2000808310924903E0914503F091460386E0CA
:102C30008083E0914303F09144038081806180832D
:102C4000E0914303F0914403808188608083E091A8
:102C50004303F0914403808180688083E0914303C3
:102C6000F091440380818F7D80831A8219821C82B7
:102C70001B821D821E821F8218861A8619868FEF7C
:102C80009FEF9E8F8D8F18A21F8E1AA219A29CA350
:102C90008BA31DA21FA21EA29E012A593F4FEA9696
:102CA0003FAF2EAFEA97A8969FAF8EAFA8978DEC57
:102CB0009CECACE4BFE3E0968CAF9DAFAEAFBFAF92
:102CC000E0978BEF91E00E94630B28E030E04BE04F
:102CD00050E070E060E0CE0186960E94681127E027
:102CE00030E04AE050E061E070E0CE0186960E945C
:102CF000681126E030E049E050E062E070E0CE018B
:102D000086960E94681165E070E088E092E00E947B
:102D10003B1160E085E00E94E30075E0C72ED12CF6
:102D2000D88ECF8A64E070E088E192E00E943B1187
:102D300060E084E00E94E300E4E0EE2EF12CFA8EE5
:102D4000E98E63E070E088E292E00E943B1160E06F
:102D500083E00E94E30003E010E01C8F0B8F62E031
:102D600070E088E392E00E943B1160E082E00E9404
:102D7000E3008DE29BE0909301018093000180913C
:102D80006900836080936900E89A89859A855C016F
:102D90003FEFA31AB30AFC013596EE0FFF1F41E087
:102DA00050E04C0F5D1FE40FF51FD182C0829C01E3
:102DB0002A5F3F4FF901EE0FFF1FE40FF51F61E09F
:102DC00070E071836083FC013796EE0FFF1FE40F04
:102DD000F51F11830083FC013896EE0FFF1FE40FEF
:102DE000F51FA2E0B0E0B183A083FC013996EE0F9D
:102DF000FF1FE40FF51F46E050E0518340833A8700
:102E00002987FC013A96EE0FFF1F88248394912CAA
:102E10008C0E9D1EE80DF91DF182E082BA82A98216
:102E200022E130E03C832B832EA13FA1A9014F5F1B
:102E30005F4FF901EE0FFF1FEE0FFF1FE80DF91DA9
:102E400010A617A2FA01EE0FFF1FEE0FFF1F882436
:102E50008394912C8C0E9D1E8E0E9F1EF40116A342
:102E600005A33901F2E06F0E711CF40110A617A240
:102E7000FA013196EE0FFF1FEE0FFF1F8824839497
:102E8000912C8C0E9D1EE80DF91DD6A2C5A25901EC
:102E9000E3E0AE0EB11CF301EE0FFF1FEE0FFF1FBC
:102EA000E80DF91DB0A7A7A3F501EE0FFF1FEE0F68
:102EB000FF1F24014E0E5F1EF20176A365A3490198
:102EC000F4E08F0E911CF201B0A7A7A3D401AA0FC2
:102ED000BB1FAA0FBB1FE1E0F0E0EC0FFD1FAE0F20
:102EE000BF1F9696DC92CE929597F90135969896EB
:102EF000FC92EE929797DF01AA0FBB1FAA0FBB1F90
:102F0000CC24C394D12CCC0EDD1EAC0DBD1D9696E9
:102F10007C936E939597B9016A5F7F4F7FA36EA3F1
:102F20009896FC92EE929797660F771F660F771F21
:102F3000D601A60FB71F96961C930E939597DC01AA
:102F40001D96AA0FBB1FAC0DBD1D96967C926E926E
:102F50009597DC011E96AA0FBB1FAC0DBD1D969662
:102F60009C928E929597DC011F96AA0FBB1FAC0D09
:102F7000BD1D9696FC93EE939597DC015096AA0F93
:102F8000BB1FAC0DBD1D96963C932E939597DC010F
:102F90005196AA0FBB1FAC0DBD1D96965C934E9328
:102FA0009597DC015296AA0FBB1FAC0DBD1D9696DE
:102FB000BC92AE929597DC015396AA0FBB1FAC0D45
:102FC000BD1D96963C932E939597DC015496AA0FBF
:102FD000BB1FAC0DBD1D9696FC93EE939597FC011F
:102FE0007596EE0FFF1FEC0DFD1D56A345A3FC01CA
:102FF0007696EE0FFF1FEC0DFD1DB6A2A5A2FC01FB
:103000007796EE0FFF1FEC0DFD1D96A285A2FC0129
:103010007896EE0FFF1FEC0DFD1D76A265A280E5F0
:1030200092E00E94630B64E670E080E090E00E9412
:1030300044010E941F016D837E838F839887E091F6
:10304000C20481E08E0F8093C204F0E0EE0FFF1FF8
:10305000E75AFB4F8EEC93E0918380836A961FAE14
:103060001EAE6A9710928F0210928E021092050384
:10307000109227030E94750982EA9AE09093B202A7
:103080008093B10283EA9AE09093B6028093B502EE
:103090001092500480915404823018F098E090937C
:1030A000500490915504992339F0813029F480918E
:1030B000500484608093500462E370E080E090E00C
:1030C0000E944401609156048BE494E00E94B4098C
:1030D00068EE73E080E090E00E94440160E38BE4DE
:1030E00094E00E94860B0BE416E4C8010197F1F707
:1030F00060E38BE494E00E94860BC8010197F1F72E
:1031000060E38BE494E00E94860B83E592E00197F4
:10311000F1F760E28BE494E00E94860B609150042A
:10312000606240E08BE494E00E949F0B84E0809317
:10313000510440E06CE08BE494E00E949F0B40E07F
:1031400061E08BE494E00E949F0B0BE31FE1C80158
:103150000197F1F782E08093520440E066E08BE44F
:1031600094E00E949F0B40E062E08BE494E00E94B8
:103170009F0BC8010197F1F788E08093560460E047
:103180008BE494E00E94B4091092C104CC24CA9448
:10319000DC2C54E6A52EB12C64E6762E4E0177E1A8
:1031A000870E911CF12CE12C10E000E0D4012D9150
:1031B0003D914D013327F901E255FF4F8491F9010B
:1031C000E656FF4F6490F901EA57FF4F34903320E1
:1031D00009F4E1C081110E948C00E32DF0E0EE0FB4
:1031E000FF1FE859FF4FA591B491EC916E2231E099
:1031F00020E009F430E0832F922F002E02C0880FC8
:10320000991F0A94E2F7E82AF92A0F5F1F4F03304B
:10321000110509F0CBCFFE013B9690E080E02191B3
:103220003191E216F30609F0B9C021E04BA15CA18F
:103230004817590709F420E02DA39CA38BA32BA1C9
:103240003CA189819A812817390709F046C08DA1D0
:10325000882309F442C06B817C81072E000C880B07
:10326000990B0E94161E1B012C010E941F010D814B
:103270001E812F813885601B710B820B930B6F3F72
:10328000BFEF7B078B079B0721F46EEF7FEF8FEF7C
:103290009FEF0E94141E2DEB37E346E855E30E9492
:1032A000CB1E9B01AC01C201B1010E946C1D20E04C
:1032B00030E040EC50E40E946C1D20E030E040E043
:1032C0005FE30E94FB1C0E94DE1D7AA369A30E949B
:1032D0001F016D837E838F83988780916802909110
:1032E00069028836914024F01092690210926802B7
:1032F00029A13AA1E0912504F091260491E04091A2
:103300002704509128044217530709F490E0808164
:10331000892B808330932804209327040BA11CA1C0
:10332000E0912904F0912A0491E020912B0430913E
:103330002C042017310709F490E08081892B8083C9
:1033400010932C0400932B042091680230916902A1
:10335000E0912D04F0912E0491E040912F045091C2
:1033600030044217530709F490E08081892B808351
:103370003093300420932F0406301105A8F090E01C
:1033800080E00E94630B68EE73E080E090E00E94B2
:1033900044010E945D2090E080E02FCF01968630AE
:1033A000910509F03CCF4BCFA8968EAD9FADA89765
:1033B0008017910709F447C0A8961FAF0EAFA897D2
:1033C000B8018FE592E00E943B116A968EAD9FADE9
:1033D0006A97F801892B09F067C03D96EE0FFF1F31
:1033E00088248394912C8C0E9D1EE80DF91D85A1D7
:1033F00096A1880F991F880F991FE1E0F0E0EC0F6C
:10340000FD1FE80FF91F87A190A5A1A5B2A5AC9655
:103410008CAF9DAFAEAFBFAFAC978E01065A1F4FBA
:1034200060E0D8018C910E94B50060E0F8018281D3
:103430000E94B5000C5F1F4FEA968EAC9FACEA97D6
:103440008016910669F7AA968EAD9FADAA97019650
:1034500009F463C0AC96EEADFFADAC97EF3FFE074D
:1034600009F45BC07A96EE0FFF1F41E050E04C0F6D
:103470005D1FE40FF51F05A116A161E0802F0E94DA
:10348000E300F801FF27E255FF4FE491E33009F430
:1034900051C1A0F4E13021F1E23009F446C160E00D
:1034A000802F0E94B50020C07396EE0FFF1F21E011
:1034B00030E02C0F3D1FE20FF31F99CFE73009F4E6
:1034C00043C1E83009F448C1E43049F780918000F5
:1034D000806280938000B0928B00A0928A0004C02A
:1034E00084B5806884BD77BCAA96EEADFFADAA977F
:1034F0007A96EE0FFF1F61E070E06C0F7D1FE60F04
:10350000F71F61E085A10E94B500AC96DFAECEAE9C
:10351000AC97AA96DFAECEAEAA978091C7049091E1
:10352000C8048130910509F431C10CF01DC1892B0B
:1035300009F034CEE091C104F0E0EE0FFF1FE75A2E
:10354000FB4F80819181DC01ED91FC910480F5813C
:10355000E02D0995882309F419CEE091C104E09388
:10356000D904F0E0EE0FFF1FE75AFB4F6080718037
:10357000A3012DE334E0A9ECB4E001E914E090E00C
:1035800080E0C12CD12C7601C394BA01680F791F59
:10359000FB01B280B901680F791FFB0160A9B61267
:1035A00003C0C12CD12C7601082E04C0CC0CDD1C2C
:1035B000EE1CFF1C0A94D2F78D909D90AD90BC90AC
:1035C0001397C828D928EA28FB28CD92DD92ED92DE
:1035D000FC92139701968531910599F64B5E5F4FEA
:1035E0002B5E3F4F14960217130749F61092DA0428
:1035F0001092DB0484E5F3013296ADE6B4E001906D
:103600000D928A95E1F782E090E09093C804809350
:10361000C7048091DA042091DB04E82EF12CD70155
:10362000AA0FBB1FAA0FBB1FA753BB4F10E000E0A0
:10363000CC24C394D12C843008F0C6C0F701E00F2D
:10364000F11F8D909D90AD90BD9081149104A104C7
:10365000B10409F4B4C030E0922F253108F0AFC0B6
:10366000A601022E02C0440F551F0A94E2F7052E50
:10367000000C660B770B2F5F3F4F2401350144226E
:1036800055226622772245284628472829F3909319
:10369000DB048093DA04EE0FFF1FEE0FFF1FE753EA
:1036A000FB4F409550956095709584229522A622F7
:1036B000B72280829182A282B38228E0EAE0F1E020
:1036C000DE01A059BF4F01900D922A95E1F720919C
:1036D0005404281710F48FEF820FE82FF0E0EE0F5C
:1036E000FF1F20E7822E912C8C0E9D1EE80DF91DE8
:1036F0006081690F606840E08BE494E00E949F0B5A
:103700008091DA042091DB0435E1839FC00111240C
:10371000835C9B4F820F911D41E0DC01D0966C9140
:103720008BE494E00E949F0B31CD84B5806284BD10
:1037300078BCDACE80918000806880938000B0925F
:103740008900A0928800D0CE8091B00080688093DC
:10375000B0007092B300C8CE8091B00080628093B8
:10376000B0007092B400C0CE8230910509F451CF00
:10377000039709F013CD40E061E08BE494E00E94F0
:103780009F0B8BE39FE10197F1F722C00E941F017D
:103790000091C3041091C4042091C5043091C60463
:1037A000601B710B820B930B65317641854091054F
:1037B00008F4ECCC1092C8041092C704BBCE0F5F83
:1037C0001F4F8F5F20E037CF2093DB048093DA0414
:1037D00081E090E09093C8048093C7040E941F0189
:1037E0006093C3047093C4048093C5049093C6048B
:1037F000CDCC97FB072E16F4009407D077FD09D0A7
:103800000E94E01C07FC05D03EF4909581959F4FE7
:103810000895709561957F4F0895A1E21A2EAA1B15
:10382000BB1BFD010DC0AA1FBB1FEE1FFF1FA21770
:10383000B307E407F50720F0A21BB30BE40BF50B6D
:10384000661F771F881F991F1A9469F760957095F6
:10385000809590959B01AC01BD01CF0108956894BE
:1038600001C0E8948F929F92CF93DF930E943D1CFA
:10387000DF91CF919F908F90089588249924F4012F
:10388000E401B0E49F93AA279A158B049C04ED05EC
:10389000FE05CF05D007A10798F4AD2FDC2FCF2F61
:1038A000FE2FE92D982C892E982F872F762F652FA4
:1038B000542F432F322F2227B85031F7BF9127C002
:1038C0001B2EBF91BB27220F331F441F551F661F9E
:1038D000771F881F991F881C991CEE1FFF1FCC1F84
:1038E000DD1FAA1FBB1F8A149B04EC05FD05CE0536
:1038F000DF05A007B10748F08A189B08EC09FD090D
:10390000CE09DF09A00BB10B21601A94E1F62EF469
:103910009401AF01BE01CD01000C08956095709532
:103920008095909530954095509521953F4F4F4FFC
:103930005F4F6F4F7F4F8F4F9F4F0895002E08307E
:1039400090F0982F872F762F652F542F432F322FEB
:1039500022270850F4CF220F331F441F551F661F24
:10396000771F881F991F0A95B2F7002D089597FDBC
:103970001094002E083098F00850232F342F452F34
:10398000562F672F782F892F912DF4CF1594979567
:1039900087957795679557954795379527950A9514
:1039A000AAF71124002D08950024A7FD00942A17DA
:1039B00030054005500560057005800590050895A7
:1039C000AA1BBB1B51E107C0AA1FBB1FA617B70745
:1039D00010F0A61BB70B881F991F5A95A9F7809561
:1039E0009095BC01CD010895EE0FFF1F0590F49155
:1039F000E02D09945058BB27AA270E94121D0C9451
:103A00008C1E0E947E1E38F00E94851E20F039F424
:103A10009F3F19F426F40C947B1E0EF4E095E7FB0F
:103A20000C94751EE92F0E949D1E58F3BA17620769
:103A300073078407950720F079F4A6F50C94BF1E50
:103A40000EF4E0950B2EBA2FA02D0B01B9019001B9
:103A50000C01CA01A0011124FF27591B99F0593FFD
:103A600050F4503E68F11A16F040A22F232F342F45
:103A70004427585FF3CF469537952795A795F04093
:103A80005395C9F77EF41F16BA0B620B730B840BA8
:103A9000BAF09150A1F0FF0FBB1F661F771F881F60
:103AA000C2F70EC0BA0F621F731F841F48F48795B8
:103AB00077956795B795F7959E3F08F0B0CF9395AA
:103AC000880F08F09927EE0F9795879508950E9423
:103AD000511E08F481E008950E94801D0C948C1EF4
:103AE0000E94851E58F00E947E1E40F029F45F3F20
:103AF00029F00C94751E51110C94C01E0C947B1E61
:103B00000E949D1E68F39923B1F3552391F3951BF1
:103B1000550BBB27AA2762177307840738F09F5FEE
:103B20005F4F220F331F441FAA1FA9F335D00E2E5B
:103B30003AF0E0E832D091505040E695001CCAF7C8
:103B40002BD0FE2F29D0660F771F881FBB1F26178B
:103B500037074807AB07B0E809F0BB0B802DBF0162
:103B6000FF2793585F4F3AF09E3F510578F00C9431
:103B7000751E0C94C01E5F3FE4F3983ED4F3869507
:103B800077956795B795F7959F5FC9F7880F911D52
:103B90009695879597F90895E1E0660F771F881F3E
:103BA000BB1F621773078407BA0720F0621B730BF1
:103BB000840BBA0BEE1F88F7E09508950E94E51D6F
:103BC0006894B1110C94C01E08950E94A51E88F03F
:103BD0009F5798F0B92F9927B751B0F0E1F0660FD1
:103BE000771F881F991F1AF0BA95C9F714C0B13012
:103BF00091F00E94BF1EB1E008950C94BF1E672F84
:103C0000782F8827B85F39F0B93FCCF38695779540
:103C10006795B395D9F73EF4909580957095619529
:103C20007F4F8F4F9F4F0895E89409C097FB3EF454
:103C300090958095709561957F4F8F4F9F4F9923F9
:103C4000A9F0F92F96E9BB279395F6958795779577
:103C50006795B795F111F8CFFAF4BB0F11F460FF37
:103C60001BC06F5F7F4F8F4F9F4F16C0882311F08F
:103C700096E911C0772321F09EE8872F762F05C0A3
:103C8000662371F096E8862F70E060E02AF09A953E
:103C9000660F771F881FDAF7880F9695879597F933
:103CA0000895990F0008550FAA0BE0E8FEEF1616CD
:103CB0001706E807F907C0F012161306E407F50720
:103CC00098F0621B730B840B950B39F40A2661F094
:103CD000232B242B252B21F408950A2609F4A14037
:103CE000A6958FEF811D811D089597F99F6780E844
:103CF00070E060E008959FEF80EC089500240A943E
:103D00001616170618060906089500240A941216B6
:103D10001306140605060895092E0394000C11F4E9
:103D2000882352F0BB0F40F4BF2B11F460FF04C096
:103D30006F5F7F4F8F4F9F4F089557FD9058440FEF
:103D4000551F59F05F3F71F04795880F97FB991FFA
:103D500061F09F3F79F087950895121613061406B7
:103D6000551FF2CF4695F1DF08C016161706180644
:103D7000991FF1CF86957105610508940895E8941F
:103D8000BB2766277727CB0197F908950E94511E1C
:103D900008F48FEF08950E94DE1E0C948C1E0E9482
:103DA0007E1E38F00E94851E20F0952311F00C94A1
:103DB000751E0C947B1E11240C94C01E0E949D1E27
:103DC00070F3959FC1F3950F50E0551F629FF0016E
:103DD000729FBB27F00DB11D639FAA27F00DB11D87
:103DE000AA1F649F6627B00DA11D661F829F222710
:103DF000B00DA11D621F739FB00DA11D621F839F97
:103E0000A00D611D221F749F3327A00D611D231F6C
:103E1000849F600D211D822F762F6A2F11249F57BA
:103E200050409AF0F1F088234AF0EE0FFF1FBB1FBD
:103E3000661F771F881F91505040A9F79E3F51057C
:103E400080F00C94751E0C94C01E5F3FE4F3983E06
:103E5000D4F3869577956795B795F795E7959F5F26
:103E6000C1F7FE2B880F911D9695879597F90895B8
:103E70000F931F93CF93DF938230910510F482E06C
:103E800090E0E091DE04F091DF0430E020E0B0E06B
:103E9000A0E0309799F42115310509F44AC0281B98
:103EA000390B24303105D8F58A819B816115710564
:103EB00089F1FB0193838283FE0111C0408151810E
:103EC0000281138148175907E0F04817590799F400
:103ED000109761F012960C93129713961C933296DA
:103EE000CF01DF91CF911F910F9108950093DE04D0
:103EF0001093DF04F4CF2115310551F04217530719
:103F000038F0A901DB019A01BD01DF01F801C1CF41
:103F1000EF01F9CF9093DF048093DE04CDCFFE0153
:103F2000E20FF31F81939193225031093983288343
:103F3000D7CF2091DC043091DD04232B41F4209174
:103F40000601309107013093DD042093DC042091B9
:103F50000401309105012115310541F42DB73EB71B
:103F60004091080150910901241B350BE091DC04BC
:103F7000F091DD04E217F307A0F42E1B3F0B281786
:103F8000390778F0AC014E5F5F4F2417350748F0D2
:103F90004E0F5F1F5093DD044093DC048193919397
:103FA0009FCFF0E0E0E09CCFCF93DF930097E9F064
:103FB000FC01329713821282A091DE04B091DF04DB
:103FC000ED0130E020E01097A1F420813181820FD3
:103FD000931F2091DC043091DD042817390709F084
:103FE00061C0F093DD04E093DC04DF91CF9108958C
:103FF000EA01CE17DF07E8F54A815B819E01411592
:104000005105B1F7E901FB83EA8349915991C40F46
:10401000D51FEC17FD0761F4808191810296840F12
:10402000951FE90199838883828193819B838A8389
:10403000F0E0E0E012968D919C9113970097B9F50E
:104040002D913C911197CD010296820F931F2091E3
:10405000DC043091DD042817390739F6309751F523
:104060001092DF041092DE04B093DD04A093DC0410
:10407000BCCFD383C28340815181840F951FC81761
:10408000D90761F44E5F5F4F88819981480F591FAE
:10409000518340838A819B819383828321153105DB
:1040A00009F0B0CFF093DF04E093DE049ECFFD0172
:1040B000DC01C0CF13821282D7CF81E090E0F89468
:1040C0000C947820DC0101C06D9341505040E0F722
:1040D0000895FB01DC014150504048F001900D92E1
:1040E0000020C9F701C01D9241505040E0F70895EB
:0440F000F894FFCF72
:1040F400760176010000E004800000004000140016
:1041040054000000803F000020410000C84200002D
:104114007A4400401C460050C347002474498096EA
:10412400184B20BCBE4C286B6E4E000000000302EE
:104134007701A4015002D501B301C70100000000BA
:10414400620BFC117F1200000000B60B77012A0BF2
:10415400700200000000FB0ACE0A2A0BA40AC70A58
:10416400B40AA50A666E692B00666E69006E616EFC
:1041740000666E692D000D0A002050686173652089
:1041840025643B20536F757263652025643B20537F
:10419400696E6B20256400537465702023202020F1
:1041A4002020202020202020202020004D65617325
:1041B400757265642052504D202323232020202033
:1041C40000416E676C65202323232A2020202020B1
:1041D40020202020200020202020202020202020FB
:1041E40020202020202020202020003D3D3D436F22
:1041F4006E6669673D3D3D002048616C6C20313B33
:104204002070696E202564002048616C6C20323B6C
:104214002070696E202564002048616C6C20333B5B
:104224002070696E20256400506F736974696F6E25
:104234002053656E736F723B2070696E2025640095
:104244004D6F746F722052656164792E2E2E005367
:08425400746570202564000070
:00000001FF
