:100000000C945C000C9479000C9479000C947900A9
:100010000C9479000C9479000C9479000C9479007C
:100020000C9479000C9479000C9479000C9479006C
:100030000C9479000C9479000C9479000C9479005C
:100040000C940C010C9479000C9479000C947900B8
:100050000C9479000C9479000C9479000C9479003C
:100060000C9479000C947900000000080002010053
:100070000003040700000000000000000000000072
:10008000250028002B0000000000240027002A0083
:10009000040404040404040402020202020203032E
:1000A0000303030301020408102040800102040836
:1000B000102001020408102011241FBECFEFD8E049
:1000C000DEBFCDBF11E0A0E0B1E0E4EDF4E002C09E
:1000D00005900D92A033B107D9F721E0A0E3B1E07C
:1000E00001C01D92A234B207E1F70E9456010C94A0
:1000F00068020C94000090E0FC01EC55FF4F249145
:10010000FC01E057FF4F8491882399F090E0880F1D
:10011000991FFC01EA57FF4FA591B491FC01E458E7
:10012000FF4F859194918FB7F894EC91E22BEC936B
:100130008FBF089590E0FC01E859FF4F2491FC0126
:10014000EC55FF4F3491FC01E057FF4FE491EE2353
:1001500009F43CC0222339F1233091F038F42130E6
:10016000A9F0223001F584B58F7D12C0273091F0BF
:100170002830A1F02430B9F4809180008F7D03C035
:10018000809180008F77809380000DC084B58F7739
:1001900084BD09C08091B0008F7703C08091B0000A
:1001A0008F7D8093B000F0E0EE0FFF1FE458FF4F0B
:1001B000A591B4919FB7F894611104C08C913095CA
:1001C000382302C0EC913E2B3C939FBF08953FB76C
:1001D000F89480913E0190913F01A0914001B0912F
:1001E000410126B5A89B05C02F3F19F00196A11D1E
:1001F000B11D3FBFBA2FA92F982F8827820F911DBD
:10020000A11DB11DBC01CD0142E0660F771F881F03
:10021000991F4A95D1F708951F920F920FB60F922A
:1002200011242F933F938F939F93AF93BF9380910C
:100230003A0190913B01A0913C01B0913D01309178
:10024000390123E0230F2D3720F40196A11DB11DA4
:1002500005C026E8230F0296A11DB11D2093390188
:1002600080933A0190933B01A0933C01B0933D01F0
:1002700080913E0190913F01A0914001B0914101D8
:100280000196A11DB11D80933E0190933F01A09363
:100290004001B0934101BF91AF919F918F913F91E8
:1002A0002F910F900FBE0F901F901895789484B5E2
:1002B000826084BD84B5816084BD85B5826085BD62
:1002C00085B5816085BD80916E00816080936E00F0
:1002D00010928100809181008260809381008091E2
:1002E0008100816080938100809180008160809393
:1002F00080008091B10084608093B1008091B00053
:1003000081608093B00080917A00846080937A004D
:1003100080917A00826080937A0080917A00816077
:1003200080937A0080917A00806880937A0010929E
:10033000C10082E00E947B0083E00E947B0084E099
:100340000E947B0085E00E947B0086E00E947B008B
:1003500087E00E947B00E091380124E0E29FF001F9
:100360001124E85EFE4FA081B18133E0AA0FBB1FCC
:100370003A95E1F7A050BF4F8D919D910D90BC91A2
:10038000A02D8093300190933101A0933201B0935E
:1003900033010280F381E02D43E0EE0FFF1F4A9509
:1003A000E1F7E050FF4F84819581A681B78180936A
:1003B000340190933501A0933601B0933701109228
:1003C000380150E0E52E50E0F52EE0913801DD24B3
:1003D000D394DE0ED092380184E0E89FF00111241E
:1003E000E85EFE4F02811381C081D18160E080917F
:1003F00030010E949A0060E0809134010E949A00CE
:10040000FE0193E0EE0FFF1F9A95E1F7E050FF4FDA
:100410008081318122819381809330013093310139
:10042000209332019093330123E0000F111F2A958E
:10043000E1F7F801E050FF4FDF011496C4811196F7
:100440003C91119712962C91129713969C91C09300
:10045000340130933501209336019093370161E0E8
:100460000E949A0061E08C2F0E949A0025E02D15D1
:1004700010F4109238010E94E7002B013C0184E641
:10048000882E912CA12CB12C0E94E700DC01CB011D
:1004900084199509A609B709883E9340A105B105BD
:1004A00098F381E0881A9108A108B10828EE420E5D
:1004B00023E0521E611C711C81149104A104B1043B
:1004C00019F7E114F10409F480CF0E9400007DCFF8
:0404D000F894FFCFCE
:1004D400020000000300000004000000050000000A
:1004E40006000000070000000200000002000100F6
:1004F40000000100000002000100020001000000F1
:00000001FF
